{
  "address": "0x81DE5cFba49b5A2971833fCA68b2826FA7e80fe4",
  "abi": [
    {
      "inputs": [],
      "name": "getRandom",
      "outputs": [
        {
          "internalType": "bytes32",
          "name": "rnd",
          "type": "bytes32"
        }
      ],
      "stateMutability": "view",
      "type": "function"
    }
  ],
  "transactionHash": "0x739a64d8cb802892f53f76f8515a6cebfd5ff36dbab1ca115adae2f298df2b6e",
  "args": [],
  "numDeployments": 1,
  "solcInputHash": "9a8a738c8b8733f78a2d4e9f1481d995",
  "bytecode": "0x608060405234801561001057600080fd5b5060ce8061001f6000396000f3fe6080604052348015600f57600080fd5b506004361060285760003560e01c8063aacc5a1714602d575b600080fd5b60336047565b604051603e9190607f565b60405180910390f35b60006040516000810160208160008060185afa605f57fe5b81519250505090565b6000819050919050565b6079816068565b82525050565b6000602082019050609260008301846072565b9291505056fea2646970667358221220e1c5d1fa72c3dcfbfc1a8cf2175ddc2e3b2aee996fc9aaa25e729a8e2e0b1a2164736f6c63430008090033",
  "devdoc": {
    "kind": "dev",
    "methods": {},
    "version": 1
  },
  "userdoc": {
    "kind": "user",
    "methods": {},
    "version": 1
  },
  "storageLayout": {
    "storage": [],
    "types": null
  }
}