{
  "address": "0xC19E026330915CB8898be8F9b5cbc855b459D6f3",
  "abi": [
    {
      "inputs": [
        {
          "internalType": "address",
          "name": "_gameItemAddress",
          "type": "address"
        }
      ],
      "stateMutability": "nonpayable",
      "type": "constructor"
    },
    {
      "anonymous": false,
      "inputs": [
        {
          "indexed": true,
          "internalType": "address",
          "name": "playerOne",
          "type": "address"
        },
        {
          "indexed": true,
          "internalType": "address",
          "name": "playerTwo",
          "type": "address"
        },
        {
          "indexed": false,
          "internalType": "uint8",
          "name": "result",
          "type": "uint8"
        },
        {
          "indexed": false,
          "internalType": "uint256",
          "name": "playerOneItem",
          "type": "uint256"
        },
        {
          "indexed": false,
          "internalType": "uint256",
          "name": "playerTwoItem",
          "type": "uint256"
        }
      ],
      "name": "BattleCompleted",
      "type": "event"
    },
    {
      "anonymous": false,
      "inputs": [
        {
          "indexed": true,
          "internalType": "address",
          "name": "cheater",
          "type": "address"
        }
      ],
      "name": "Cheater",
      "type": "event"
    },
    {
      "anonymous": false,
      "inputs": [
        {
          "indexed": true,
          "internalType": "address",
          "name": "committer",
          "type": "address"
        },
        {
          "indexed": true,
          "internalType": "bytes32",
          "name": "commitment",
          "type": "bytes32"
        },
        {
          "indexed": false,
          "internalType": "uint256",
          "name": "commitmentNumber",
          "type": "uint256"
        }
      ],
      "name": "Committed",
      "type": "event"
    },
    {
      "inputs": [
        {
          "internalType": "address",
          "name": "p2",
          "type": "address"
        },
        {
          "internalType": "bytes32",
          "name": "p2Salt",
          "type": "bytes32"
        },
        {
          "internalType": "uint256",
          "name": "p2TokenId",
          "type": "uint256"
        },
        {
          "internalType": "bytes32",
          "name": "p1Salt",
          "type": "bytes32"
        },
        {
          "internalType": "uint256",
          "name": "p1TokenId",
          "type": "uint256"
        }
      ],
      "name": "battle",
      "outputs": [],
      "stateMutability": "nonpayable",
      "type": "function"
    },
    {
      "inputs": [
        {
          "internalType": "bytes32",
          "name": "commitment",
          "type": "bytes32"
        }
      ],
      "name": "commitItem",
      "outputs": [],
      "stateMutability": "nonpayable",
      "type": "function"
    },
    {
      "inputs": [
        {
          "internalType": "address",
          "name": "player",
          "type": "address"
        }
      ],
      "name": "getCommitment",
      "outputs": [
        {
          "internalType": "bytes32",
          "name": "",
          "type": "bytes32"
        }
      ],
      "stateMutability": "view",
      "type": "function"
    },
    {
      "inputs": [],
      "name": "getGameItemContract",
      "outputs": [
        {
          "internalType": "address",
          "name": "",
          "type": "address"
        }
      ],
      "stateMutability": "view",
      "type": "function"
    },
    {
      "inputs": [
        {
          "internalType": "address",
          "name": "player",
          "type": "address"
        }
      ],
      "name": "getRecord",
      "outputs": [
        {
          "internalType": "uint256",
          "name": "",
          "type": "uint256"
        },
        {
          "internalType": "uint256",
          "name": "",
          "type": "uint256"
        },
        {
          "internalType": "uint256",
          "name": "",
          "type": "uint256"
        },
        {
          "internalType": "uint256",
          "name": "",
          "type": "uint256"
        }
      ],
      "stateMutability": "view",
      "type": "function"
    }
  ],
  "transactionHash": "0x581f3dfd7a43943ef6915b3d3d52700eb9d9719f2aa2c259894137166fadae9e",
  "args": [
    "0x3fa61b23038d81ec993526914E07EAC516A22010"
  ],
  "numDeployments": 1,
  "solcInputHash": "9a8a738c8b8733f78a2d4e9f1481d995",
  "bytecode": "0x60a06040523480156200001157600080fd5b5060405162001fbb38038062001fbb8339818101604052810190620000379190620000dc565b8073ffffffffffffffffffffffffffffffffffffffff1660808173ffffffffffffffffffffffffffffffffffffffff1681525050506200010e565b600080fd5b600073ffffffffffffffffffffffffffffffffffffffff82169050919050565b6000620000a48262000077565b9050919050565b620000b68162000097565b8114620000c257600080fd5b50565b600081519050620000d681620000ab565b92915050565b600060208284031215620000f557620000f462000072565b5b60006200010584828501620000c5565b91505092915050565b608051611e8a62000131600039600081816104ad0152610c810152611e8a6000f3fe608060405234801561001057600080fd5b50600436106100575760003560e01c806357e0b58b1461005c578063617fba041461007857806368d0c21c146100ab5780638114dd89146100c9578063fa1026dd146100e5575b600080fd5b6100766004803603810190610071919061146e565b610115565b005b610092600480360381019061008d91906114f9565b610300565b6040516100a2949392919061153f565b60405180910390f35b6100b36104a9565b6040516100c09190611593565b60405180910390f35b6100e360048036038101906100de91906115da565b6104d1565b005b6100ff60048036038101906100fa91906114f9565b610b66565b60405161010c9190611664565b60405180910390f35b61011d610bae565b6040518060400160405280601581526020017f436f6d6d697420416c726561647920457869737473000000000000000000000081525090610194576040517f08c379a000000000000000000000000000000000000000000000000000000000815260040161018b9190611718565b60405180910390fd5b50806000803373ffffffffffffffffffffffffffffffffffffffff1673ffffffffffffffffffffffffffffffffffffffff16815260200190815260200160002081905550600160003373ffffffffffffffffffffffffffffffffffffffff1673ffffffffffffffffffffffffffffffffffffffff168152602001908152602001600020600081548092919061022890611769565b91905055600160003373ffffffffffffffffffffffffffffffffffffffff1673ffffffffffffffffffffffffffffffffffffffff16815260200190815260200160002081905550803373ffffffffffffffffffffffffffffffffffffffff167f550e735193e8f8bf0398f14bcadbbbf0329d5401f6786981e63f5b010662b00e600160003373ffffffffffffffffffffffffffffffffffffffff1673ffffffffffffffffffffffffffffffffffffffff168152602001908152602001600020546040516102f591906117b2565b60405180910390a350565b600080600080600260008673ffffffffffffffffffffffffffffffffffffffff1673ffffffffffffffffffffffffffffffffffffffff16815260200190815260200160002054600360008773ffffffffffffffffffffffffffffffffffffffff1673ffffffffffffffffffffffffffffffffffffffff16815260200190815260200160002054600460008873ffffffffffffffffffffffffffffffffffffffff1673ffffffffffffffffffffffffffffffffffffffff16815260200190815260200160002054600460008973ffffffffffffffffffffffffffffffffffffffff1673ffffffffffffffffffffffffffffffffffffffff16815260200190815260200160002054600360008a73ffffffffffffffffffffffffffffffffffffffff1673ffffffffffffffffffffffffffffffffffffffff16815260200190815260200160002054600260008b73ffffffffffffffffffffffffffffffffffffffff1673ffffffffffffffffffffffffffffffffffffffff1681526020019081526020016000205461049091906117cd565b61049a91906117cd565b93509350935093509193509193565b60007f0000000000000000000000000000000000000000000000000000000000000000905090565b60003390506104df81610c32565b6040518060400160405280601f81526020017f436f6d696d7420456d7074793a20426174746c6520496d706f737369626c650081525090610556576040517f08c379a000000000000000000000000000000000000000000000000000000000815260040161054d9190611718565b60405180910390fd5b5061056086610c32565b6040518060400160405280601f81526020017f436f6d696d7420456d7074793a20426174746c6520496d706f737369626c6500815250906105d7576040517f08c379a00000000000000000000000000000000000000000000000000000000081526004016105ce9190611718565b60405180910390fd5b5060006105e2610c7d565b9050600084846040516020016105f9929190611865565b60405160208183030381529060405280519060200120905060008787604051602001610626929190611865565b604051602081830303815290604052805190602001209050816000808673ffffffffffffffffffffffffffffffffffffffff1673ffffffffffffffffffffffffffffffffffffffff16815260200190815260200160002054146106be576040517f08c379a00000000000000000000000000000000000000000000000000000000081526004016106b5906118dd565b60405180910390fd5b806000808b73ffffffffffffffffffffffffffffffffffffffff1673ffffffffffffffffffffffffffffffffffffffff168152602001908152602001600020541461073e576040517f08c379a000000000000000000000000000000000000000000000000000000000815260040161073590611949565b60405180910390fd5b60008373ffffffffffffffffffffffffffffffffffffffff1662fdd58e86886040518363ffffffff1660e01b815260040161077a929190611969565b60206040518083038186803b15801561079257600080fd5b505afa1580156107a6573d6000803e3d6000fd5b505050506040513d601f19601f820116820180604052508101906107ca91906119a7565b141561086c576107d984610ca5565b6107e289610ca5565b8373ffffffffffffffffffffffffffffffffffffffff167fe97bb3f36a94996a839e979872a5dd137e39421f1f24221152454814d02edb3860405160405180910390a26108636040518060400160405280601581526020017f706c617965722031206973206120636865617465720000000000000000000000815250610cea565b50505050610b5f565b60008373ffffffffffffffffffffffffffffffffffffffff1662fdd58e8b8a6040518363ffffffff1660e01b81526004016108a8929190611969565b60206040518083038186803b1580156108c057600080fd5b505afa1580156108d4573d6000803e3d6000fd5b505050506040513d601f19601f820116820180604052508101906108f891906119a7565b141561099a5761090784610ca5565b61091089610ca5565b8873ffffffffffffffffffffffffffffffffffffffff167fe97bb3f36a94996a839e979872a5dd137e39421f1f24221152454814d02edb3860405160405180910390a26109916040518060400160405280601581526020017f706c617965722032206973206120636865617465720000000000000000000000815250610cea565b50505050610b5f565b60006109a784878a610d83565b905060038160ff161415610a49578373ffffffffffffffffffffffffffffffffffffffff16638119109e6040518163ffffffff1660e01b8152600401602060405180830381600087803b1580156109fd57600080fd5b505af1158015610a11573d6000803e3d6000fd5b505050506040513d601f19601f82011682018060405250810190610a359190611a0c565b15610a435760009050610a48565b600190505b5b610a54858b83610f77565b610a926040518060400160405280600781526020017f6d696e74696e6700000000000000000000000000000000000000000000000000815250610cea565b610aa0848288888c8f6112fa565b610aa985610ca5565b610ab28a610ca5565b610af06040518060400160405280600881526020017f656d697474696e67000000000000000000000000000000000000000000000000815250610cea565b8973ffffffffffffffffffffffffffffffffffffffff168573ffffffffffffffffffffffffffffffffffffffff167fed827e38ac0096bd77cac540c4476035a060cb873aba1950c98eca57d6a54beb83898c604051610b5193929190611a55565b60405180910390a350505050505b5050505050565b60008060008373ffffffffffffffffffffffffffffffffffffffff1673ffffffffffffffffffffffffffffffffffffffff168152602001908152602001600020549050919050565b60008060f81b6000803373ffffffffffffffffffffffffffffffffffffffff1673ffffffffffffffffffffffffffffffffffffffff16815260200190815260200160002054600060208110610c0657610c05611a8c565b5b1a60f81b7effffffffffffffffffffffffffffffffffffffffffffffffffffffffffffff191614905090565b6000806000808473ffffffffffffffffffffffffffffffffffffffff1673ffffffffffffffffffffffffffffffffffffffff1681526020019081526020016000205414159050919050565b60007f0000000000000000000000000000000000000000000000000000000000000000905090565b6000808273ffffffffffffffffffffffffffffffffffffffff1673ffffffffffffffffffffffffffffffffffffffff1681526020019081526020016000206000905550565b610d8081604051602401610cfe9190611718565b6040516020818303038152906040527f41304fac000000000000000000000000000000000000000000000000000000007bffffffffffffffffffffffffffffffffffffffffffffffffffffffff19166020820180517bffffffffffffffffffffffffffffffffffffffffffffffffffffffff83818316178352505050506113fb565b50565b600081831415610d965760029050610f70565b60008473ffffffffffffffffffffffffffffffffffffffff16637856ac40856040518263ffffffff1660e01b8152600401610dd191906117b2565b600060405180830381600087803b158015610deb57600080fd5b505af1158015610dff573d6000803e3d6000fd5b505050506040513d6000823e3d601f19601f82011682018060405250810190610e289190611e0b565b905060005b8160a0015151811015610e7e57838260a001518281518110610e5257610e51611a8c565b5b60200260200101511415610e6b57600092505050610f70565b8080610e7690611769565b915050610e2d565b5060008573ffffffffffffffffffffffffffffffffffffffff16637856ac40856040518263ffffffff1660e01b8152600401610eba91906117b2565b600060405180830381600087803b158015610ed457600080fd5b505af1158015610ee8573d6000803e3d6000fd5b505050506040513d6000823e3d601f19601f82011682018060405250810190610f119190611e0b565b905060005b8160a0015151811015610f6857858260a001518281518110610f3b57610f3a611a8c565b5b60200260200101511415610f555760019350505050610f70565b8080610f6090611769565b915050610f16565b506003925050505b9392505050565b60008160ff1614156110a6576001600260008573ffffffffffffffffffffffffffffffffffffffff1673ffffffffffffffffffffffffffffffffffffffff16815260200190815260200160002054610fcf91906117cd565b600260008573ffffffffffffffffffffffffffffffffffffffff1673ffffffffffffffffffffffffffffffffffffffff168152602001908152602001600020819055506001600360008473ffffffffffffffffffffffffffffffffffffffff1673ffffffffffffffffffffffffffffffffffffffff1681526020019081526020016000205461105e91906117cd565b600360008473ffffffffffffffffffffffffffffffffffffffff1673ffffffffffffffffffffffffffffffffffffffff168152602001908152602001600020819055506112f5565b60018160ff1614156111d5576001600260008473ffffffffffffffffffffffffffffffffffffffff1673ffffffffffffffffffffffffffffffffffffffff168152602001908152602001600020546110fe91906117cd565b600260008473ffffffffffffffffffffffffffffffffffffffff1673ffffffffffffffffffffffffffffffffffffffff168152602001908152602001600020819055506001600360008573ffffffffffffffffffffffffffffffffffffffff1673ffffffffffffffffffffffffffffffffffffffff1681526020019081526020016000205461118d91906117cd565b600360008573ffffffffffffffffffffffffffffffffffffffff1673ffffffffffffffffffffffffffffffffffffffff168152602001908152602001600020819055506112f4565b6001600460008573ffffffffffffffffffffffffffffffffffffffff1673ffffffffffffffffffffffffffffffffffffffff1681526020019081526020016000205461122191906117cd565b600460008573ffffffffffffffffffffffffffffffffffffffff1673ffffffffffffffffffffffffffffffffffffffff168152602001908152602001600020819055506001600460008473ffffffffffffffffffffffffffffffffffffffff1673ffffffffffffffffffffffffffffffffffffffff168152602001908152602001600020546112b091906117cd565b600460008473ffffffffffffffffffffffffffffffffffffffff1673ffffffffffffffffffffffffffffffffffffffff168152602001908152602001600020819055505b5b505050565b60008560ff161415611378578573ffffffffffffffffffffffffffffffffffffffff1663b2c79c3784846040518363ffffffff1660e01b8152600401611341929190611969565b600060405180830381600087803b15801561135b57600080fd5b505af115801561136f573d6000803e3d6000fd5b505050506113f3565b60018560ff1614156113f2578573ffffffffffffffffffffffffffffffffffffffff1663b2c79c3782866040518363ffffffff1660e01b81526004016113bf929190611969565b600060405180830381600087803b1580156113d957600080fd5b505af11580156113ed573d6000803e3d6000fd5b505050505b5b505050505050565b60008151905060006a636f6e736f6c652e6c6f679050602083016000808483855afa5050505050565b6000604051905090565b600080fd5b600080fd5b6000819050919050565b61144b81611438565b811461145657600080fd5b50565b60008135905061146881611442565b92915050565b6000602082840312156114845761148361142e565b5b600061149284828501611459565b91505092915050565b600073ffffffffffffffffffffffffffffffffffffffff82169050919050565b60006114c68261149b565b9050919050565b6114d6816114bb565b81146114e157600080fd5b50565b6000813590506114f3816114cd565b92915050565b60006020828403121561150f5761150e61142e565b5b600061151d848285016114e4565b91505092915050565b6000819050919050565b61153981611526565b82525050565b60006080820190506115546000830187611530565b6115616020830186611530565b61156e6040830185611530565b61157b6060830184611530565b95945050505050565b61158d816114bb565b82525050565b60006020820190506115a86000830184611584565b92915050565b6115b781611526565b81146115c257600080fd5b50565b6000813590506115d4816115ae565b92915050565b600080600080600060a086880312156115f6576115f561142e565b5b6000611604888289016114e4565b955050602061161588828901611459565b9450506040611626888289016115c5565b935050606061163788828901611459565b9250506080611648888289016115c5565b9150509295509295909350565b61165e81611438565b82525050565b60006020820190506116796000830184611655565b92915050565b600081519050919050565b600082825260208201905092915050565b60005b838110156116b957808201518184015260208101905061169e565b838111156116c8576000848401525b50505050565b6000601f19601f8301169050919050565b60006116ea8261167f565b6116f4818561168a565b935061170481856020860161169b565b61170d816116ce565b840191505092915050565b6000602082019050818103600083015261173281846116df565b905092915050565b7f4e487b7100000000000000000000000000000000000000000000000000000000600052601160045260246000fd5b600061177482611526565b91507fffffffffffffffffffffffffffffffffffffffffffffffffffffffffffffffff8214156117a7576117a661173a565b5b600182019050919050565b60006020820190506117c76000830184611530565b92915050565b60006117d882611526565b91506117e383611526565b9250827fffffffffffffffffffffffffffffffffffffffffffffffffffffffffffffffff038211156118185761181761173a565b5b828201905092915050565b6000819050919050565b61183e61183982611438565b611823565b82525050565b6000819050919050565b61185f61185a82611526565b611844565b82525050565b6000611871828561182d565b602082019150611881828461184e565b6020820191508190509392505050565b7f503120436f6d6d69746d656e74204d69736d6174636865640000000000000000600082015250565b60006118c760188361168a565b91506118d282611891565b602082019050919050565b600060208201905081810360008301526118f6816118ba565b9050919050565b7f503220436f6d6d69746d656e74204d69736d6174636865640000000000000000600082015250565b600061193360188361168a565b915061193e826118fd565b602082019050919050565b6000602082019050818103600083015261196281611926565b9050919050565b600060408201905061197e6000830185611584565b61198b6020830184611530565b9392505050565b6000815190506119a1816115ae565b92915050565b6000602082840312156119bd576119bc61142e565b5b60006119cb84828501611992565b91505092915050565b60008115159050919050565b6119e9816119d4565b81146119f457600080fd5b50565b600081519050611a06816119e0565b92915050565b600060208284031215611a2257611a2161142e565b5b6000611a30848285016119f7565b91505092915050565b600060ff82169050919050565b611a4f81611a39565b82525050565b6000606082019050611a6a6000830186611a46565b611a776020830185611530565b611a846040830184611530565b949350505050565b7f4e487b7100000000000000000000000000000000000000000000000000000000600052603260045260246000fd5b600080fd5b7f4e487b7100000000000000000000000000000000000000000000000000000000600052604160045260246000fd5b611af8826116ce565b810181811067ffffffffffffffff82111715611b1757611b16611ac0565b5b80604052505050565b6000611b2a611424565b9050611b368282611aef565b919050565b600080fd5b611b4981611a39565b8114611b5457600080fd5b50565b600081519050611b6681611b40565b92915050565b600080fd5b600080fd5b600067ffffffffffffffff821115611b9157611b90611ac0565b5b611b9a826116ce565b9050602081019050919050565b6000611bba611bb584611b76565b611b20565b905082815260208101848484011115611bd657611bd5611b71565b5b611be184828561169b565b509392505050565b600082601f830112611bfe57611bfd611b6c565b5b8151611c0e848260208601611ba7565b91505092915050565b600067ffffffffffffffff821115611c3257611c31611ac0565b5b602082029050602081019050919050565b600080fd5b6000611c5b611c5684611c17565b611b20565b90508083825260208201905060208402830185811115611c7e57611c7d611c43565b5b835b81811015611ca75780611c938882611992565b845260208401935050602081019050611c80565b5050509392505050565b600082601f830112611cc657611cc5611b6c565b5b8151611cd6848260208601611c48565b91505092915050565b600060c08284031215611cf557611cf4611abb565b5b611cff60c0611b20565b90506000611d0f84828501611b57565b600083015250602082015167ffffffffffffffff811115611d3357611d32611b3b565b5b611d3f84828501611be9565b602083015250604082015167ffffffffffffffff811115611d6357611d62611b3b565b5b611d6f84828501611be9565b604083015250606082015167ffffffffffffffff811115611d9357611d92611b3b565b5b611d9f84828501611be9565b606083015250608082015167ffffffffffffffff811115611dc357611dc2611b3b565b5b611dcf84828501611be9565b60808301525060a082015167ffffffffffffffff811115611df357611df2611b3b565b5b611dff84828501611cb1565b60a08301525092915050565b600060208284031215611e2157611e2061142e565b5b600082015167ffffffffffffffff811115611e3f57611e3e611433565b5b611e4b84828501611cdf565b9150509291505056fea2646970667358221220581a61493846470d5a4d1b66548b99c2e7bb6084820739e5b6a4b0316461108664736f6c63430008090033",
  "devdoc": {
    "author": "TobowerTheGreatAxios",
    "details": "This smart contract is the core battle logic and reveal for the game*",
    "kind": "dev",
    "methods": {
      "battle(address,bytes32,uint256,bytes32,uint256)": {
        "details": "The Battle FunctionChecks Both the Signer and the Opponent for ItemsTakes the bytes32 hash and uses it with token ids to match items for a full return on both endsEmits an Event With all the data as well?"
      },
      "commitItem(bytes32)": {
        "details": "Enables Player to Commit an Item",
        "params": {
          "commitment": "Takes a hashed commit and stores on chain"
        }
      },
      "constructor": {
        "details": "Sets Game Item Contract to the active Game ItemsScript MUST add WIN_MANAGER_ROLE to THIS",
        "params": {
          "_gameItemAddress": "Address of Game Item"
        }
      },
      "getCommitment(address)": {
        "details": "Gets Current Commitment of a Player",
        "params": {
          "player": "address of player"
        },
        "returns": {
          "_0": "bytes32 current commitment"
        }
      },
      "getGameItemContract()": {
        "details": "Gets Address of The Game Item Contract",
        "returns": {
          "_0": "address of the contract"
        }
      },
      "getRecord(address)": {
        "details": "Retrieves Record for a playerReturns the record in the format Wins-Losses-Draws-BATTLES with each value being uint256 due to mappipng setup",
        "params": {
          "player": "the address of the player that the record is for"
        },
        "returns": {
          "_0": "[uint256, uint256, uint256, uint256] WINS-LOSSES-DRAWS-BATTLES"
        }
      }
    },
    "version": 1
  },
  "userdoc": {
    "events": {
      "BattleCompleted(address,address,uint8,uint256,uint256)": {
        "notice": "Emits the End of a Battle"
      },
      "Cheater(address)": {
        "notice": "Emits a Cheater"
      },
      "Committed(address,bytes32,uint256)": {
        "notice": "Emits a New Commited Item"
      }
    },
    "kind": "user",
    "methods": {
      "getRecord(address)": {
        "notice": "Depending on our thoughts here, although on SKALE it does not matter, we could look to lower the maximum win-loss-draw size as the uint256 size may be much larger than required"
      }
    },
    "notice": "Battle for ETH CC",
    "version": 1
  },
  "storageLayout": {
    "storage": [
      {
        "astId": 3224,
        "contract": "contracts/Battle.sol:Battle",
        "label": "committed",
        "offset": 0,
        "slot": "0",
        "type": "t_mapping(t_address,t_bytes32)"
      },
      {
        "astId": 3229,
        "contract": "contracts/Battle.sol:Battle",
        "label": "timesCommitted",
        "offset": 0,
        "slot": "1",
        "type": "t_mapping(t_address,t_uint256)"
      },
      {
        "astId": 3234,
        "contract": "contracts/Battle.sol:Battle",
        "label": "wins",
        "offset": 0,
        "slot": "2",
        "type": "t_mapping(t_address,t_uint256)"
      },
      {
        "astId": 3239,
        "contract": "contracts/Battle.sol:Battle",
        "label": "losses",
        "offset": 0,
        "slot": "3",
        "type": "t_mapping(t_address,t_uint256)"
      },
      {
        "astId": 3244,
        "contract": "contracts/Battle.sol:Battle",
        "label": "draws",
        "offset": 0,
        "slot": "4",
        "type": "t_mapping(t_address,t_uint256)"
      },
      {
        "astId": 3249,
        "contract": "contracts/Battle.sol:Battle",
        "label": "playoff",
        "offset": 0,
        "slot": "5",
        "type": "t_mapping(t_address,t_uint256)"
      }
    ],
    "types": {
      "t_address": {
        "encoding": "inplace",
        "label": "address",
        "numberOfBytes": "20"
      },
      "t_bytes32": {
        "encoding": "inplace",
        "label": "bytes32",
        "numberOfBytes": "32"
      },
      "t_mapping(t_address,t_bytes32)": {
        "encoding": "mapping",
        "key": "t_address",
        "label": "mapping(address => bytes32)",
        "numberOfBytes": "32",
        "value": "t_bytes32"
      },
      "t_mapping(t_address,t_uint256)": {
        "encoding": "mapping",
        "key": "t_address",
        "label": "mapping(address => uint256)",
        "numberOfBytes": "32",
        "value": "t_uint256"
      },
      "t_uint256": {
        "encoding": "inplace",
        "label": "uint256",
        "numberOfBytes": "32"
      }
    }
  }
}