{
  "address": "0x6fd8005220Ae3AabF90Fc6CdB328719E8298D680",
  "abi": [
    {
      "inputs": [
        {
          "internalType": "address",
          "name": "_gameItemAddress",
          "type": "address"
        }
      ],
      "stateMutability": "nonpayable",
      "type": "constructor"
    },
    {
      "anonymous": false,
      "inputs": [
        {
          "indexed": true,
          "internalType": "address",
          "name": "playerOne",
          "type": "address"
        },
        {
          "indexed": true,
          "internalType": "address",
          "name": "playerTwo",
          "type": "address"
        },
        {
          "indexed": false,
          "internalType": "uint8",
          "name": "result",
          "type": "uint8"
        },
        {
          "indexed": false,
          "internalType": "uint256",
          "name": "playerOneItem",
          "type": "uint256"
        },
        {
          "indexed": false,
          "internalType": "uint256",
          "name": "playerTwoItem",
          "type": "uint256"
        }
      ],
      "name": "BattleCompleted",
      "type": "event"
    },
    {
      "anonymous": false,
      "inputs": [
        {
          "indexed": true,
          "internalType": "address",
          "name": "cheater",
          "type": "address"
        }
      ],
      "name": "Cheater",
      "type": "event"
    },
    {
      "anonymous": false,
      "inputs": [
        {
          "indexed": true,
          "internalType": "address",
          "name": "committer",
          "type": "address"
        },
        {
          "indexed": true,
          "internalType": "bytes32",
          "name": "commitment",
          "type": "bytes32"
        },
        {
          "indexed": false,
          "internalType": "uint256",
          "name": "commitmentNumber",
          "type": "uint256"
        }
      ],
      "name": "Committed",
      "type": "event"
    },
    {
      "anonymous": false,
      "inputs": [
        {
          "indexed": true,
          "internalType": "bytes32",
          "name": "playerOneSalt",
          "type": "bytes32"
        },
        {
          "indexed": true,
          "internalType": "bytes32",
          "name": "playerTwoSalt",
          "type": "bytes32"
        }
      ],
      "name": "SaltUsed",
      "type": "event"
    },
    {
      "inputs": [
        {
          "internalType": "address",
          "name": "p2",
          "type": "address"
        },
        {
          "internalType": "bytes32",
          "name": "p2Salt",
          "type": "bytes32"
        },
        {
          "internalType": "uint256",
          "name": "p2TokenId",
          "type": "uint256"
        },
        {
          "internalType": "bytes32",
          "name": "p1Salt",
          "type": "bytes32"
        },
        {
          "internalType": "uint256",
          "name": "p1TokenId",
          "type": "uint256"
        }
      ],
      "name": "battle",
      "outputs": [],
      "stateMutability": "nonpayable",
      "type": "function"
    },
    {
      "inputs": [
        {
          "internalType": "bytes32",
          "name": "commitment",
          "type": "bytes32"
        }
      ],
      "name": "commitItem",
      "outputs": [],
      "stateMutability": "nonpayable",
      "type": "function"
    },
    {
      "inputs": [
        {
          "internalType": "address",
          "name": "player",
          "type": "address"
        }
      ],
      "name": "getCommitment",
      "outputs": [
        {
          "internalType": "bytes32",
          "name": "",
          "type": "bytes32"
        }
      ],
      "stateMutability": "view",
      "type": "function"
    },
    {
      "inputs": [],
      "name": "getGameItemContract",
      "outputs": [
        {
          "internalType": "address",
          "name": "",
          "type": "address"
        }
      ],
      "stateMutability": "view",
      "type": "function"
    },
    {
      "inputs": [
        {
          "internalType": "address",
          "name": "player",
          "type": "address"
        }
      ],
      "name": "getRecord",
      "outputs": [
        {
          "internalType": "uint256",
          "name": "",
          "type": "uint256"
        },
        {
          "internalType": "uint256",
          "name": "",
          "type": "uint256"
        },
        {
          "internalType": "uint256",
          "name": "",
          "type": "uint256"
        },
        {
          "internalType": "uint256",
          "name": "",
          "type": "uint256"
        }
      ],
      "stateMutability": "view",
      "type": "function"
    }
  ],
  "transactionHash": "0x8c8b128b88760b045ae9273531f5305396d76031dc12d1b9bae6d77ebacc5002",
  "args": [
    "0x73F10d68d207501246c5Ac7ED3ec81fDe08C1d6e"
  ],
  "numDeployments": 4,
  "solcInputHash": "2d2901c31e530e4c3df8df6f087e509f",
  "bytecode": "0x60a06040523480156200001157600080fd5b5060405162001fe938038062001fe98339818101604052810190620000379190620000dc565b8073ffffffffffffffffffffffffffffffffffffffff1660808173ffffffffffffffffffffffffffffffffffffffff1681525050506200010e565b600080fd5b600073ffffffffffffffffffffffffffffffffffffffff82169050919050565b6000620000a48262000077565b9050919050565b620000b68162000097565b8114620000c257600080fd5b50565b600081519050620000d681620000ab565b92915050565b600060208284031215620000f557620000f462000072565b5b60006200010584828501620000c5565b91505092915050565b608051611eb862000131600039600081816104ad0152610caf0152611eb86000f3fe608060405234801561001057600080fd5b50600436106100575760003560e01c806357e0b58b1461005c578063617fba041461007857806368d0c21c146100ab5780638114dd89146100c9578063fa1026dd146100e5575b600080fd5b6100766004803603810190610071919061149c565b610115565b005b610092600480360381019061008d9190611527565b610300565b6040516100a2949392919061156d565b60405180910390f35b6100b36104a9565b6040516100c091906115c1565b60405180910390f35b6100e360048036038101906100de9190611608565b6104d1565b005b6100ff60048036038101906100fa9190611527565b610b94565b60405161010c9190611692565b60405180910390f35b61011d610bdc565b6040518060400160405280601581526020017f436f6d6d697420416c726561647920457869737473000000000000000000000081525090610194576040517f08c379a000000000000000000000000000000000000000000000000000000000815260040161018b9190611746565b60405180910390fd5b50806000803373ffffffffffffffffffffffffffffffffffffffff1673ffffffffffffffffffffffffffffffffffffffff16815260200190815260200160002081905550600160003373ffffffffffffffffffffffffffffffffffffffff1673ffffffffffffffffffffffffffffffffffffffff168152602001908152602001600020600081548092919061022890611797565b91905055600160003373ffffffffffffffffffffffffffffffffffffffff1673ffffffffffffffffffffffffffffffffffffffff16815260200190815260200160002081905550803373ffffffffffffffffffffffffffffffffffffffff167f550e735193e8f8bf0398f14bcadbbbf0329d5401f6786981e63f5b010662b00e600160003373ffffffffffffffffffffffffffffffffffffffff1673ffffffffffffffffffffffffffffffffffffffff168152602001908152602001600020546040516102f591906117e0565b60405180910390a350565b600080600080600260008673ffffffffffffffffffffffffffffffffffffffff1673ffffffffffffffffffffffffffffffffffffffff16815260200190815260200160002054600360008773ffffffffffffffffffffffffffffffffffffffff1673ffffffffffffffffffffffffffffffffffffffff16815260200190815260200160002054600460008873ffffffffffffffffffffffffffffffffffffffff1673ffffffffffffffffffffffffffffffffffffffff16815260200190815260200160002054600460008973ffffffffffffffffffffffffffffffffffffffff1673ffffffffffffffffffffffffffffffffffffffff16815260200190815260200160002054600360008a73ffffffffffffffffffffffffffffffffffffffff1673ffffffffffffffffffffffffffffffffffffffff16815260200190815260200160002054600260008b73ffffffffffffffffffffffffffffffffffffffff1673ffffffffffffffffffffffffffffffffffffffff1681526020019081526020016000205461049091906117fb565b61049a91906117fb565b93509350935093509193509193565b60007f0000000000000000000000000000000000000000000000000000000000000000905090565b60003390506104df81610c60565b6040518060400160405280601f81526020017f436f6d696d7420456d7074793a20426174746c6520496d706f737369626c650081525090610556576040517f08c379a000000000000000000000000000000000000000000000000000000000815260040161054d9190611746565b60405180910390fd5b5061056086610c60565b6040518060400160405280601f81526020017f436f6d696d7420456d7074793a20426174746c6520496d706f737369626c6500815250906105d7576040517f08c379a00000000000000000000000000000000000000000000000000000000081526004016105ce9190611746565b60405180910390fd5b5060006105e2610cab565b9050600084846040516020016105f9929190611893565b60405160208183030381529060405280519060200120905060008787604051602001610626929190611893565b604051602081830303815290604052805190602001209050816000808673ffffffffffffffffffffffffffffffffffffffff1673ffffffffffffffffffffffffffffffffffffffff16815260200190815260200160002054146106be576040517f08c379a00000000000000000000000000000000000000000000000000000000081526004016106b59061190b565b60405180910390fd5b806000808b73ffffffffffffffffffffffffffffffffffffffff1673ffffffffffffffffffffffffffffffffffffffff168152602001908152602001600020541461073e576040517f08c379a000000000000000000000000000000000000000000000000000000000815260040161073590611977565b60405180910390fd5b87867f869c965a66e5097a9718e4d0033bdcf38eb1e2c5b48853b02ce3276ac00f157360405160405180910390a360008373ffffffffffffffffffffffffffffffffffffffff1662fdd58e86886040518363ffffffff1660e01b81526004016107a8929190611997565b60206040518083038186803b1580156107c057600080fd5b505afa1580156107d4573d6000803e3d6000fd5b505050506040513d601f19601f820116820180604052508101906107f891906119d5565b141561089a5761080784610cd3565b61081089610cd3565b8373ffffffffffffffffffffffffffffffffffffffff167fe97bb3f36a94996a839e979872a5dd137e39421f1f24221152454814d02edb3860405160405180910390a26108916040518060400160405280601581526020017f706c617965722031206973206120636865617465720000000000000000000000815250610d18565b50505050610b8d565b60008373ffffffffffffffffffffffffffffffffffffffff1662fdd58e8b8a6040518363ffffffff1660e01b81526004016108d6929190611997565b60206040518083038186803b1580156108ee57600080fd5b505afa158015610902573d6000803e3d6000fd5b505050506040513d601f19601f8201168201806040525081019061092691906119d5565b14156109c85761093584610cd3565b61093e89610cd3565b8873ffffffffffffffffffffffffffffffffffffffff167fe97bb3f36a94996a839e979872a5dd137e39421f1f24221152454814d02edb3860405160405180910390a26109bf6040518060400160405280601581526020017f706c617965722032206973206120636865617465720000000000000000000000815250610d18565b50505050610b8d565b60006109d584878a610db1565b905060038160ff161415610a77578373ffffffffffffffffffffffffffffffffffffffff16638119109e6040518163ffffffff1660e01b8152600401602060405180830381600087803b158015610a2b57600080fd5b505af1158015610a3f573d6000803e3d6000fd5b505050506040513d601f19601f82011682018060405250810190610a639190611a3a565b15610a715760009050610a76565b600190505b5b610a82858b83610fa5565b610ac06040518060400160405280600781526020017f6d696e74696e6700000000000000000000000000000000000000000000000000815250610d18565b610ace848288888c8f611328565b610ad785610cd3565b610ae08a610cd3565b610b1e6040518060400160405280600881526020017f656d697474696e67000000000000000000000000000000000000000000000000815250610d18565b8973ffffffffffffffffffffffffffffffffffffffff168573ffffffffffffffffffffffffffffffffffffffff167fed827e38ac0096bd77cac540c4476035a060cb873aba1950c98eca57d6a54beb83898c604051610b7f93929190611a83565b60405180910390a350505050505b5050505050565b60008060008373ffffffffffffffffffffffffffffffffffffffff1673ffffffffffffffffffffffffffffffffffffffff168152602001908152602001600020549050919050565b60008060f81b6000803373ffffffffffffffffffffffffffffffffffffffff1673ffffffffffffffffffffffffffffffffffffffff16815260200190815260200160002054600060208110610c3457610c33611aba565b5b1a60f81b7effffffffffffffffffffffffffffffffffffffffffffffffffffffffffffff191614905090565b6000806000808473ffffffffffffffffffffffffffffffffffffffff1673ffffffffffffffffffffffffffffffffffffffff1681526020019081526020016000205414159050919050565b60007f0000000000000000000000000000000000000000000000000000000000000000905090565b6000808273ffffffffffffffffffffffffffffffffffffffff1673ffffffffffffffffffffffffffffffffffffffff1681526020019081526020016000206000905550565b610dae81604051602401610d2c9190611746565b6040516020818303038152906040527f41304fac000000000000000000000000000000000000000000000000000000007bffffffffffffffffffffffffffffffffffffffffffffffffffffffff19166020820180517bffffffffffffffffffffffffffffffffffffffffffffffffffffffff8381831617835250505050611429565b50565b600081831415610dc45760029050610f9e565b60008473ffffffffffffffffffffffffffffffffffffffff16637856ac40856040518263ffffffff1660e01b8152600401610dff91906117e0565b600060405180830381600087803b158015610e1957600080fd5b505af1158015610e2d573d6000803e3d6000fd5b505050506040513d6000823e3d601f19601f82011682018060405250810190610e569190611e39565b905060005b8160a0015151811015610eac57838260a001518281518110610e8057610e7f611aba565b5b60200260200101511415610e9957600092505050610f9e565b8080610ea490611797565b915050610e5b565b5060008573ffffffffffffffffffffffffffffffffffffffff16637856ac40856040518263ffffffff1660e01b8152600401610ee891906117e0565b600060405180830381600087803b158015610f0257600080fd5b505af1158015610f16573d6000803e3d6000fd5b505050506040513d6000823e3d601f19601f82011682018060405250810190610f3f9190611e39565b905060005b8160a0015151811015610f9657858260a001518281518110610f6957610f68611aba565b5b60200260200101511415610f835760019350505050610f9e565b8080610f8e90611797565b915050610f44565b506003925050505b9392505050565b60008160ff1614156110d4576001600260008573ffffffffffffffffffffffffffffffffffffffff1673ffffffffffffffffffffffffffffffffffffffff16815260200190815260200160002054610ffd91906117fb565b600260008573ffffffffffffffffffffffffffffffffffffffff1673ffffffffffffffffffffffffffffffffffffffff168152602001908152602001600020819055506001600360008473ffffffffffffffffffffffffffffffffffffffff1673ffffffffffffffffffffffffffffffffffffffff1681526020019081526020016000205461108c91906117fb565b600360008473ffffffffffffffffffffffffffffffffffffffff1673ffffffffffffffffffffffffffffffffffffffff16815260200190815260200160002081905550611323565b60018160ff161415611203576001600260008473ffffffffffffffffffffffffffffffffffffffff1673ffffffffffffffffffffffffffffffffffffffff1681526020019081526020016000205461112c91906117fb565b600260008473ffffffffffffffffffffffffffffffffffffffff1673ffffffffffffffffffffffffffffffffffffffff168152602001908152602001600020819055506001600360008573ffffffffffffffffffffffffffffffffffffffff1673ffffffffffffffffffffffffffffffffffffffff168152602001908152602001600020546111bb91906117fb565b600360008573ffffffffffffffffffffffffffffffffffffffff1673ffffffffffffffffffffffffffffffffffffffff16815260200190815260200160002081905550611322565b6001600460008573ffffffffffffffffffffffffffffffffffffffff1673ffffffffffffffffffffffffffffffffffffffff1681526020019081526020016000205461124f91906117fb565b600460008573ffffffffffffffffffffffffffffffffffffffff1673ffffffffffffffffffffffffffffffffffffffff168152602001908152602001600020819055506001600460008473ffffffffffffffffffffffffffffffffffffffff1673ffffffffffffffffffffffffffffffffffffffff168152602001908152602001600020546112de91906117fb565b600460008473ffffffffffffffffffffffffffffffffffffffff1673ffffffffffffffffffffffffffffffffffffffff168152602001908152602001600020819055505b5b505050565b60008560ff1614156113a6578573ffffffffffffffffffffffffffffffffffffffff1663b2c79c3784846040518363ffffffff1660e01b815260040161136f929190611997565b600060405180830381600087803b15801561138957600080fd5b505af115801561139d573d6000803e3d6000fd5b50505050611421565b60018560ff161415611420578573ffffffffffffffffffffffffffffffffffffffff1663b2c79c3782866040518363ffffffff1660e01b81526004016113ed929190611997565b600060405180830381600087803b15801561140757600080fd5b505af115801561141b573d6000803e3d6000fd5b505050505b5b505050505050565b60008151905060006a636f6e736f6c652e6c6f679050602083016000808483855afa5050505050565b6000604051905090565b600080fd5b600080fd5b6000819050919050565b61147981611466565b811461148457600080fd5b50565b60008135905061149681611470565b92915050565b6000602082840312156114b2576114b161145c565b5b60006114c084828501611487565b91505092915050565b600073ffffffffffffffffffffffffffffffffffffffff82169050919050565b60006114f4826114c9565b9050919050565b611504816114e9565b811461150f57600080fd5b50565b600081359050611521816114fb565b92915050565b60006020828403121561153d5761153c61145c565b5b600061154b84828501611512565b91505092915050565b6000819050919050565b61156781611554565b82525050565b6000608082019050611582600083018761155e565b61158f602083018661155e565b61159c604083018561155e565b6115a9606083018461155e565b95945050505050565b6115bb816114e9565b82525050565b60006020820190506115d660008301846115b2565b92915050565b6115e581611554565b81146115f057600080fd5b50565b600081359050611602816115dc565b92915050565b600080600080600060a086880312156116245761162361145c565b5b600061163288828901611512565b955050602061164388828901611487565b9450506040611654888289016115f3565b935050606061166588828901611487565b9250506080611676888289016115f3565b9150509295509295909350565b61168c81611466565b82525050565b60006020820190506116a76000830184611683565b92915050565b600081519050919050565b600082825260208201905092915050565b60005b838110156116e75780820151818401526020810190506116cc565b838111156116f6576000848401525b50505050565b6000601f19601f8301169050919050565b6000611718826116ad565b61172281856116b8565b93506117328185602086016116c9565b61173b816116fc565b840191505092915050565b60006020820190508181036000830152611760818461170d565b905092915050565b7f4e487b7100000000000000000000000000000000000000000000000000000000600052601160045260246000fd5b60006117a282611554565b91507fffffffffffffffffffffffffffffffffffffffffffffffffffffffffffffffff8214156117d5576117d4611768565b5b600182019050919050565b60006020820190506117f5600083018461155e565b92915050565b600061180682611554565b915061181183611554565b9250827fffffffffffffffffffffffffffffffffffffffffffffffffffffffffffffffff0382111561184657611845611768565b5b828201905092915050565b6000819050919050565b61186c61186782611466565b611851565b82525050565b6000819050919050565b61188d61188882611554565b611872565b82525050565b600061189f828561185b565b6020820191506118af828461187c565b6020820191508190509392505050565b7f503120436f6d6d69746d656e74204d69736d6174636865640000000000000000600082015250565b60006118f56018836116b8565b9150611900826118bf565b602082019050919050565b60006020820190508181036000830152611924816118e8565b9050919050565b7f503220436f6d6d69746d656e74204d69736d6174636865640000000000000000600082015250565b60006119616018836116b8565b915061196c8261192b565b602082019050919050565b6000602082019050818103600083015261199081611954565b9050919050565b60006040820190506119ac60008301856115b2565b6119b9602083018461155e565b9392505050565b6000815190506119cf816115dc565b92915050565b6000602082840312156119eb576119ea61145c565b5b60006119f9848285016119c0565b91505092915050565b60008115159050919050565b611a1781611a02565b8114611a2257600080fd5b50565b600081519050611a3481611a0e565b92915050565b600060208284031215611a5057611a4f61145c565b5b6000611a5e84828501611a25565b91505092915050565b600060ff82169050919050565b611a7d81611a67565b82525050565b6000606082019050611a986000830186611a74565b611aa5602083018561155e565b611ab2604083018461155e565b949350505050565b7f4e487b7100000000000000000000000000000000000000000000000000000000600052603260045260246000fd5b600080fd5b7f4e487b7100000000000000000000000000000000000000000000000000000000600052604160045260246000fd5b611b26826116fc565b810181811067ffffffffffffffff82111715611b4557611b44611aee565b5b80604052505050565b6000611b58611452565b9050611b648282611b1d565b919050565b600080fd5b611b7781611a67565b8114611b8257600080fd5b50565b600081519050611b9481611b6e565b92915050565b600080fd5b600080fd5b600067ffffffffffffffff821115611bbf57611bbe611aee565b5b611bc8826116fc565b9050602081019050919050565b6000611be8611be384611ba4565b611b4e565b905082815260208101848484011115611c0457611c03611b9f565b5b611c0f8482856116c9565b509392505050565b600082601f830112611c2c57611c2b611b9a565b5b8151611c3c848260208601611bd5565b91505092915050565b600067ffffffffffffffff821115611c6057611c5f611aee565b5b602082029050602081019050919050565b600080fd5b6000611c89611c8484611c45565b611b4e565b90508083825260208201905060208402830185811115611cac57611cab611c71565b5b835b81811015611cd55780611cc188826119c0565b845260208401935050602081019050611cae565b5050509392505050565b600082601f830112611cf457611cf3611b9a565b5b8151611d04848260208601611c76565b91505092915050565b600060c08284031215611d2357611d22611ae9565b5b611d2d60c0611b4e565b90506000611d3d84828501611b85565b600083015250602082015167ffffffffffffffff811115611d6157611d60611b69565b5b611d6d84828501611c17565b602083015250604082015167ffffffffffffffff811115611d9157611d90611b69565b5b611d9d84828501611c17565b604083015250606082015167ffffffffffffffff811115611dc157611dc0611b69565b5b611dcd84828501611c17565b606083015250608082015167ffffffffffffffff811115611df157611df0611b69565b5b611dfd84828501611c17565b60808301525060a082015167ffffffffffffffff811115611e2157611e20611b69565b5b611e2d84828501611cdf565b60a08301525092915050565b600060208284031215611e4f57611e4e61145c565b5b600082015167ffffffffffffffff811115611e6d57611e6c611461565b5b611e7984828501611d0d565b9150509291505056fea2646970667358221220f223d6df38dfb943948df7af5e736250a887d7f5fddb9b0c8e2dac31e99f57e764736f6c63430008090033",
  "devdoc": {
    "author": "TobowerTheGreatAxios",
    "details": "This smart contract is the core battle logic and reveal for the game*",
    "kind": "dev",
    "methods": {
      "battle(address,bytes32,uint256,bytes32,uint256)": {
        "details": "The Battle FunctionChecks Both the Signer and the Opponent for ItemsTakes the bytes32 hash and uses it with token ids to match items for a full return on both endsEmits an Event With all the data as well?"
      },
      "commitItem(bytes32)": {
        "details": "Enables Player to Commit an Item",
        "params": {
          "commitment": "Takes a hashed commit and stores on chain"
        }
      },
      "constructor": {
        "details": "Sets Game Item Contract to the active Game ItemsScript MUST add WIN_MANAGER_ROLE to THIS",
        "params": {
          "_gameItemAddress": "Address of Game Item"
        }
      },
      "getCommitment(address)": {
        "details": "Gets Current Commitment of a Player",
        "params": {
          "player": "address of player"
        },
        "returns": {
          "_0": "bytes32 current commitment"
        }
      },
      "getGameItemContract()": {
        "details": "Gets Address of The Game Item Contract",
        "returns": {
          "_0": "address of the contract"
        }
      },
      "getRecord(address)": {
        "details": "Retrieves Record for a playerReturns the record in the format Wins-Losses-Draws-BATTLES with each value being uint256 due to mappipng setup",
        "params": {
          "player": "the address of the player that the record is for"
        },
        "returns": {
          "_0": "[uint256, uint256, uint256, uint256] WINS-LOSSES-DRAWS-BATTLES"
        }
      }
    },
    "version": 1
  },
  "userdoc": {
    "events": {
      "BattleCompleted(address,address,uint8,uint256,uint256)": {
        "notice": "Emits the End of a Battle"
      },
      "Cheater(address)": {
        "notice": "Emits a Cheater"
      },
      "Committed(address,bytes32,uint256)": {
        "notice": "Emits a New Commited Item"
      }
    },
    "kind": "user",
    "methods": {
      "getRecord(address)": {
        "notice": "Depending on our thoughts here, although on SKALE it does not matter, we could look to lower the maximum win-loss-draw size as the uint256 size may be much larger than required"
      }
    },
    "notice": "Battle for ETH CC",
    "version": 1
  },
  "storageLayout": {
    "storage": [
      {
        "astId": 2387,
        "contract": "contracts/Battle.sol:Battle",
        "label": "committed",
        "offset": 0,
        "slot": "0",
        "type": "t_mapping(t_address,t_bytes32)"
      },
      {
        "astId": 2392,
        "contract": "contracts/Battle.sol:Battle",
        "label": "timesCommitted",
        "offset": 0,
        "slot": "1",
        "type": "t_mapping(t_address,t_uint256)"
      },
      {
        "astId": 2397,
        "contract": "contracts/Battle.sol:Battle",
        "label": "wins",
        "offset": 0,
        "slot": "2",
        "type": "t_mapping(t_address,t_uint256)"
      },
      {
        "astId": 2402,
        "contract": "contracts/Battle.sol:Battle",
        "label": "losses",
        "offset": 0,
        "slot": "3",
        "type": "t_mapping(t_address,t_uint256)"
      },
      {
        "astId": 2407,
        "contract": "contracts/Battle.sol:Battle",
        "label": "draws",
        "offset": 0,
        "slot": "4",
        "type": "t_mapping(t_address,t_uint256)"
      },
      {
        "astId": 2412,
        "contract": "contracts/Battle.sol:Battle",
        "label": "playoff",
        "offset": 0,
        "slot": "5",
        "type": "t_mapping(t_address,t_uint256)"
      }
    ],
    "types": {
      "t_address": {
        "encoding": "inplace",
        "label": "address",
        "numberOfBytes": "20"
      },
      "t_bytes32": {
        "encoding": "inplace",
        "label": "bytes32",
        "numberOfBytes": "32"
      },
      "t_mapping(t_address,t_bytes32)": {
        "encoding": "mapping",
        "key": "t_address",
        "label": "mapping(address => bytes32)",
        "numberOfBytes": "32",
        "value": "t_bytes32"
      },
      "t_mapping(t_address,t_uint256)": {
        "encoding": "mapping",
        "key": "t_address",
        "label": "mapping(address => uint256)",
        "numberOfBytes": "32",
        "value": "t_uint256"
      },
      "t_uint256": {
        "encoding": "inplace",
        "label": "uint256",
        "numberOfBytes": "32"
      }
    }
  }
}