{
  "address": "0x73F10d68d207501246c5Ac7ED3ec81fDe08C1d6e",
  "abi": [
    {
      "inputs": [
        {
          "internalType": "address",
          "name": "diceRollerContract",
          "type": "address"
        }
      ],
      "stateMutability": "nonpayable",
      "type": "constructor"
    },
    {
      "anonymous": false,
      "inputs": [
        {
          "indexed": true,
          "internalType": "address",
          "name": "account",
          "type": "address"
        },
        {
          "indexed": true,
          "internalType": "address",
          "name": "operator",
          "type": "address"
        },
        {
          "indexed": false,
          "internalType": "bool",
          "name": "approved",
          "type": "bool"
        }
      ],
      "name": "ApprovalForAll",
      "type": "event"
    },
    {
      "anonymous": false,
      "inputs": [
        {
          "indexed": true,
          "internalType": "uint256",
          "name": "tokenId",
          "type": "uint256"
        }
      ],
      "name": "NewItem",
      "type": "event"
    },
    {
      "anonymous": false,
      "inputs": [
        {
          "indexed": true,
          "internalType": "address",
          "name": "newPlayer",
          "type": "address"
        },
        {
          "indexed": true,
          "internalType": "uint256[3]",
          "name": "initialTokens",
          "type": "uint256[3]"
        }
      ],
      "name": "NewPlayer",
      "type": "event"
    },
    {
      "anonymous": false,
      "inputs": [
        {
          "indexed": true,
          "internalType": "bytes32",
          "name": "role",
          "type": "bytes32"
        },
        {
          "indexed": true,
          "internalType": "bytes32",
          "name": "previousAdminRole",
          "type": "bytes32"
        },
        {
          "indexed": true,
          "internalType": "bytes32",
          "name": "newAdminRole",
          "type": "bytes32"
        }
      ],
      "name": "RoleAdminChanged",
      "type": "event"
    },
    {
      "anonymous": false,
      "inputs": [
        {
          "indexed": true,
          "internalType": "bytes32",
          "name": "role",
          "type": "bytes32"
        },
        {
          "indexed": true,
          "internalType": "address",
          "name": "account",
          "type": "address"
        },
        {
          "indexed": true,
          "internalType": "address",
          "name": "sender",
          "type": "address"
        }
      ],
      "name": "RoleGranted",
      "type": "event"
    },
    {
      "anonymous": false,
      "inputs": [
        {
          "indexed": true,
          "internalType": "bytes32",
          "name": "role",
          "type": "bytes32"
        },
        {
          "indexed": true,
          "internalType": "address",
          "name": "account",
          "type": "address"
        },
        {
          "indexed": true,
          "internalType": "address",
          "name": "sender",
          "type": "address"
        }
      ],
      "name": "RoleRevoked",
      "type": "event"
    },
    {
      "anonymous": false,
      "inputs": [
        {
          "indexed": true,
          "internalType": "address",
          "name": "player",
          "type": "address"
        },
        {
          "indexed": true,
          "internalType": "uint256",
          "name": "tokenId",
          "type": "uint256"
        },
        {
          "indexed": true,
          "internalType": "uint8",
          "name": "tier",
          "type": "uint8"
        }
      ],
      "name": "TierUnlocked",
      "type": "event"
    },
    {
      "anonymous": false,
      "inputs": [
        {
          "indexed": true,
          "internalType": "address",
          "name": "operator",
          "type": "address"
        },
        {
          "indexed": true,
          "internalType": "address",
          "name": "from",
          "type": "address"
        },
        {
          "indexed": true,
          "internalType": "address",
          "name": "to",
          "type": "address"
        },
        {
          "indexed": false,
          "internalType": "uint256[]",
          "name": "ids",
          "type": "uint256[]"
        },
        {
          "indexed": false,
          "internalType": "uint256[]",
          "name": "values",
          "type": "uint256[]"
        }
      ],
      "name": "TransferBatch",
      "type": "event"
    },
    {
      "anonymous": false,
      "inputs": [
        {
          "indexed": true,
          "internalType": "address",
          "name": "operator",
          "type": "address"
        },
        {
          "indexed": true,
          "internalType": "address",
          "name": "from",
          "type": "address"
        },
        {
          "indexed": true,
          "internalType": "address",
          "name": "to",
          "type": "address"
        },
        {
          "indexed": false,
          "internalType": "uint256",
          "name": "id",
          "type": "uint256"
        },
        {
          "indexed": false,
          "internalType": "uint256",
          "name": "value",
          "type": "uint256"
        }
      ],
      "name": "TransferSingle",
      "type": "event"
    },
    {
      "anonymous": false,
      "inputs": [
        {
          "indexed": false,
          "internalType": "string",
          "name": "value",
          "type": "string"
        },
        {
          "indexed": true,
          "internalType": "uint256",
          "name": "id",
          "type": "uint256"
        }
      ],
      "name": "URI",
      "type": "event"
    },
    {
      "anonymous": false,
      "inputs": [
        {
          "indexed": true,
          "internalType": "address",
          "name": "player",
          "type": "address"
        }
      ],
      "name": "Winner",
      "type": "event"
    },
    {
      "inputs": [],
      "name": "ADMIN_ROLE",
      "outputs": [
        {
          "internalType": "bytes32",
          "name": "",
          "type": "bytes32"
        }
      ],
      "stateMutability": "view",
      "type": "function"
    },
    {
      "inputs": [],
      "name": "DEFAULT_ADMIN_ROLE",
      "outputs": [
        {
          "internalType": "bytes32",
          "name": "",
          "type": "bytes32"
        }
      ],
      "stateMutability": "view",
      "type": "function"
    },
    {
      "inputs": [],
      "name": "MINTER_APPRENTICE_ROLE",
      "outputs": [
        {
          "internalType": "bytes32",
          "name": "",
          "type": "bytes32"
        }
      ],
      "stateMutability": "view",
      "type": "function"
    },
    {
      "inputs": [],
      "name": "MINTER_ROLE",
      "outputs": [
        {
          "internalType": "bytes32",
          "name": "",
          "type": "bytes32"
        }
      ],
      "stateMutability": "view",
      "type": "function"
    },
    {
      "inputs": [],
      "name": "WIN_MANAGER_ROLE",
      "outputs": [
        {
          "internalType": "bytes32",
          "name": "",
          "type": "bytes32"
        }
      ],
      "stateMutability": "view",
      "type": "function"
    },
    {
      "inputs": [
        {
          "internalType": "uint8",
          "name": "tier",
          "type": "uint8"
        },
        {
          "internalType": "string",
          "name": "name",
          "type": "string"
        },
        {
          "internalType": "string",
          "name": "description",
          "type": "string"
        },
        {
          "internalType": "string",
          "name": "image",
          "type": "string"
        },
        {
          "internalType": "string",
          "name": "animation",
          "type": "string"
        },
        {
          "internalType": "uint256[]",
          "name": "beats",
          "type": "uint256[]"
        },
        {
          "internalType": "string",
          "name": "tokenURI",
          "type": "string"
        }
      ],
      "name": "addItem",
      "outputs": [],
      "stateMutability": "nonpayable",
      "type": "function"
    },
    {
      "inputs": [
        {
          "internalType": "address",
          "name": "account",
          "type": "address"
        },
        {
          "internalType": "uint256",
          "name": "id",
          "type": "uint256"
        }
      ],
      "name": "balanceOf",
      "outputs": [
        {
          "internalType": "uint256",
          "name": "",
          "type": "uint256"
        }
      ],
      "stateMutability": "view",
      "type": "function"
    },
    {
      "inputs": [
        {
          "internalType": "address[]",
          "name": "accounts",
          "type": "address[]"
        },
        {
          "internalType": "uint256[]",
          "name": "ids",
          "type": "uint256[]"
        }
      ],
      "name": "balanceOfBatch",
      "outputs": [
        {
          "internalType": "uint256[]",
          "name": "",
          "type": "uint256[]"
        }
      ],
      "stateMutability": "view",
      "type": "function"
    },
    {
      "inputs": [
        {
          "internalType": "address",
          "name": "_address",
          "type": "address"
        }
      ],
      "name": "getItems",
      "outputs": [
        {
          "components": [
            {
              "internalType": "uint8",
              "name": "tier",
              "type": "uint8"
            },
            {
              "internalType": "string",
              "name": "name",
              "type": "string"
            },
            {
              "internalType": "string",
              "name": "description",
              "type": "string"
            },
            {
              "internalType": "string",
              "name": "image",
              "type": "string"
            },
            {
              "internalType": "string",
              "name": "animationUrl",
              "type": "string"
            },
            {
              "internalType": "uint256[]",
              "name": "beats",
              "type": "uint256[]"
            }
          ],
          "internalType": "struct IGameItems.GameItemMetadata[]",
          "name": "",
          "type": "tuple[]"
        }
      ],
      "stateMutability": "view",
      "type": "function"
    },
    {
      "inputs": [],
      "name": "getNumberItems",
      "outputs": [
        {
          "internalType": "uint256",
          "name": "",
          "type": "uint256"
        }
      ],
      "stateMutability": "view",
      "type": "function"
    },
    {
      "inputs": [],
      "name": "getNumberPlayers",
      "outputs": [
        {
          "internalType": "uint256",
          "name": "",
          "type": "uint256"
        }
      ],
      "stateMutability": "view",
      "type": "function"
    },
    {
      "inputs": [
        {
          "internalType": "uint256",
          "name": "tokenId",
          "type": "uint256"
        }
      ],
      "name": "getOnChainToken",
      "outputs": [
        {
          "components": [
            {
              "internalType": "uint8",
              "name": "tier",
              "type": "uint8"
            },
            {
              "internalType": "string",
              "name": "name",
              "type": "string"
            },
            {
              "internalType": "string",
              "name": "description",
              "type": "string"
            },
            {
              "internalType": "string",
              "name": "image",
              "type": "string"
            },
            {
              "internalType": "string",
              "name": "animationUrl",
              "type": "string"
            },
            {
              "internalType": "uint256[]",
              "name": "beats",
              "type": "uint256[]"
            }
          ],
          "internalType": "struct IGameItems.GameItemMetadata",
          "name": "",
          "type": "tuple"
        }
      ],
      "stateMutability": "view",
      "type": "function"
    },
    {
      "inputs": [
        {
          "internalType": "bytes32",
          "name": "role",
          "type": "bytes32"
        }
      ],
      "name": "getRoleAdmin",
      "outputs": [
        {
          "internalType": "bytes32",
          "name": "",
          "type": "bytes32"
        }
      ],
      "stateMutability": "view",
      "type": "function"
    },
    {
      "inputs": [
        {
          "internalType": "bytes32",
          "name": "role",
          "type": "bytes32"
        },
        {
          "internalType": "uint256",
          "name": "index",
          "type": "uint256"
        }
      ],
      "name": "getRoleMember",
      "outputs": [
        {
          "internalType": "address",
          "name": "",
          "type": "address"
        }
      ],
      "stateMutability": "view",
      "type": "function"
    },
    {
      "inputs": [
        {
          "internalType": "bytes32",
          "name": "role",
          "type": "bytes32"
        }
      ],
      "name": "getRoleMemberCount",
      "outputs": [
        {
          "internalType": "uint256",
          "name": "",
          "type": "uint256"
        }
      ],
      "stateMutability": "view",
      "type": "function"
    },
    {
      "inputs": [],
      "name": "getUnlockDate",
      "outputs": [
        {
          "internalType": "uint256",
          "name": "",
          "type": "uint256"
        }
      ],
      "stateMutability": "view",
      "type": "function"
    },
    {
      "inputs": [
        {
          "internalType": "bytes32",
          "name": "role",
          "type": "bytes32"
        },
        {
          "internalType": "address",
          "name": "account",
          "type": "address"
        }
      ],
      "name": "grantRole",
      "outputs": [],
      "stateMutability": "nonpayable",
      "type": "function"
    },
    {
      "inputs": [
        {
          "internalType": "bytes32",
          "name": "role",
          "type": "bytes32"
        },
        {
          "internalType": "address",
          "name": "account",
          "type": "address"
        }
      ],
      "name": "hasRole",
      "outputs": [
        {
          "internalType": "bool",
          "name": "",
          "type": "bool"
        }
      ],
      "stateMutability": "view",
      "type": "function"
    },
    {
      "inputs": [
        {
          "internalType": "address payable",
          "name": "receiver",
          "type": "address"
        }
      ],
      "name": "initialMint",
      "outputs": [],
      "stateMutability": "payable",
      "type": "function"
    },
    {
      "inputs": [
        {
          "internalType": "address",
          "name": "account",
          "type": "address"
        },
        {
          "internalType": "address",
          "name": "operator",
          "type": "address"
        }
      ],
      "name": "isApprovedForAll",
      "outputs": [
        {
          "internalType": "bool",
          "name": "",
          "type": "bool"
        }
      ],
      "stateMutability": "view",
      "type": "function"
    },
    {
      "inputs": [],
      "name": "isLocked",
      "outputs": [
        {
          "internalType": "bool",
          "name": "",
          "type": "bool"
        }
      ],
      "stateMutability": "view",
      "type": "function"
    },
    {
      "inputs": [],
      "name": "playoff",
      "outputs": [
        {
          "internalType": "bool",
          "name": "",
          "type": "bool"
        }
      ],
      "stateMutability": "view",
      "type": "function"
    },
    {
      "inputs": [
        {
          "internalType": "bytes32",
          "name": "role",
          "type": "bytes32"
        },
        {
          "internalType": "address",
          "name": "account",
          "type": "address"
        }
      ],
      "name": "renounceRole",
      "outputs": [],
      "stateMutability": "nonpayable",
      "type": "function"
    },
    {
      "inputs": [
        {
          "internalType": "bytes32",
          "name": "role",
          "type": "bytes32"
        },
        {
          "internalType": "address",
          "name": "account",
          "type": "address"
        }
      ],
      "name": "revokeRole",
      "outputs": [],
      "stateMutability": "nonpayable",
      "type": "function"
    },
    {
      "inputs": [
        {
          "internalType": "address",
          "name": "from",
          "type": "address"
        },
        {
          "internalType": "address",
          "name": "to",
          "type": "address"
        },
        {
          "internalType": "uint256[]",
          "name": "ids",
          "type": "uint256[]"
        },
        {
          "internalType": "uint256[]",
          "name": "amounts",
          "type": "uint256[]"
        },
        {
          "internalType": "bytes",
          "name": "data",
          "type": "bytes"
        }
      ],
      "name": "safeBatchTransferFrom",
      "outputs": [],
      "stateMutability": "nonpayable",
      "type": "function"
    },
    {
      "inputs": [
        {
          "internalType": "address",
          "name": "from",
          "type": "address"
        },
        {
          "internalType": "address",
          "name": "to",
          "type": "address"
        },
        {
          "internalType": "uint256",
          "name": "id",
          "type": "uint256"
        },
        {
          "internalType": "uint256",
          "name": "amount",
          "type": "uint256"
        },
        {
          "internalType": "bytes",
          "name": "data",
          "type": "bytes"
        }
      ],
      "name": "safeTransferFrom",
      "outputs": [],
      "stateMutability": "nonpayable",
      "type": "function"
    },
    {
      "inputs": [
        {
          "internalType": "address",
          "name": "operator",
          "type": "address"
        },
        {
          "internalType": "bool",
          "name": "approved",
          "type": "bool"
        }
      ],
      "name": "setApprovalForAll",
      "outputs": [],
      "stateMutability": "nonpayable",
      "type": "function"
    },
    {
      "inputs": [
        {
          "internalType": "bytes4",
          "name": "interfaceId",
          "type": "bytes4"
        }
      ],
      "name": "supportsInterface",
      "outputs": [
        {
          "internalType": "bool",
          "name": "",
          "type": "bool"
        }
      ],
      "stateMutability": "view",
      "type": "function"
    },
    {
      "inputs": [
        {
          "internalType": "uint256",
          "name": "tokenId",
          "type": "uint256"
        }
      ],
      "name": "uri",
      "outputs": [
        {
          "internalType": "string",
          "name": "",
          "type": "string"
        }
      ],
      "stateMutability": "view",
      "type": "function"
    },
    {
      "inputs": [
        {
          "internalType": "address",
          "name": "receiever",
          "type": "address"
        },
        {
          "internalType": "uint256",
          "name": "tokenId",
          "type": "uint256"
        }
      ],
      "name": "winBattle",
      "outputs": [],
      "stateMutability": "nonpayable",
      "type": "function"
    }
  ],
  "transactionHash": "0x7472de736fff6a681804235c0315829fe693b94619b4d44b0fe54046d03ff050",
  "args": [
    "0x90C9eCc0D4a842BB97347D745977B156e83d939c"
  ],
  "numDeployments": 4,
  "solcInputHash": "513bc1d33bc4c22161a5e62ca918a0a9",
  "bytecode": "0x60a060405260405180602001604052806000815250600590805190602001906200002b929190620004f9565b506362d9f6cc600b553480156200004157600080fd5b506040516200615e3803806200615e833981810160405281019062000067919062000613565b6040518060400160405280600981526020017f47616d654974656d730000000000000000000000000000000000000000000000815250620000ae81620001c560201b60201c565b50620000c46000801b33620001e160201b60201c565b620000f67fa49807205ce4d355092ef5a8a18f56e8913cf4a201fbe287825b095693c2177533620001e160201b60201c565b620001287f9f2df0fed2c77648de5860a4cc508cd0818c85b8b8a1ab4ceeef8d981c8956a633620001e160201b60201c565b6200017a7f126ac3dfb0f83057bc2f965522f6bbd57f77c27a938e44ca37b53763355c61757f9f2df0fed2c77648de5860a4cc508cd0818c85b8b8a1ab4ceeef8d981c8956a6620001f760201b60201c565b8073ffffffffffffffffffffffffffffffffffffffff1660808173ffffffffffffffffffffffffffffffffffffffff16815250506000600781905550600060088190555050620006aa565b8060049080519060200190620001dd929190620004f9565b5050565b620001f382826200025a60201b60201c565b5050565b60006200020a83620002a260201b60201c565b905081600080858152602001908152602001600020600101819055508181847fbd79b86ffe0ab8e8776151514217cd7cacd52c909f66475c3af44e129f0b00ff60405160405180910390a4505050565b620002718282620002c160201b62001f261760201c565b6200029d8160016000858152602001908152602001600020620003b260201b620020061790919060201c565b505050565b6000806000838152602001908152602001600020600101549050919050565b620002d38282620003ea60201b60201c565b620003ae57600160008084815260200190815260200160002060000160008373ffffffffffffffffffffffffffffffffffffffff1673ffffffffffffffffffffffffffffffffffffffff16815260200190815260200160002060006101000a81548160ff021916908315150217905550620003536200045460201b60201c565b73ffffffffffffffffffffffffffffffffffffffff168173ffffffffffffffffffffffffffffffffffffffff16837f2f8788117e7eff1d82e926ec794901d17c78024a50270940304540a733656f0d60405160405180910390a45b5050565b6000620003e2836000018373ffffffffffffffffffffffffffffffffffffffff1660001b6200045c60201b60201c565b905092915050565b600080600084815260200190815260200160002060000160008373ffffffffffffffffffffffffffffffffffffffff1673ffffffffffffffffffffffffffffffffffffffff16815260200190815260200160002060009054906101000a900460ff16905092915050565b600033905090565b6000620004708383620004d660201b60201c565b620004cb578260000182908060018154018082558091505060019003906000526020600020016000909190919091505582600001805490508360010160008481526020019081526020016000208190555060019050620004d0565b600090505b92915050565b600080836001016000848152602001908152602001600020541415905092915050565b828054620005079062000674565b90600052602060002090601f0160209004810192826200052b576000855562000577565b82601f106200054657805160ff191683800117855562000577565b8280016001018555821562000577579182015b828111156200057657825182559160200191906001019062000559565b5b5090506200058691906200058a565b5090565b5b80821115620005a55760008160009055506001016200058b565b5090565b600080fd5b600073ffffffffffffffffffffffffffffffffffffffff82169050919050565b6000620005db82620005ae565b9050919050565b620005ed81620005ce565b8114620005f957600080fd5b50565b6000815190506200060d81620005e2565b92915050565b6000602082840312156200062c576200062b620005a9565b5b60006200063c84828501620005fc565b91505092915050565b7f4e487b7100000000000000000000000000000000000000000000000000000000600052602260045260246000fd5b600060028204905060018216806200068d57607f821691505b60208210811415620006a457620006a362000645565b5b50919050565b608051615a98620006c6600039600061255b0152615a986000f3fe6080604052600436106101cc5760003560e01c8063a22cb465116100f7578063cee0eb2d11610095578063e985e9c511610064578063e985e9c5146106c6578063f242432a14610703578063fe9e1b531461072c578063ff3c09e114610757576101cc565b8063cee0eb2d1461061e578063d539139314610649578063d547741f14610674578063d812649d1461069d576101cc565b8063b2c79c37116100d1578063b2c79c3714610571578063c268f9ba1461059a578063c594c916146105b6578063ca15c873146105e1576101cc565b8063a22cb465146104f2578063a4e2d6341461051b578063ada015da14610546576101cc565b80634d7366551161016f5780638119109e1161013e5780638119109e146104225780639010d07c1461044d57806391d148541461048a578063a217fddf146104c7576101cc565b80634d736655146103405780634e1273f41461037d57806375b238fc146103ba5780637856ac40146103e5576101cc565b8063248a9ca3116101ab578063248a9ca3146102885780632eb2c2d6146102c55780632f2ff15d146102ee57806336568abe14610317576101cc565b8062fdd58e146101d157806301ffc9a71461020e5780630e89341c1461024b575b600080fd5b3480156101dd57600080fd5b506101f860048036038101906101f39190613c46565b610782565b6040516102059190613c95565b60405180910390f35b34801561021a57600080fd5b5061023560048036038101906102309190613d08565b61084c565b6040516102429190613d50565b60405180910390f35b34801561025757600080fd5b50610272600480360381019061026d9190613d6b565b61085e565b60405161027f9190613e31565b60405180910390f35b34801561029457600080fd5b506102af60048036038101906102aa9190613e89565b610943565b6040516102bc9190613ec5565b60405180910390f35b3480156102d157600080fd5b506102ec60048036038101906102e791906140dd565b610962565b005b3480156102fa57600080fd5b50610315600480360381019061031091906141ac565b610a03565b005b34801561032357600080fd5b5061033e600480360381019061033991906141ac565b610a24565b005b34801561034c57600080fd5b50610367600480360381019061036291906141ec565b610aa7565b60405161037491906144a4565b60405180910390f35b34801561038957600080fd5b506103a4600480360381019061039f9190614589565b610e37565b6040516103b19190614670565b60405180910390f35b3480156103c657600080fd5b506103cf610f50565b6040516103dc9190613ec5565b60405180910390f35b3480156103f157600080fd5b5061040c60048036038101906104079190613d6b565b610f74565b6040516104199190614737565b60405180910390f35b34801561042e57600080fd5b5061043761125e565b6040516104449190613d50565b60405180910390f35b34801561045957600080fd5b50610474600480360381019061046f9190614759565b611318565b60405161048191906147a8565b60405180910390f35b34801561049657600080fd5b506104b160048036038101906104ac91906141ac565b611347565b6040516104be9190613d50565b60405180910390f35b3480156104d357600080fd5b506104dc6113b1565b6040516104e99190613ec5565b60405180910390f35b3480156104fe57600080fd5b50610519600480360381019061051491906147ef565b6113b8565b005b34801561052757600080fd5b506105306113ce565b60405161053d9190613d50565b60405180910390f35b34801561055257600080fd5b5061055b6113db565b6040516105689190613c95565b60405180910390f35b34801561057d57600080fd5b5061059860048036038101906105939190613c46565b6113e5565b005b6105b460048036038101906105af919061486d565b6116a0565b005b3480156105c257600080fd5b506105cb611b2c565b6040516105d89190613c95565b60405180910390f35b3480156105ed57600080fd5b5061060860048036038101906106039190613e89565b611b36565b6040516106159190613c95565b60405180910390f35b34801561062a57600080fd5b50610633611b5a565b6040516106409190613ec5565b60405180910390f35b34801561065557600080fd5b5061065e611b7e565b60405161066b9190613ec5565b60405180910390f35b34801561068057600080fd5b5061069b600480360381019061069691906141ac565b611ba2565b005b3480156106a957600080fd5b506106c460048036038101906106bf9190614967565b611bc3565b005b3480156106d257600080fd5b506106ed60048036038101906106e89190614ab1565b611dc3565b6040516106fa9190613d50565b60405180910390f35b34801561070f57600080fd5b5061072a60048036038101906107259190614af1565b611e57565b005b34801561073857600080fd5b50610741611ef8565b60405161074e9190613c95565b60405180910390f35b34801561076357600080fd5b5061076c611f02565b6040516107799190613ec5565b60405180910390f35b60008073ffffffffffffffffffffffffffffffffffffffff168373ffffffffffffffffffffffffffffffffffffffff1614156107f3576040517f08c379a00000000000000000000000000000000000000000000000000000000081526004016107ea90614bfa565b60405180910390fd5b6002600083815260200190815260200160002060008473ffffffffffffffffffffffffffffffffffffffff1673ffffffffffffffffffffffffffffffffffffffff16815260200190815260200160002054905092915050565b600061085782612036565b9050919050565b6060600060066000848152602001908152602001600020805461088090614c49565b80601f01602080910402602001604051908101604052809291908181526020018280546108ac90614c49565b80156108f95780601f106108ce576101008083540402835291602001916108f9565b820191906000526020600020905b8154815290600101906020018083116108dc57829003601f168201915b5050505050905060008151116109175761091283612118565b61093b565b60058160405160200161092b929190614d4b565b6040516020818303038152906040525b915050919050565b6000806000838152602001908152602001600020600101549050919050565b61096a6121ac565b73ffffffffffffffffffffffffffffffffffffffff168573ffffffffffffffffffffffffffffffffffffffff1614806109b057506109af856109aa6121ac565b611dc3565b5b6109ef576040517f08c379a00000000000000000000000000000000000000000000000000000000081526004016109e690614de1565b60405180910390fd5b6109fc85858585856121b4565b5050505050565b610a0c82610943565b610a15816124d9565b610a1f83836124ed565b505050565b610a2c6121ac565b73ffffffffffffffffffffffffffffffffffffffff168173ffffffffffffffffffffffffffffffffffffffff1614610a99576040517f08c379a0000000000000000000000000000000000000000000000000000000008152600401610a9090614e73565b60405180910390fd5b610aa38282612521565b5050565b6060600060075467ffffffffffffffff811115610ac757610ac6613ee5565b5b604051908082528060200260200182016040528015610b0057816020015b610aed613a75565b815260200190600190039081610ae55790505b50905060005b8151811015610e2d576001610b1b8583610782565b10610e1a57600960008281526020019081526020016000206040518060c00160405290816000820160009054906101000a900460ff1660ff1660ff168152602001600182018054610b6b90614c49565b80601f0160208091040260200160405190810160405280929190818152602001828054610b9790614c49565b8015610be45780601f10610bb957610100808354040283529160200191610be4565b820191906000526020600020905b815481529060010190602001808311610bc757829003601f168201915b50505050508152602001600282018054610bfd90614c49565b80601f0160208091040260200160405190810160405280929190818152602001828054610c2990614c49565b8015610c765780601f10610c4b57610100808354040283529160200191610c76565b820191906000526020600020905b815481529060010190602001808311610c5957829003601f168201915b50505050508152602001600382018054610c8f90614c49565b80601f0160208091040260200160405190810160405280929190818152602001828054610cbb90614c49565b8015610d085780601f10610cdd57610100808354040283529160200191610d08565b820191906000526020600020905b815481529060010190602001808311610ceb57829003601f168201915b50505050508152602001600482018054610d2190614c49565b80601f0160208091040260200160405190810160405280929190818152602001828054610d4d90614c49565b8015610d9a5780601f10610d6f57610100808354040283529160200191610d9a565b820191906000526020600020905b815481529060010190602001808311610d7d57829003601f168201915b5050505050815260200160058201805480602002602001604051908101604052809291908181526020018280548015610df257602002820191906000526020600020905b815481526020019060010190808311610dde575b505050505081525050828281518110610e0e57610e0d614e93565b5b60200260200101819052505b8080610e2590614ef1565b915050610b06565b5080915050919050565b60608151835114610e7d576040517f08c379a0000000000000000000000000000000000000000000000000000000008152600401610e7490614fac565b60405180910390fd5b6000835167ffffffffffffffff811115610e9a57610e99613ee5565b5b604051908082528060200260200182016040528015610ec85781602001602082028036833780820191505090505b50905060005b8451811015610f4557610f15858281518110610eed57610eec614e93565b5b6020026020010151858381518110610f0857610f07614e93565b5b6020026020010151610782565b828281518110610f2857610f27614e93565b5b60200260200101818152505080610f3e90614ef1565b9050610ece565b508091505092915050565b7fa49807205ce4d355092ef5a8a18f56e8913cf4a201fbe287825b095693c2177581565b610f7c613a75565b600960008381526020019081526020016000206040518060c00160405290816000820160009054906101000a900460ff1660ff1660ff168152602001600182018054610fc790614c49565b80601f0160208091040260200160405190810160405280929190818152602001828054610ff390614c49565b80156110405780601f1061101557610100808354040283529160200191611040565b820191906000526020600020905b81548152906001019060200180831161102357829003601f168201915b5050505050815260200160028201805461105990614c49565b80601f016020809104026020016040519081016040528092919081815260200182805461108590614c49565b80156110d25780601f106110a7576101008083540402835291602001916110d2565b820191906000526020600020905b8154815290600101906020018083116110b557829003601f168201915b505050505081526020016003820180546110eb90614c49565b80601f016020809104026020016040519081016040528092919081815260200182805461111790614c49565b80156111645780601f1061113957610100808354040283529160200191611164565b820191906000526020600020905b81548152906001019060200180831161114757829003601f168201915b5050505050815260200160048201805461117d90614c49565b80601f01602080910402602001604051908101604052809291908181526020018280546111a990614c49565b80156111f65780601f106111cb576101008083540402835291602001916111f6565b820191906000526020600020905b8154815290600101906020018083116111d957829003601f168201915b505050505081526020016005820180548060200260200160405190810160405280929190818152602001828054801561124e57602002820191906000526020600020905b81548152602001906001019080831161123a575b5050505050815250509050919050565b600061128a7f581d7f64a8a641e01714c2dbb65d39f75e5db27e77fac6575785e5201e1b1dec33611347565b6040518060400160405280600d81526020017f4163636573732044656e6965640000000000000000000000000000000000000081525090611301576040517f08c379a00000000000000000000000000000000000000000000000000000000081526004016112f89190613e31565b60405180910390fd5b506101f461131260006103e8612555565b10905090565b600061133f826001600086815260200190815260200160002061261b90919063ffffffff16565b905092915050565b600080600084815260200190815260200160002060000160008373ffffffffffffffffffffffffffffffffffffffff1673ffffffffffffffffffffffffffffffffffffffff16815260200190815260200160002060009054906101000a900460ff16905092915050565b6000801b81565b6113ca6113c36121ac565b8383612635565b5050565b6000600b54421115905090565b6000600854905090565b61140f7f581d7f64a8a641e01714c2dbb65d39f75e5db27e77fac6575785e5201e1b1dec33611347565b6040518060400160405280600d81526020017f4163636573732044656e6965640000000000000000000000000000000000000081525090611486576040517f08c379a000000000000000000000000000000000000000000000000000000000815260040161147d9190613e31565b60405180910390fd5b5060006009600083815260200190815260200160002060000160009054906101000a900460ff16905060006114be848360ff166127a2565b90506114ca8484612821565b801580156114dc575060028260ff1614155b15611538576114eb8483612841565b8160ff16838573ffffffffffffffffffffffffffffffffffffffff167ffa36168c733b4c601b17553edfb42b696a96fc35572f0eca85e7d3e24cc9560160405160405180910390a4611616565b60008260ff16148061154d575060018260ff16145b80156115625750611561848360ff166127a2565b5b8015611581575061157f8460018461157a9190614fcc565b6128b1565b155b1561161557600061159d6001846115989190614fcc565b61291c565b90506115a98582612821565b6115bf856001856115ba9190614fcc565b612841565b6001836115cc9190614fcc565b60ff16818673ffffffffffffffffffffffffffffffffffffffff167ffa36168c733b4c601b17553edfb42b696a96fc35572f0eca85e7d3e24cc9560160405160405180910390a4505b5b60028260ff16148015611631575061162f8460036128b1565b155b1561169a57600061164185612966565b9050801561169857611654856003612841565b8473ffffffffffffffffffffffffffffffffffffffff167f745c90b656b4aafe296c8ca35aeacfe56cb96c90e1d320e5da643fff1051b6c060405160405180910390a25b505b50505050565b6116ca7f9f2df0fed2c77648de5860a4cc508cd0818c85b8b8a1ab4ceeef8d981c8956a633611347565b806116fb57506116fa7f126ac3dfb0f83057bc2f965522f6bbd57f77c27a938e44ca37b53763355c617533611347565b5b6040518060400160405280600d81526020017f4163636573732044656e6965640000000000000000000000000000000000000081525090611772576040517f08c379a00000000000000000000000000000000000000000000000000000000081526004016117699190613e31565b60405180910390fd5b5061177c816129b1565b6040518060400160405280600f81526020017f416c726561647920506c6179696e670000000000000000000000000000000000815250906117f3576040517f08c379a00000000000000000000000000000000000000000000000000000000081526004016117ea9190613e31565b60405180910390fd5b50600060405180606001604052806000815260200160018152602001600281525090506000604051806060016040528060018152602001600281526020016003815250905060006040518060600160405280600281526020016003815260200160048152509050600060405180606001604052806000815260200160028152602001600481525090506000604051806060016040528060018152602001600381526020016004815250905060006118ac60006004612555565b90506000604051806060016040528060008152602001600081526020016000815250905060008214156119225760005b600381101561191c57611906898983600381106118fc576118fb614e93565b5b6020020151612821565b879150808061191490614ef1565b9150506118dc565b50611a6a565b60018214156119745760005b600381101561196e576119588988836003811061194e5761194d614e93565b5b6020020151612821565b869150808061196690614ef1565b91505061192e565b50611a69565b60028214156119c65760005b60038110156119c0576119aa898783600381106119a05761199f614e93565b5b6020020151612821565b85915080806119b890614ef1565b915050611980565b50611a68565b6003821415611a185760005b6003811015611a12576119fc898683600381106119f2576119f1614e93565b5b6020020151612821565b8491508080611a0a90614ef1565b9150506119d2565b50611a67565b6004821415611a665760005b6003811015611a6457611a4e89858360038110611a4457611a43614e93565b5b6020020151612821565b8391508080611a5c90614ef1565b915050611a24565b505b5b5b5b5b60086000815480929190611a7d90614ef1565b91905055508773ffffffffffffffffffffffffffffffffffffffff166108fc349081150290604051600060405180830381858888f19350505050158015611ac8573d6000803e3d6000fd5b5080604051611ad791906150ae565b60405180910390208873ffffffffffffffffffffffffffffffffffffffff167f03c6cf41c8b7617d28bfe0b9ff6437547ae24b192cae60ec45f63977ba9ca56760405160405180910390a35050505050505050565b6000600b54905090565b6000611b53600160008481526020019081526020016000206129fd565b9050919050565b7f126ac3dfb0f83057bc2f965522f6bbd57f77c27a938e44ca37b53763355c617581565b7f9f2df0fed2c77648de5860a4cc508cd0818c85b8b8a1ab4ceeef8d981c8956a681565b611bab82610943565b611bb4816124d9565b611bbe8383612521565b505050565b611bed7fa49807205ce4d355092ef5a8a18f56e8913cf4a201fbe287825b095693c2177533611347565b6040518060400160405280600d81526020017f4163636573732044656e6965640000000000000000000000000000000000000081525090611c64576040517f08c379a0000000000000000000000000000000000000000000000000000000008152600401611c5b9190613e31565b60405180910390fd5b506000600754905060006040518060c001604052808a60ff168152602001898152602001888152602001878152602001868152602001858152509050806009600084815260200190815260200160002060008201518160000160006101000a81548160ff021916908360ff1602179055506020820151816001019080519060200190611cf1929190613aae565b506040820151816002019080519060200190611d0e929190613aae565b506060820151816003019080519060200190611d2b929190613aae565b506080820151816004019080519060200190611d48929190613aae565b5060a0820151816005019080519060200190611d65929190613b34565b50905050611d738284612a12565b60076000815480929190611d8690614ef1565b9190505550817f50bfe36855967d446b8ea65825360cacc53d0ec60543567ebfad26a51a2cfc4660405160405180910390a2505050505050505050565b6000600360008473ffffffffffffffffffffffffffffffffffffffff1673ffffffffffffffffffffffffffffffffffffffff16815260200190815260200160002060008373ffffffffffffffffffffffffffffffffffffffff1673ffffffffffffffffffffffffffffffffffffffff16815260200190815260200160002060009054906101000a900460ff16905092915050565b611e5f6121ac565b73ffffffffffffffffffffffffffffffffffffffff168573ffffffffffffffffffffffffffffffffffffffff161480611ea55750611ea485611e9f6121ac565b611dc3565b5b611ee4576040517f08c379a0000000000000000000000000000000000000000000000000000000008152600401611edb90614de1565b60405180910390fd5b611ef18585858585612a7e565b5050505050565b6000600754905090565b7f581d7f64a8a641e01714c2dbb65d39f75e5db27e77fac6575785e5201e1b1dec81565b611f308282611347565b61200257600160008084815260200190815260200160002060000160008373ffffffffffffffffffffffffffffffffffffffff1673ffffffffffffffffffffffffffffffffffffffff16815260200190815260200160002060006101000a81548160ff021916908315150217905550611fa76121ac565b73ffffffffffffffffffffffffffffffffffffffff168173ffffffffffffffffffffffffffffffffffffffff16837f2f8788117e7eff1d82e926ec794901d17c78024a50270940304540a733656f0d60405160405180910390a45b5050565b600061202e836000018373ffffffffffffffffffffffffffffffffffffffff1660001b612d1d565b905092915050565b60007fd9b67a26000000000000000000000000000000000000000000000000000000007bffffffffffffffffffffffffffffffffffffffffffffffffffffffff1916827bffffffffffffffffffffffffffffffffffffffffffffffffffffffff1916148061210157507f0e89341c000000000000000000000000000000000000000000000000000000007bffffffffffffffffffffffffffffffffffffffffffffffffffffffff1916827bffffffffffffffffffffffffffffffffffffffffffffffffffffffff1916145b80612111575061211082612d8d565b5b9050919050565b60606004805461212790614c49565b80601f016020809104026020016040519081016040528092919081815260200182805461215390614c49565b80156121a05780601f10612175576101008083540402835291602001916121a0565b820191906000526020600020905b81548152906001019060200180831161218357829003601f168201915b50505050509050919050565b600033905090565b81518351146121f8576040517f08c379a00000000000000000000000000000000000000000000000000000000081526004016121ef9061513b565b60405180910390fd5b600073ffffffffffffffffffffffffffffffffffffffff168473ffffffffffffffffffffffffffffffffffffffff161415612268576040517f08c379a000000000000000000000000000000000000000000000000000000000815260040161225f906151cd565b60405180910390fd5b60006122726121ac565b9050612282818787878787612e07565b60005b84518110156124365760008582815181106122a3576122a2614e93565b5b6020026020010151905060008583815181106122c2576122c1614e93565b5b6020026020010151905060006002600084815260200190815260200160002060008b73ffffffffffffffffffffffffffffffffffffffff1673ffffffffffffffffffffffffffffffffffffffff16815260200190815260200160002054905081811015612364576040517f08c379a000000000000000000000000000000000000000000000000000000000815260040161235b9061525f565b60405180910390fd5b8181036002600085815260200190815260200160002060008c73ffffffffffffffffffffffffffffffffffffffff1673ffffffffffffffffffffffffffffffffffffffff16815260200190815260200160002081905550816002600085815260200190815260200160002060008b73ffffffffffffffffffffffffffffffffffffffff1673ffffffffffffffffffffffffffffffffffffffff168152602001908152602001600020600082825461241b919061527f565b925050819055505050508061242f90614ef1565b9050612285565b508473ffffffffffffffffffffffffffffffffffffffff168673ffffffffffffffffffffffffffffffffffffffff168273ffffffffffffffffffffffffffffffffffffffff167f4a39dc06d4c0dbc64b70af90fd698a233a518aa5d07e595d983b8c0526c8f7fb87876040516124ad9291906152d5565b60405180910390a46124c3818787878787612e0f565b6124d1818787878787612e17565b505050505050565b6124ea816124e56121ac565b612ffe565b50565b6124f78282611f26565b61251c816001600085815260200190815260200160002061200690919063ffffffff16565b505050565b61252b828261309b565b612550816001600085815260200190815260200160002061317c90919063ffffffff16565b505050565b600080827f000000000000000000000000000000000000000000000000000000000000000073ffffffffffffffffffffffffffffffffffffffff1663aacc5a176040518163ffffffff1660e01b815260040160206040518083038186803b1580156125bf57600080fd5b505afa1580156125d3573d6000803e3d6000fd5b505050506040513d601f19601f820116820180604052508101906125f79190615321565b60001c612604919061537d565b8461260f919061527f565b90508091505092915050565b600061262a83600001836131ac565b60001c905092915050565b8173ffffffffffffffffffffffffffffffffffffffff168373ffffffffffffffffffffffffffffffffffffffff1614156126a4576040517f08c379a000000000000000000000000000000000000000000000000000000000815260040161269b90615420565b60405180910390fd5b80600360008573ffffffffffffffffffffffffffffffffffffffff1673ffffffffffffffffffffffffffffffffffffffff16815260200190815260200160002060008473ffffffffffffffffffffffffffffffffffffffff1673ffffffffffffffffffffffffffffffffffffffff16815260200190815260200160002060006101000a81548160ff0219169083151502179055508173ffffffffffffffffffffffffffffffffffffffff168373ffffffffffffffffffffffffffffffffffffffff167f17307eab39ab6107e8899845ad3d59bd9653f200f220920489ca2b5937696c31836040516127959190613d50565b60405180910390a3505050565b600080600083146127b45760056127b7565b60005b60ff16905060008084146127cc5760096127cf565b60055b60ff16905060008290505b818110156128135760006127ee8783610782565b1415612800576000935050505061281b565b808061280b90614ef1565b9150506127da565b506001925050505b92915050565b61283d82826001604051806020016040528060008152506131d7565b5050565b6001600a60008360ff16815260200190815260200160002060008473ffffffffffffffffffffffffffffffffffffffff1673ffffffffffffffffffffffffffffffffffffffff16815260200190815260200160002060006101000a81548160ff0219169083151502179055505050565b6000600a60008360ff16815260200190815260200160002060008473ffffffffffffffffffffffffffffffffffffffff1673ffffffffffffffffffffffffffffffffffffffff16815260200190815260200160002060009054906101000a900460ff16905092915050565b600060018260ff16141561293d5761293660056003612555565b9050612961565b60028260ff16141561295c5761295560096002612555565b9050612961565b600090505b919050565b600080600990505b600c8110156129a65760006129838483610782565b14156129935760009150506129ac565b808061299e90614ef1565b91505061296e565b50600190505b919050565b600080600090505b6007548110156129f25760006129cf8483610782565b11156129df5760009150506129f8565b80806129ea90614ef1565b9150506129b9565b50600190505b919050565b6000612a0b82600001613389565b9050919050565b80600660008481526020019081526020016000209080519060200190612a39929190613aae565b50817f6bb7ff708619ba0610cba295a58592e0451dee2622938c8755667688daf3529b612a658461085e565b604051612a729190613e31565b60405180910390a25050565b600073ffffffffffffffffffffffffffffffffffffffff168473ffffffffffffffffffffffffffffffffffffffff161415612aee576040517f08c379a0000000000000000000000000000000000000000000000000000000008152600401612ae5906151cd565b60405180910390fd5b6000612af86121ac565b90506000612b058561339a565b90506000612b128561339a565b9050612b22838989858589612e07565b60006002600088815260200190815260200160002060008a73ffffffffffffffffffffffffffffffffffffffff1673ffffffffffffffffffffffffffffffffffffffff16815260200190815260200160002054905085811015612bba576040517f08c379a0000000000000000000000000000000000000000000000000000000008152600401612bb19061525f565b60405180910390fd5b8581036002600089815260200190815260200160002060008b73ffffffffffffffffffffffffffffffffffffffff1673ffffffffffffffffffffffffffffffffffffffff16815260200190815260200160002081905550856002600089815260200190815260200160002060008a73ffffffffffffffffffffffffffffffffffffffff1673ffffffffffffffffffffffffffffffffffffffff1681526020019081526020016000206000828254612c71919061527f565b925050819055508773ffffffffffffffffffffffffffffffffffffffff168973ffffffffffffffffffffffffffffffffffffffff168573ffffffffffffffffffffffffffffffffffffffff167fc3d58168c5ae7397731d063d5bbf3d657854427343f4c083240f7aacaa2d0f628a8a604051612cee929190615440565b60405180910390a4612d04848a8a86868a612e0f565b612d12848a8a8a8a8a613414565b505050505050505050565b6000612d2983836135fb565b612d82578260000182908060018154018082558091505060019003906000526020600020016000909190919091505582600001805490508360010160008481526020019081526020016000208190555060019050612d87565b600090505b92915050565b60007f5a05180f000000000000000000000000000000000000000000000000000000007bffffffffffffffffffffffffffffffffffffffffffffffffffffffff1916827bffffffffffffffffffffffffffffffffffffffffffffffffffffffff19161480612e005750612dff8261361e565b5b9050919050565b505050505050565b505050505050565b612e368473ffffffffffffffffffffffffffffffffffffffff16613698565b15612ff6578373ffffffffffffffffffffffffffffffffffffffff1663bc197c8187878686866040518663ffffffff1660e01b8152600401612e7c9594939291906154be565b602060405180830381600087803b158015612e9657600080fd5b505af1925050508015612ec757506040513d601f19601f82011682018060405250810190612ec4919061553b565b60015b612f6d57612ed3615575565b806308c379a01415612f305750612ee8615597565b80612ef35750612f32565b806040517f08c379a0000000000000000000000000000000000000000000000000000000008152600401612f279190613e31565b60405180910390fd5b505b6040517f08c379a0000000000000000000000000000000000000000000000000000000008152600401612f649061569f565b60405180910390fd5b63bc197c8160e01b7bffffffffffffffffffffffffffffffffffffffffffffffffffffffff1916817bffffffffffffffffffffffffffffffffffffffffffffffffffffffff191614612ff4576040517f08c379a0000000000000000000000000000000000000000000000000000000008152600401612feb90615731565b60405180910390fd5b505b505050505050565b6130088282611347565b6130975761302d8173ffffffffffffffffffffffffffffffffffffffff1660146136bb565b61303b8360001c60206136bb565b60405160200161304c9291906157e9565b6040516020818303038152906040526040517f08c379a000000000000000000000000000000000000000000000000000000000815260040161308e9190613e31565b60405180910390fd5b5050565b6130a58282611347565b1561317857600080600084815260200190815260200160002060000160008373ffffffffffffffffffffffffffffffffffffffff1673ffffffffffffffffffffffffffffffffffffffff16815260200190815260200160002060006101000a81548160ff02191690831515021790555061311d6121ac565b73ffffffffffffffffffffffffffffffffffffffff168173ffffffffffffffffffffffffffffffffffffffff16837ff6391f5c32d9c69d2a47ea670b442974b53935d1edc7fd64eb21e047a839171b60405160405180910390a45b5050565b60006131a4836000018373ffffffffffffffffffffffffffffffffffffffff1660001b6138f7565b905092915050565b60008260000182815481106131c4576131c3614e93565b5b9060005260206000200154905092915050565b600073ffffffffffffffffffffffffffffffffffffffff168473ffffffffffffffffffffffffffffffffffffffff161415613247576040517f08c379a000000000000000000000000000000000000000000000000000000000815260040161323e90615895565b60405180910390fd5b60006132516121ac565b9050600061325e8561339a565b9050600061326b8561339a565b905061327c83600089858589612e07565b846002600088815260200190815260200160002060008973ffffffffffffffffffffffffffffffffffffffff1673ffffffffffffffffffffffffffffffffffffffff16815260200190815260200160002060008282546132dc919061527f565b925050819055508673ffffffffffffffffffffffffffffffffffffffff16600073ffffffffffffffffffffffffffffffffffffffff168473ffffffffffffffffffffffffffffffffffffffff167fc3d58168c5ae7397731d063d5bbf3d657854427343f4c083240f7aacaa2d0f62898960405161335a929190615440565b60405180910390a461337183600089858589612e0f565b61338083600089898989613414565b50505050505050565b600081600001805490509050919050565b60606000600167ffffffffffffffff8111156133b9576133b8613ee5565b5b6040519080825280602002602001820160405280156133e75781602001602082028036833780820191505090505b50905082816000815181106133ff576133fe614e93565b5b60200260200101818152505080915050919050565b6134338473ffffffffffffffffffffffffffffffffffffffff16613698565b156135f3578373ffffffffffffffffffffffffffffffffffffffff1663f23a6e6187878686866040518663ffffffff1660e01b81526004016134799594939291906158b5565b602060405180830381600087803b15801561349357600080fd5b505af19250505080156134c457506040513d601f19601f820116820180604052508101906134c1919061553b565b60015b61356a576134d0615575565b806308c379a0141561352d57506134e5615597565b806134f0575061352f565b806040517f08c379a00000000000000000000000000000000000000000000000000000000081526004016135249190613e31565b60405180910390fd5b505b6040517f08c379a00000000000000000000000000000000000000000000000000000000081526004016135619061569f565b60405180910390fd5b63f23a6e6160e01b7bffffffffffffffffffffffffffffffffffffffffffffffffffffffff1916817bffffffffffffffffffffffffffffffffffffffffffffffffffffffff1916146135f1576040517f08c379a00000000000000000000000000000000000000000000000000000000081526004016135e890615731565b60405180910390fd5b505b505050505050565b600080836001016000848152602001908152602001600020541415905092915050565b60007f7965db0b000000000000000000000000000000000000000000000000000000007bffffffffffffffffffffffffffffffffffffffffffffffffffffffff1916827bffffffffffffffffffffffffffffffffffffffffffffffffffffffff19161480613691575061369082613a0b565b5b9050919050565b6000808273ffffffffffffffffffffffffffffffffffffffff163b119050919050565b6060600060028360026136ce919061590f565b6136d8919061527f565b67ffffffffffffffff8111156136f1576136f0613ee5565b5b6040519080825280601f01601f1916602001820160405280156137235781602001600182028036833780820191505090505b5090507f30000000000000000000000000000000000000000000000000000000000000008160008151811061375b5761375a614e93565b5b60200101907effffffffffffffffffffffffffffffffffffffffffffffffffffffffffffff1916908160001a9053507f7800000000000000000000000000000000000000000000000000000000000000816001815181106137bf576137be614e93565b5b60200101907effffffffffffffffffffffffffffffffffffffffffffffffffffffffffffff1916908160001a905350600060018460026137ff919061590f565b613809919061527f565b90505b60018111156138a9577f3031323334353637383961626364656600000000000000000000000000000000600f86166010811061384b5761384a614e93565b5b1a60f81b82828151811061386257613861614e93565b5b60200101907effffffffffffffffffffffffffffffffffffffffffffffffffffffffffffff1916908160001a905350600485901c9450806138a290615969565b905061380c565b50600084146138ed576040517f08c379a00000000000000000000000000000000000000000000000000000000081526004016138e4906159df565b60405180910390fd5b8091505092915050565b600080836001016000848152602001908152602001600020549050600081146139ff57600060018261392991906159ff565b905060006001866000018054905061394191906159ff565b90508181146139b057600086600001828154811061396257613961614e93565b5b906000526020600020015490508087600001848154811061398657613985614e93565b5b90600052602060002001819055508387600101600083815260200190815260200160002081905550505b856000018054806139c4576139c3615a33565b5b600190038181906000526020600020016000905590558560010160008681526020019081526020016000206000905560019350505050613a05565b60009150505b92915050565b60007f01ffc9a7000000000000000000000000000000000000000000000000000000007bffffffffffffffffffffffffffffffffffffffffffffffffffffffff1916827bffffffffffffffffffffffffffffffffffffffffffffffffffffffff1916149050919050565b6040518060c00160405280600060ff16815260200160608152602001606081526020016060815260200160608152602001606081525090565b828054613aba90614c49565b90600052602060002090601f016020900481019282613adc5760008555613b23565b82601f10613af557805160ff1916838001178555613b23565b82800160010185558215613b23579182015b82811115613b22578251825591602001919060010190613b07565b5b509050613b309190613b81565b5090565b828054828255906000526020600020908101928215613b70579160200282015b82811115613b6f578251825591602001919060010190613b54565b5b509050613b7d9190613b81565b5090565b5b80821115613b9a576000816000905550600101613b82565b5090565b6000604051905090565b600080fd5b600080fd5b600073ffffffffffffffffffffffffffffffffffffffff82169050919050565b6000613bdd82613bb2565b9050919050565b613bed81613bd2565b8114613bf857600080fd5b50565b600081359050613c0a81613be4565b92915050565b6000819050919050565b613c2381613c10565b8114613c2e57600080fd5b50565b600081359050613c4081613c1a565b92915050565b60008060408385031215613c5d57613c5c613ba8565b5b6000613c6b85828601613bfb565b9250506020613c7c85828601613c31565b9150509250929050565b613c8f81613c10565b82525050565b6000602082019050613caa6000830184613c86565b92915050565b60007fffffffff0000000000000000000000000000000000000000000000000000000082169050919050565b613ce581613cb0565b8114613cf057600080fd5b50565b600081359050613d0281613cdc565b92915050565b600060208284031215613d1e57613d1d613ba8565b5b6000613d2c84828501613cf3565b91505092915050565b60008115159050919050565b613d4a81613d35565b82525050565b6000602082019050613d656000830184613d41565b92915050565b600060208284031215613d8157613d80613ba8565b5b6000613d8f84828501613c31565b91505092915050565b600081519050919050565b600082825260208201905092915050565b60005b83811015613dd2578082015181840152602081019050613db7565b83811115613de1576000848401525b50505050565b6000601f19601f8301169050919050565b6000613e0382613d98565b613e0d8185613da3565b9350613e1d818560208601613db4565b613e2681613de7565b840191505092915050565b60006020820190508181036000830152613e4b8184613df8565b905092915050565b6000819050919050565b613e6681613e53565b8114613e7157600080fd5b50565b600081359050613e8381613e5d565b92915050565b600060208284031215613e9f57613e9e613ba8565b5b6000613ead84828501613e74565b91505092915050565b613ebf81613e53565b82525050565b6000602082019050613eda6000830184613eb6565b92915050565b600080fd5b7f4e487b7100000000000000000000000000000000000000000000000000000000600052604160045260246000fd5b613f1d82613de7565b810181811067ffffffffffffffff82111715613f3c57613f3b613ee5565b5b80604052505050565b6000613f4f613b9e565b9050613f5b8282613f14565b919050565b600067ffffffffffffffff821115613f7b57613f7a613ee5565b5b602082029050602081019050919050565b600080fd5b6000613fa4613f9f84613f60565b613f45565b90508083825260208201905060208402830185811115613fc757613fc6613f8c565b5b835b81811015613ff05780613fdc8882613c31565b845260208401935050602081019050613fc9565b5050509392505050565b600082601f83011261400f5761400e613ee0565b5b813561401f848260208601613f91565b91505092915050565b600080fd5b600067ffffffffffffffff82111561404857614047613ee5565b5b61405182613de7565b9050602081019050919050565b82818337600083830152505050565b600061408061407b8461402d565b613f45565b90508281526020810184848401111561409c5761409b614028565b5b6140a784828561405e565b509392505050565b600082601f8301126140c4576140c3613ee0565b5b81356140d484826020860161406d565b91505092915050565b600080600080600060a086880312156140f9576140f8613ba8565b5b600061410788828901613bfb565b955050602061411888828901613bfb565b945050604086013567ffffffffffffffff81111561413957614138613bad565b5b61414588828901613ffa565b935050606086013567ffffffffffffffff81111561416657614165613bad565b5b61417288828901613ffa565b925050608086013567ffffffffffffffff81111561419357614192613bad565b5b61419f888289016140af565b9150509295509295909350565b600080604083850312156141c3576141c2613ba8565b5b60006141d185828601613e74565b92505060206141e285828601613bfb565b9150509250929050565b60006020828403121561420257614201613ba8565b5b600061421084828501613bfb565b91505092915050565b600081519050919050565b600082825260208201905092915050565b6000819050602082019050919050565b600060ff82169050919050565b61425b81614245565b82525050565b600082825260208201905092915050565b600061427d82613d98565b6142878185614261565b9350614297818560208601613db4565b6142a081613de7565b840191505092915050565b600081519050919050565b600082825260208201905092915050565b6000819050602082019050919050565b6142e081613c10565b82525050565b60006142f283836142d7565b60208301905092915050565b6000602082019050919050565b6000614316826142ab565b61432081856142b6565b935061432b836142c7565b8060005b8381101561435c57815161434388826142e6565b975061434e836142fe565b92505060018101905061432f565b5085935050505092915050565b600060c0830160008301516143816000860182614252565b50602083015184820360208601526143998282614272565b915050604083015184820360408601526143b38282614272565b915050606083015184820360608601526143cd8282614272565b915050608083015184820360808601526143e78282614272565b91505060a083015184820360a0860152614401828261430b565b9150508091505092915050565b600061441a8383614369565b905092915050565b6000602082019050919050565b600061443a82614219565b6144448185614224565b93508360208202850161445685614235565b8060005b858110156144925784840389528151614473858261440e565b945061447e83614422565b925060208a0199505060018101905061445a565b50829750879550505050505092915050565b600060208201905081810360008301526144be818461442f565b905092915050565b600067ffffffffffffffff8211156144e1576144e0613ee5565b5b602082029050602081019050919050565b6000614505614500846144c6565b613f45565b9050808382526020820190506020840283018581111561452857614527613f8c565b5b835b81811015614551578061453d8882613bfb565b84526020840193505060208101905061452a565b5050509392505050565b600082601f8301126145705761456f613ee0565b5b81356145808482602086016144f2565b91505092915050565b600080604083850312156145a05761459f613ba8565b5b600083013567ffffffffffffffff8111156145be576145bd613bad565b5b6145ca8582860161455b565b925050602083013567ffffffffffffffff8111156145eb576145ea613bad565b5b6145f785828601613ffa565b9150509250929050565b600082825260208201905092915050565b600061461d826142ab565b6146278185614601565b9350614632836142c7565b8060005b8381101561466357815161464a88826142e6565b9750614655836142fe565b925050600181019050614636565b5085935050505092915050565b6000602082019050818103600083015261468a8184614612565b905092915050565b600060c0830160008301516146aa6000860182614252565b50602083015184820360208601526146c28282614272565b915050604083015184820360408601526146dc8282614272565b915050606083015184820360608601526146f68282614272565b915050608083015184820360808601526147108282614272565b91505060a083015184820360a086015261472a828261430b565b9150508091505092915050565b600060208201905081810360008301526147518184614692565b905092915050565b600080604083850312156147705761476f613ba8565b5b600061477e85828601613e74565b925050602061478f85828601613c31565b9150509250929050565b6147a281613bd2565b82525050565b60006020820190506147bd6000830184614799565b92915050565b6147cc81613d35565b81146147d757600080fd5b50565b6000813590506147e9816147c3565b92915050565b6000806040838503121561480657614805613ba8565b5b600061481485828601613bfb565b9250506020614825858286016147da565b9150509250929050565b600061483a82613bb2565b9050919050565b61484a8161482f565b811461485557600080fd5b50565b60008135905061486781614841565b92915050565b60006020828403121561488357614882613ba8565b5b600061489184828501614858565b91505092915050565b6148a381614245565b81146148ae57600080fd5b50565b6000813590506148c08161489a565b92915050565b600067ffffffffffffffff8211156148e1576148e0613ee5565b5b6148ea82613de7565b9050602081019050919050565b600061490a614905846148c6565b613f45565b90508281526020810184848401111561492657614925614028565b5b61493184828561405e565b509392505050565b600082601f83011261494e5761494d613ee0565b5b813561495e8482602086016148f7565b91505092915050565b600080600080600080600060e0888a03121561498657614985613ba8565b5b60006149948a828b016148b1565b975050602088013567ffffffffffffffff8111156149b5576149b4613bad565b5b6149c18a828b01614939565b965050604088013567ffffffffffffffff8111156149e2576149e1613bad565b5b6149ee8a828b01614939565b955050606088013567ffffffffffffffff811115614a0f57614a0e613bad565b5b614a1b8a828b01614939565b945050608088013567ffffffffffffffff811115614a3c57614a3b613bad565b5b614a488a828b01614939565b93505060a088013567ffffffffffffffff811115614a6957614a68613bad565b5b614a758a828b01613ffa565b92505060c088013567ffffffffffffffff811115614a9657614a95613bad565b5b614aa28a828b01614939565b91505092959891949750929550565b60008060408385031215614ac857614ac7613ba8565b5b6000614ad685828601613bfb565b9250506020614ae785828601613bfb565b9150509250929050565b600080600080600060a08688031215614b0d57614b0c613ba8565b5b6000614b1b88828901613bfb565b9550506020614b2c88828901613bfb565b9450506040614b3d88828901613c31565b9350506060614b4e88828901613c31565b925050608086013567ffffffffffffffff811115614b6f57614b6e613bad565b5b614b7b888289016140af565b9150509295509295909350565b7f455243313135353a2061646472657373207a65726f206973206e6f742061207660008201527f616c6964206f776e657200000000000000000000000000000000000000000000602082015250565b6000614be4602a83613da3565b9150614bef82614b88565b604082019050919050565b60006020820190508181036000830152614c1381614bd7565b9050919050565b7f4e487b7100000000000000000000000000000000000000000000000000000000600052602260045260246000fd5b60006002820490506001821680614c6157607f821691505b60208210811415614c7557614c74614c1a565b5b50919050565b600081905092915050565b60008190508160005260206000209050919050565b60008154614ca881614c49565b614cb28186614c7b565b94506001821660008114614ccd5760018114614cde57614d11565b60ff19831686528186019350614d11565b614ce785614c86565b60005b83811015614d0957815481890152600182019150602081019050614cea565b838801955050505b50505092915050565b6000614d2582613d98565b614d2f8185614c7b565b9350614d3f818560208601613db4565b80840191505092915050565b6000614d578285614c9b565b9150614d638284614d1a565b91508190509392505050565b7f455243313135353a2063616c6c6572206973206e6f7420746f6b656e206f776e60008201527f6572206e6f7220617070726f7665640000000000000000000000000000000000602082015250565b6000614dcb602f83613da3565b9150614dd682614d6f565b604082019050919050565b60006020820190508181036000830152614dfa81614dbe565b9050919050565b7f416363657373436f6e74726f6c3a2063616e206f6e6c792072656e6f756e636560008201527f20726f6c657320666f722073656c660000000000000000000000000000000000602082015250565b6000614e5d602f83613da3565b9150614e6882614e01565b604082019050919050565b60006020820190508181036000830152614e8c81614e50565b9050919050565b7f4e487b7100000000000000000000000000000000000000000000000000000000600052603260045260246000fd5b7f4e487b7100000000000000000000000000000000000000000000000000000000600052601160045260246000fd5b6000614efc82613c10565b91507fffffffffffffffffffffffffffffffffffffffffffffffffffffffffffffffff821415614f2f57614f2e614ec2565b5b600182019050919050565b7f455243313135353a206163636f756e747320616e6420696473206c656e67746860008201527f206d69736d617463680000000000000000000000000000000000000000000000602082015250565b6000614f96602983613da3565b9150614fa182614f3a565b604082019050919050565b60006020820190508181036000830152614fc581614f89565b9050919050565b6000614fd782614245565b9150614fe283614245565b92508260ff03821115614ff857614ff7614ec2565b5b828201905092915050565b600060039050919050565b600081905092915050565b6000819050919050565b61502c81613c10565b82525050565b600061503e8383615023565b60208301905092915050565b6000602082019050919050565b61506081615003565b61506a818461500e565b925061507582615019565b8060005b838110156150a657815161508d8782615032565b96506150988361504a565b925050600181019050615079565b505050505050565b60006150ba8284615057565b60608201915081905092915050565b7f455243313135353a2069647320616e6420616d6f756e7473206c656e6774682060008201527f6d69736d61746368000000000000000000000000000000000000000000000000602082015250565b6000615125602883613da3565b9150615130826150c9565b604082019050919050565b6000602082019050818103600083015261515481615118565b9050919050565b7f455243313135353a207472616e7366657220746f20746865207a65726f20616460008201527f6472657373000000000000000000000000000000000000000000000000000000602082015250565b60006151b7602583613da3565b91506151c28261515b565b604082019050919050565b600060208201905081810360008301526151e6816151aa565b9050919050565b7f455243313135353a20696e73756666696369656e742062616c616e636520666f60008201527f72207472616e7366657200000000000000000000000000000000000000000000602082015250565b6000615249602a83613da3565b9150615254826151ed565b604082019050919050565b600060208201905081810360008301526152788161523c565b9050919050565b600061528a82613c10565b915061529583613c10565b9250827fffffffffffffffffffffffffffffffffffffffffffffffffffffffffffffffff038211156152ca576152c9614ec2565b5b828201905092915050565b600060408201905081810360008301526152ef8185614612565b905081810360208301526153038184614612565b90509392505050565b60008151905061531b81613e5d565b92915050565b60006020828403121561533757615336613ba8565b5b60006153458482850161530c565b91505092915050565b7f4e487b7100000000000000000000000000000000000000000000000000000000600052601260045260246000fd5b600061538882613c10565b915061539383613c10565b9250826153a3576153a261534e565b5b828206905092915050565b7f455243313135353a2073657474696e6720617070726f76616c2073746174757360008201527f20666f722073656c660000000000000000000000000000000000000000000000602082015250565b600061540a602983613da3565b9150615415826153ae565b604082019050919050565b60006020820190508181036000830152615439816153fd565b9050919050565b60006040820190506154556000830185613c86565b6154626020830184613c86565b9392505050565b600081519050919050565b600082825260208201905092915050565b600061549082615469565b61549a8185615474565b93506154aa818560208601613db4565b6154b381613de7565b840191505092915050565b600060a0820190506154d36000830188614799565b6154e06020830187614799565b81810360408301526154f28186614612565b905081810360608301526155068185614612565b9050818103608083015261551a8184615485565b90509695505050505050565b60008151905061553581613cdc565b92915050565b60006020828403121561555157615550613ba8565b5b600061555f84828501615526565b91505092915050565b60008160e01c9050919050565b600060033d11156155945760046000803e615591600051615568565b90505b90565b600060443d10156155a75761562a565b6155af613b9e565b60043d036004823e80513d602482011167ffffffffffffffff821117156155d757505061562a565b808201805167ffffffffffffffff8111156155f5575050505061562a565b80602083010160043d03850181111561561257505050505061562a565b61562182602001850186613f14565b82955050505050505b90565b7f455243313135353a207472616e7366657220746f206e6f6e204552433131353560008201527f526563656976657220696d706c656d656e746572000000000000000000000000602082015250565b6000615689603483613da3565b91506156948261562d565b604082019050919050565b600060208201905081810360008301526156b88161567c565b9050919050565b7f455243313135353a204552433131353552656365697665722072656a6563746560008201527f6420746f6b656e73000000000000000000000000000000000000000000000000602082015250565b600061571b602883613da3565b9150615726826156bf565b604082019050919050565b6000602082019050818103600083015261574a8161570e565b9050919050565b7f416363657373436f6e74726f6c3a206163636f756e7420000000000000000000600082015250565b6000615787601783614c7b565b915061579282615751565b601782019050919050565b7f206973206d697373696e6720726f6c6520000000000000000000000000000000600082015250565b60006157d3601183614c7b565b91506157de8261579d565b601182019050919050565b60006157f48261577a565b91506158008285614d1a565b915061580b826157c6565b91506158178284614d1a565b91508190509392505050565b7f455243313135353a206d696e7420746f20746865207a65726f2061646472657360008201527f7300000000000000000000000000000000000000000000000000000000000000602082015250565b600061587f602183613da3565b915061588a82615823565b604082019050919050565b600060208201905081810360008301526158ae81615872565b9050919050565b600060a0820190506158ca6000830188614799565b6158d76020830187614799565b6158e46040830186613c86565b6158f16060830185613c86565b81810360808301526159038184615485565b90509695505050505050565b600061591a82613c10565b915061592583613c10565b9250817fffffffffffffffffffffffffffffffffffffffffffffffffffffffffffffffff048311821515161561595e5761595d614ec2565b5b828202905092915050565b600061597482613c10565b9150600082141561598857615987614ec2565b5b600182039050919050565b7f537472696e67733a20686578206c656e67746820696e73756666696369656e74600082015250565b60006159c9602083613da3565b91506159d482615993565b602082019050919050565b600060208201905081810360008301526159f8816159bc565b9050919050565b6000615a0a82613c10565b9150615a1583613c10565b925082821015615a2857615a27614ec2565b5b828203905092915050565b7f4e487b7100000000000000000000000000000000000000000000000000000000600052603160045260246000fdfea2646970667358221220a0fe1573f77541990af849ba59bc3b1266bd27f84e3b1c42961fde1d161098b364736f6c63430008090033",
  "devdoc": {
    "author": "TobowerTheGreatAxios",
    "details": "This smart contract is an ERC-1155 standard contractThis contract is the core tokens for the mini-game*",
    "events": {
      "NewItem(uint256)": {
        "details": "Used in the [addItem] function",
        "params": {
          "tokenId": "The [tokenId] that was created"
        }
      },
      "NewPlayer(address,uint256[3])": {
        "details": "Used in the [initialMint] functionAll Tokens Minted will be equal to 1",
        "params": {
          "initialTokens": "The [initialTokens] that were added EXACT === 3",
          "newPlayer": "The [newPlayer]that was added by address"
        }
      },
      "TierUnlocked(address,uint256,uint8)": {
        "details": "Used inside the [winBattle] function",
        "params": {
          "player": "The [player] who is unlocked a new tier",
          "tier": "The [tier] that was unlocked",
          "tokenId": "The [tokenId] that was granted for this new tier"
        }
      },
      "Winner(address)": {
        "details": "Fires once a player has all of the last tier of items",
        "params": {
          "player": "the address of the winner"
        }
      }
    },
    "kind": "dev",
    "methods": {
      "addItem(uint8,string,string,string,string,uint256[],string)": {
        "details": "Creates Metadata -> Stores as New IndexSets Token URI for Backward Compatability with MarketplacesUpdates Number Of ItemsEmits [NewItem] event",
        "params": {
          "animation": "Animation of the Item",
          "beats": "List of who the token beats",
          "description": "Description of the Item",
          "image": "Image of the Item",
          "name": "Name of the Item",
          "tokenURI": "Gen I Token URI"
        }
      },
      "balanceOf(address,uint256)": {
        "details": "See {IERC1155-balanceOf}. Requirements: - `account` cannot be the zero address."
      },
      "balanceOfBatch(address[],uint256[])": {
        "details": "See {IERC1155-balanceOfBatch}. Requirements: - `accounts` and `ids` must have the same length."
      },
      "getItems(address)": {
        "details": "Thoughts on making this a signed request during ETH CC?",
        "params": {
          "_address": "of the user"
        },
        "returns": {
          "_0": "GameItemMetadata[] the items of the player"
        }
      },
      "getNumberItems()": {
        "returns": {
          "_0": "uint256 of the number of active game items"
        }
      },
      "getNumberPlayers()": {
        "returns": {
          "_0": ""
        }
      },
      "getOnChainToken(uint256)": {
        "params": {
          "tokenId": "of the token to retreive"
        },
        "returns": {
          "_0": "GameItemMetadata of the Item"
        }
      },
      "getRoleAdmin(bytes32)": {
        "details": "Returns the admin role that controls `role`. See {grantRole} and {revokeRole}. To change a role's admin, use {_setRoleAdmin}."
      },
      "getRoleMember(bytes32,uint256)": {
        "details": "Returns one of the accounts that have `role`. `index` must be a value between 0 and {getRoleMemberCount}, non-inclusive. Role bearers are not sorted in any particular way, and their ordering may change at any point. WARNING: When using {getRoleMember} and {getRoleMemberCount}, make sure you perform all queries on the same block. See the following https://forum.openzeppelin.com/t/iterating-over-elements-on-enumerableset-in-openzeppelin-contracts/2296[forum post] for more information."
      },
      "getRoleMemberCount(bytes32)": {
        "details": "Returns the number of accounts that have `role`. Can be used together with {getRoleMember} to enumerate all bearers of a role."
      },
      "getUnlockDate()": {
        "details": "Can be deprecated",
        "returns": {
          "_0": "uint256 time in epoch * 1000"
        }
      },
      "grantRole(bytes32,address)": {
        "details": "Grants `role` to `account`. If `account` had not been already granted `role`, emits a {RoleGranted} event. Requirements: - the caller must have ``role``'s admin role. May emit a {RoleGranted} event."
      },
      "hasRole(bytes32,address)": {
        "details": "Returns `true` if `account` has been granted `role`."
      },
      "initialMint(address)": {
        "details": "Initial Mint FunctionOnly Callalble by MINTER_ROLEEmits [NewPlayer] event and adds a new player",
        "params": {
          "receiver": "the individual receiving the intial mint"
        }
      },
      "isApprovedForAll(address,address)": {
        "details": "See {IERC1155-isApprovedForAll}."
      },
      "isLocked()": {
        "details": "Internal/ExternalReturns True if Locked",
        "returns": {
          "_0": "bool if is locked"
        }
      },
      "playoff()": {
        "details": "Uses RNG to Find # between 0-1000Returns true for P2, False for P2",
        "returns": {
          "_0": "bool "
        }
      },
      "renounceRole(bytes32,address)": {
        "details": "Revokes `role` from the calling account. Roles are often managed via {grantRole} and {revokeRole}: this function's purpose is to provide a mechanism for accounts to lose their privileges if they are compromised (such as when a trusted device is misplaced). If the calling account had been revoked `role`, emits a {RoleRevoked} event. Requirements: - the caller must be `account`. May emit a {RoleRevoked} event."
      },
      "revokeRole(bytes32,address)": {
        "details": "Revokes `role` from `account`. If `account` had been granted `role`, emits a {RoleRevoked} event. Requirements: - the caller must have ``role``'s admin role. May emit a {RoleRevoked} event."
      },
      "safeBatchTransferFrom(address,address,uint256[],uint256[],bytes)": {
        "details": "See {IERC1155-safeBatchTransferFrom}."
      },
      "safeTransferFrom(address,address,uint256,uint256,bytes)": {
        "details": "See {IERC1155-safeTransferFrom}."
      },
      "setApprovalForAll(address,bool)": {
        "details": "See {IERC1155-setApprovalForAll}."
      },
      "uri(uint256)": {
        "details": "See {IERC1155MetadataURI-uri}. This implementation returns the concatenation of the `_baseURI` and the token-specific uri if the latter is set This enables the following behaviors: - if `_tokenURIs[tokenId]` is set, then the result is the concatenation   of `_baseURI` and `_tokenURIs[tokenId]` (keep in mind that `_baseURI`   is empty per default); - if `_tokenURIs[tokenId]` is NOT set then we fallback to `super.uri()`   which in most cases will contain `ERC1155._uri`; - if `_tokenURIs[tokenId]` is NOT set, and if the parents do not have a   uri value set, then the result is empty."
      },
      "winBattle(address,uint256)": {
        "details": "On Battle Win -> Win Manager Mints",
        "params": {
          "receiever": "the user that wins",
          "tokenId": "The tokenId to be minted"
        }
      }
    },
    "version": 1
  },
  "userdoc": {
    "events": {
      "NewItem(uint256)": {
        "notice": "Emits a new item being added to the contract [token]"
      },
      "NewPlayer(address,uint256[3])": {
        "notice": "Emits a new player being added to the contract [address]"
      },
      "TierUnlocked(address,uint256,uint8)": {
        "notice": "Emits a TierUnlocked allowing for the frontend to notify the player"
      },
      "Winner(address)": {
        "notice": "Emits a Winner event"
      }
    },
    "kind": "user",
    "methods": {
      "ADMIN_ROLE()": {
        "notice": "Admin Role to Toggle Contract"
      },
      "MINTER_APPRENTICE_ROLE()": {
        "notice": "Minter Role Apprentice"
      },
      "MINTER_ROLE()": {
        "notice": "Can Fire Initial Mint"
      },
      "WIN_MANAGER_ROLE()": {
        "notice": "Can Mint on Wini"
      },
      "addItem(uint8,string,string,string,string,uint256[],string)": {
        "notice": "Admin Function that enables the admin owner to add new tokens to the contract storage"
      },
      "getItems(address)": {
        "notice": "Loads all the Metadata by a player in order to allow them to load the data"
      },
      "getNumberItems()": {
        "notice": "Retrieves the Total Number of Items in the Game"
      },
      "getNumberPlayers()": {
        "notice": "Retreives the current number of players/holders"
      },
      "getOnChainToken(uint256)": {
        "notice": "Returns on Chain Token - Single (Metadata)"
      },
      "getUnlockDate()": {
        "notice": "Retreives Unlock Date"
      },
      "isLocked()": {
        "notice": "Checks if contract is locked"
      },
      "playoff()": {
        "notice": "Playoff Function for Battle.sol"
      },
      "supportsInterface(bytes4)": {
        "notice": "Required for Inheriting Contracts"
      },
      "winBattle(address,uint256)": {
        "notice": "WIN_MANAGER_CALL"
      }
    },
    "notice": "GameItems for ETH CC",
    "version": 1
  },
  "storageLayout": {
    "storage": [
      {
        "astId": 24,
        "contract": "contracts/GameItems.sol:GameItems",
        "label": "_roles",
        "offset": 0,
        "slot": "0",
        "type": "t_mapping(t_bytes32,t_struct(RoleData)19_storage)"
      },
      {
        "astId": 338,
        "contract": "contracts/GameItems.sol:GameItems",
        "label": "_roleMembers",
        "offset": 0,
        "slot": "1",
        "type": "t_mapping(t_bytes32,t_struct(AddressSet)2922_storage)"
      },
      {
        "astId": 568,
        "contract": "contracts/GameItems.sol:GameItems",
        "label": "_balances",
        "offset": 0,
        "slot": "2",
        "type": "t_mapping(t_uint256,t_mapping(t_address,t_uint256))"
      },
      {
        "astId": 574,
        "contract": "contracts/GameItems.sol:GameItems",
        "label": "_operatorApprovals",
        "offset": 0,
        "slot": "3",
        "type": "t_mapping(t_address,t_mapping(t_address,t_bool))"
      },
      {
        "astId": 576,
        "contract": "contracts/GameItems.sol:GameItems",
        "label": "_uri",
        "offset": 0,
        "slot": "4",
        "type": "t_string_storage"
      },
      {
        "astId": 1941,
        "contract": "contracts/GameItems.sol:GameItems",
        "label": "_baseURI",
        "offset": 0,
        "slot": "5",
        "type": "t_string_storage"
      },
      {
        "astId": 1945,
        "contract": "contracts/GameItems.sol:GameItems",
        "label": "_tokenURIs",
        "offset": 0,
        "slot": "6",
        "type": "t_mapping(t_uint256,t_string_storage)"
      },
      {
        "astId": 3253,
        "contract": "contracts/GameItems.sol:GameItems",
        "label": "numberItems",
        "offset": 0,
        "slot": "7",
        "type": "t_uint256"
      },
      {
        "astId": 3256,
        "contract": "contracts/GameItems.sol:GameItems",
        "label": "numberPlayers",
        "offset": 0,
        "slot": "8",
        "type": "t_uint256"
      },
      {
        "astId": 3262,
        "contract": "contracts/GameItems.sol:GameItems",
        "label": "metadata",
        "offset": 0,
        "slot": "9",
        "type": "t_mapping(t_uint256,t_struct(GameItemMetadata)4265_storage)"
      },
      {
        "astId": 3269,
        "contract": "contracts/GameItems.sol:GameItems",
        "label": "tierTracker",
        "offset": 0,
        "slot": "10",
        "type": "t_mapping(t_uint256,t_mapping(t_address,t_bool))"
      },
      {
        "astId": 3293,
        "contract": "contracts/GameItems.sol:GameItems",
        "label": "unlockDate",
        "offset": 0,
        "slot": "11",
        "type": "t_uint256"
      }
    ],
    "types": {
      "t_address": {
        "encoding": "inplace",
        "label": "address",
        "numberOfBytes": "20"
      },
      "t_array(t_bytes32)dyn_storage": {
        "base": "t_bytes32",
        "encoding": "dynamic_array",
        "label": "bytes32[]",
        "numberOfBytes": "32"
      },
      "t_array(t_uint256)dyn_storage": {
        "base": "t_uint256",
        "encoding": "dynamic_array",
        "label": "uint256[]",
        "numberOfBytes": "32"
      },
      "t_bool": {
        "encoding": "inplace",
        "label": "bool",
        "numberOfBytes": "1"
      },
      "t_bytes32": {
        "encoding": "inplace",
        "label": "bytes32",
        "numberOfBytes": "32"
      },
      "t_mapping(t_address,t_bool)": {
        "encoding": "mapping",
        "key": "t_address",
        "label": "mapping(address => bool)",
        "numberOfBytes": "32",
        "value": "t_bool"
      },
      "t_mapping(t_address,t_mapping(t_address,t_bool))": {
        "encoding": "mapping",
        "key": "t_address",
        "label": "mapping(address => mapping(address => bool))",
        "numberOfBytes": "32",
        "value": "t_mapping(t_address,t_bool)"
      },
      "t_mapping(t_address,t_uint256)": {
        "encoding": "mapping",
        "key": "t_address",
        "label": "mapping(address => uint256)",
        "numberOfBytes": "32",
        "value": "t_uint256"
      },
      "t_mapping(t_bytes32,t_struct(AddressSet)2922_storage)": {
        "encoding": "mapping",
        "key": "t_bytes32",
        "label": "mapping(bytes32 => struct EnumerableSet.AddressSet)",
        "numberOfBytes": "32",
        "value": "t_struct(AddressSet)2922_storage"
      },
      "t_mapping(t_bytes32,t_struct(RoleData)19_storage)": {
        "encoding": "mapping",
        "key": "t_bytes32",
        "label": "mapping(bytes32 => struct AccessControl.RoleData)",
        "numberOfBytes": "32",
        "value": "t_struct(RoleData)19_storage"
      },
      "t_mapping(t_bytes32,t_uint256)": {
        "encoding": "mapping",
        "key": "t_bytes32",
        "label": "mapping(bytes32 => uint256)",
        "numberOfBytes": "32",
        "value": "t_uint256"
      },
      "t_mapping(t_uint256,t_mapping(t_address,t_bool))": {
        "encoding": "mapping",
        "key": "t_uint256",
        "label": "mapping(uint256 => mapping(address => bool))",
        "numberOfBytes": "32",
        "value": "t_mapping(t_address,t_bool)"
      },
      "t_mapping(t_uint256,t_mapping(t_address,t_uint256))": {
        "encoding": "mapping",
        "key": "t_uint256",
        "label": "mapping(uint256 => mapping(address => uint256))",
        "numberOfBytes": "32",
        "value": "t_mapping(t_address,t_uint256)"
      },
      "t_mapping(t_uint256,t_string_storage)": {
        "encoding": "mapping",
        "key": "t_uint256",
        "label": "mapping(uint256 => string)",
        "numberOfBytes": "32",
        "value": "t_string_storage"
      },
      "t_mapping(t_uint256,t_struct(GameItemMetadata)4265_storage)": {
        "encoding": "mapping",
        "key": "t_uint256",
        "label": "mapping(uint256 => struct IGameItems.GameItemMetadata)",
        "numberOfBytes": "32",
        "value": "t_struct(GameItemMetadata)4265_storage"
      },
      "t_string_storage": {
        "encoding": "bytes",
        "label": "string",
        "numberOfBytes": "32"
      },
      "t_struct(AddressSet)2922_storage": {
        "encoding": "inplace",
        "label": "struct EnumerableSet.AddressSet",
        "members": [
          {
            "astId": 2921,
            "contract": "contracts/GameItems.sol:GameItems",
            "label": "_inner",
            "offset": 0,
            "slot": "0",
            "type": "t_struct(Set)2621_storage"
          }
        ],
        "numberOfBytes": "64"
      },
      "t_struct(GameItemMetadata)4265_storage": {
        "encoding": "inplace",
        "label": "struct IGameItems.GameItemMetadata",
        "members": [
          {
            "astId": 4253,
            "contract": "contracts/GameItems.sol:GameItems",
            "label": "tier",
            "offset": 0,
            "slot": "0",
            "type": "t_uint8"
          },
          {
            "astId": 4255,
            "contract": "contracts/GameItems.sol:GameItems",
            "label": "name",
            "offset": 0,
            "slot": "1",
            "type": "t_string_storage"
          },
          {
            "astId": 4257,
            "contract": "contracts/GameItems.sol:GameItems",
            "label": "description",
            "offset": 0,
            "slot": "2",
            "type": "t_string_storage"
          },
          {
            "astId": 4259,
            "contract": "contracts/GameItems.sol:GameItems",
            "label": "image",
            "offset": 0,
            "slot": "3",
            "type": "t_string_storage"
          },
          {
            "astId": 4261,
            "contract": "contracts/GameItems.sol:GameItems",
            "label": "animationUrl",
            "offset": 0,
            "slot": "4",
            "type": "t_string_storage"
          },
          {
            "astId": 4264,
            "contract": "contracts/GameItems.sol:GameItems",
            "label": "beats",
            "offset": 0,
            "slot": "5",
            "type": "t_array(t_uint256)dyn_storage"
          }
        ],
        "numberOfBytes": "192"
      },
      "t_struct(RoleData)19_storage": {
        "encoding": "inplace",
        "label": "struct AccessControl.RoleData",
        "members": [
          {
            "astId": 16,
            "contract": "contracts/GameItems.sol:GameItems",
            "label": "members",
            "offset": 0,
            "slot": "0",
            "type": "t_mapping(t_address,t_bool)"
          },
          {
            "astId": 18,
            "contract": "contracts/GameItems.sol:GameItems",
            "label": "adminRole",
            "offset": 0,
            "slot": "1",
            "type": "t_bytes32"
          }
        ],
        "numberOfBytes": "64"
      },
      "t_struct(Set)2621_storage": {
        "encoding": "inplace",
        "label": "struct EnumerableSet.Set",
        "members": [
          {
            "astId": 2616,
            "contract": "contracts/GameItems.sol:GameItems",
            "label": "_values",
            "offset": 0,
            "slot": "0",
            "type": "t_array(t_bytes32)dyn_storage"
          },
          {
            "astId": 2620,
            "contract": "contracts/GameItems.sol:GameItems",
            "label": "_indexes",
            "offset": 0,
            "slot": "1",
            "type": "t_mapping(t_bytes32,t_uint256)"
          }
        ],
        "numberOfBytes": "64"
      },
      "t_uint256": {
        "encoding": "inplace",
        "label": "uint256",
        "numberOfBytes": "32"
      },
      "t_uint8": {
        "encoding": "inplace",
        "label": "uint8",
        "numberOfBytes": "1"
      }
    }
  }
}