{
  "address": "0xD098268220F2b1A8cBb1fe5db9C51bd0f9102813",
  "abi": [
    {
      "inputs": [
        {
          "internalType": "address",
          "name": "diceRollerContract",
          "type": "address"
        }
      ],
      "stateMutability": "nonpayable",
      "type": "constructor"
    },
    {
      "anonymous": false,
      "inputs": [
        {
          "indexed": true,
          "internalType": "address",
          "name": "account",
          "type": "address"
        },
        {
          "indexed": true,
          "internalType": "address",
          "name": "operator",
          "type": "address"
        },
        {
          "indexed": false,
          "internalType": "bool",
          "name": "approved",
          "type": "bool"
        }
      ],
      "name": "ApprovalForAll",
      "type": "event"
    },
    {
      "anonymous": false,
      "inputs": [
        {
          "indexed": true,
          "internalType": "uint256",
          "name": "tokenId",
          "type": "uint256"
        }
      ],
      "name": "NewItem",
      "type": "event"
    },
    {
      "anonymous": false,
      "inputs": [
        {
          "indexed": true,
          "internalType": "address",
          "name": "newPlayer",
          "type": "address"
        },
        {
          "indexed": true,
          "internalType": "uint256[3]",
          "name": "initialTokens",
          "type": "uint256[3]"
        }
      ],
      "name": "NewPlayer",
      "type": "event"
    },
    {
      "anonymous": false,
      "inputs": [
        {
          "indexed": true,
          "internalType": "bytes32",
          "name": "role",
          "type": "bytes32"
        },
        {
          "indexed": true,
          "internalType": "bytes32",
          "name": "previousAdminRole",
          "type": "bytes32"
        },
        {
          "indexed": true,
          "internalType": "bytes32",
          "name": "newAdminRole",
          "type": "bytes32"
        }
      ],
      "name": "RoleAdminChanged",
      "type": "event"
    },
    {
      "anonymous": false,
      "inputs": [
        {
          "indexed": true,
          "internalType": "bytes32",
          "name": "role",
          "type": "bytes32"
        },
        {
          "indexed": true,
          "internalType": "address",
          "name": "account",
          "type": "address"
        },
        {
          "indexed": true,
          "internalType": "address",
          "name": "sender",
          "type": "address"
        }
      ],
      "name": "RoleGranted",
      "type": "event"
    },
    {
      "anonymous": false,
      "inputs": [
        {
          "indexed": true,
          "internalType": "bytes32",
          "name": "role",
          "type": "bytes32"
        },
        {
          "indexed": true,
          "internalType": "address",
          "name": "account",
          "type": "address"
        },
        {
          "indexed": true,
          "internalType": "address",
          "name": "sender",
          "type": "address"
        }
      ],
      "name": "RoleRevoked",
      "type": "event"
    },
    {
      "anonymous": false,
      "inputs": [
        {
          "indexed": true,
          "internalType": "address",
          "name": "player",
          "type": "address"
        },
        {
          "indexed": true,
          "internalType": "uint256",
          "name": "tokenId",
          "type": "uint256"
        },
        {
          "indexed": true,
          "internalType": "uint8",
          "name": "tier",
          "type": "uint8"
        }
      ],
      "name": "TierUnlocked",
      "type": "event"
    },
    {
      "anonymous": false,
      "inputs": [
        {
          "indexed": true,
          "internalType": "address",
          "name": "operator",
          "type": "address"
        },
        {
          "indexed": true,
          "internalType": "address",
          "name": "from",
          "type": "address"
        },
        {
          "indexed": true,
          "internalType": "address",
          "name": "to",
          "type": "address"
        },
        {
          "indexed": false,
          "internalType": "uint256[]",
          "name": "ids",
          "type": "uint256[]"
        },
        {
          "indexed": false,
          "internalType": "uint256[]",
          "name": "values",
          "type": "uint256[]"
        }
      ],
      "name": "TransferBatch",
      "type": "event"
    },
    {
      "anonymous": false,
      "inputs": [
        {
          "indexed": true,
          "internalType": "address",
          "name": "operator",
          "type": "address"
        },
        {
          "indexed": true,
          "internalType": "address",
          "name": "from",
          "type": "address"
        },
        {
          "indexed": true,
          "internalType": "address",
          "name": "to",
          "type": "address"
        },
        {
          "indexed": false,
          "internalType": "uint256",
          "name": "id",
          "type": "uint256"
        },
        {
          "indexed": false,
          "internalType": "uint256",
          "name": "value",
          "type": "uint256"
        }
      ],
      "name": "TransferSingle",
      "type": "event"
    },
    {
      "anonymous": false,
      "inputs": [
        {
          "indexed": false,
          "internalType": "string",
          "name": "value",
          "type": "string"
        },
        {
          "indexed": true,
          "internalType": "uint256",
          "name": "id",
          "type": "uint256"
        }
      ],
      "name": "URI",
      "type": "event"
    },
    {
      "anonymous": false,
      "inputs": [
        {
          "indexed": true,
          "internalType": "address",
          "name": "player",
          "type": "address"
        }
      ],
      "name": "Winner",
      "type": "event"
    },
    {
      "inputs": [],
      "name": "ADMIN_ROLE",
      "outputs": [
        {
          "internalType": "bytes32",
          "name": "",
          "type": "bytes32"
        }
      ],
      "stateMutability": "view",
      "type": "function"
    },
    {
      "inputs": [],
      "name": "DEFAULT_ADMIN_ROLE",
      "outputs": [
        {
          "internalType": "bytes32",
          "name": "",
          "type": "bytes32"
        }
      ],
      "stateMutability": "view",
      "type": "function"
    },
    {
      "inputs": [],
      "name": "MINTER_APPRENTICE_ROLE",
      "outputs": [
        {
          "internalType": "bytes32",
          "name": "",
          "type": "bytes32"
        }
      ],
      "stateMutability": "view",
      "type": "function"
    },
    {
      "inputs": [],
      "name": "MINTER_ROLE",
      "outputs": [
        {
          "internalType": "bytes32",
          "name": "",
          "type": "bytes32"
        }
      ],
      "stateMutability": "view",
      "type": "function"
    },
    {
      "inputs": [],
      "name": "WIN_MANAGER_ROLE",
      "outputs": [
        {
          "internalType": "bytes32",
          "name": "",
          "type": "bytes32"
        }
      ],
      "stateMutability": "view",
      "type": "function"
    },
    {
      "inputs": [
        {
          "internalType": "uint8",
          "name": "tier",
          "type": "uint8"
        },
        {
          "internalType": "string",
          "name": "name",
          "type": "string"
        },
        {
          "internalType": "string",
          "name": "description",
          "type": "string"
        },
        {
          "internalType": "string",
          "name": "image",
          "type": "string"
        },
        {
          "internalType": "string",
          "name": "animation",
          "type": "string"
        },
        {
          "internalType": "uint256[]",
          "name": "beats",
          "type": "uint256[]"
        },
        {
          "internalType": "string",
          "name": "tokenURI",
          "type": "string"
        }
      ],
      "name": "addItem",
      "outputs": [],
      "stateMutability": "nonpayable",
      "type": "function"
    },
    {
      "inputs": [
        {
          "internalType": "address",
          "name": "account",
          "type": "address"
        },
        {
          "internalType": "uint256",
          "name": "id",
          "type": "uint256"
        }
      ],
      "name": "balanceOf",
      "outputs": [
        {
          "internalType": "uint256",
          "name": "",
          "type": "uint256"
        }
      ],
      "stateMutability": "view",
      "type": "function"
    },
    {
      "inputs": [
        {
          "internalType": "address[]",
          "name": "accounts",
          "type": "address[]"
        },
        {
          "internalType": "uint256[]",
          "name": "ids",
          "type": "uint256[]"
        }
      ],
      "name": "balanceOfBatch",
      "outputs": [
        {
          "internalType": "uint256[]",
          "name": "",
          "type": "uint256[]"
        }
      ],
      "stateMutability": "view",
      "type": "function"
    },
    {
      "inputs": [
        {
          "internalType": "address",
          "name": "_address",
          "type": "address"
        }
      ],
      "name": "getItems",
      "outputs": [
        {
          "components": [
            {
              "internalType": "uint8",
              "name": "tier",
              "type": "uint8"
            },
            {
              "internalType": "string",
              "name": "name",
              "type": "string"
            },
            {
              "internalType": "string",
              "name": "description",
              "type": "string"
            },
            {
              "internalType": "string",
              "name": "image",
              "type": "string"
            },
            {
              "internalType": "string",
              "name": "animationUrl",
              "type": "string"
            },
            {
              "internalType": "uint256[]",
              "name": "beats",
              "type": "uint256[]"
            }
          ],
          "internalType": "struct IGameItems.GameItemMetadata[]",
          "name": "",
          "type": "tuple[]"
        }
      ],
      "stateMutability": "view",
      "type": "function"
    },
    {
      "inputs": [],
      "name": "getNumberItems",
      "outputs": [
        {
          "internalType": "uint256",
          "name": "",
          "type": "uint256"
        }
      ],
      "stateMutability": "view",
      "type": "function"
    },
    {
      "inputs": [],
      "name": "getNumberPlayers",
      "outputs": [
        {
          "internalType": "uint256",
          "name": "",
          "type": "uint256"
        }
      ],
      "stateMutability": "view",
      "type": "function"
    },
    {
      "inputs": [
        {
          "internalType": "uint256",
          "name": "tokenId",
          "type": "uint256"
        }
      ],
      "name": "getOnChainToken",
      "outputs": [
        {
          "components": [
            {
              "internalType": "uint8",
              "name": "tier",
              "type": "uint8"
            },
            {
              "internalType": "string",
              "name": "name",
              "type": "string"
            },
            {
              "internalType": "string",
              "name": "description",
              "type": "string"
            },
            {
              "internalType": "string",
              "name": "image",
              "type": "string"
            },
            {
              "internalType": "string",
              "name": "animationUrl",
              "type": "string"
            },
            {
              "internalType": "uint256[]",
              "name": "beats",
              "type": "uint256[]"
            }
          ],
          "internalType": "struct IGameItems.GameItemMetadata",
          "name": "",
          "type": "tuple"
        }
      ],
      "stateMutability": "view",
      "type": "function"
    },
    {
      "inputs": [
        {
          "internalType": "bytes32",
          "name": "role",
          "type": "bytes32"
        }
      ],
      "name": "getRoleAdmin",
      "outputs": [
        {
          "internalType": "bytes32",
          "name": "",
          "type": "bytes32"
        }
      ],
      "stateMutability": "view",
      "type": "function"
    },
    {
      "inputs": [
        {
          "internalType": "bytes32",
          "name": "role",
          "type": "bytes32"
        },
        {
          "internalType": "uint256",
          "name": "index",
          "type": "uint256"
        }
      ],
      "name": "getRoleMember",
      "outputs": [
        {
          "internalType": "address",
          "name": "",
          "type": "address"
        }
      ],
      "stateMutability": "view",
      "type": "function"
    },
    {
      "inputs": [
        {
          "internalType": "bytes32",
          "name": "role",
          "type": "bytes32"
        }
      ],
      "name": "getRoleMemberCount",
      "outputs": [
        {
          "internalType": "uint256",
          "name": "",
          "type": "uint256"
        }
      ],
      "stateMutability": "view",
      "type": "function"
    },
    {
      "inputs": [],
      "name": "getUnlockDate",
      "outputs": [
        {
          "internalType": "uint256",
          "name": "",
          "type": "uint256"
        }
      ],
      "stateMutability": "view",
      "type": "function"
    },
    {
      "inputs": [
        {
          "internalType": "bytes32",
          "name": "role",
          "type": "bytes32"
        },
        {
          "internalType": "address",
          "name": "account",
          "type": "address"
        }
      ],
      "name": "grantRole",
      "outputs": [],
      "stateMutability": "nonpayable",
      "type": "function"
    },
    {
      "inputs": [
        {
          "internalType": "bytes32",
          "name": "role",
          "type": "bytes32"
        },
        {
          "internalType": "address",
          "name": "account",
          "type": "address"
        }
      ],
      "name": "hasRole",
      "outputs": [
        {
          "internalType": "bool",
          "name": "",
          "type": "bool"
        }
      ],
      "stateMutability": "view",
      "type": "function"
    },
    {
      "inputs": [
        {
          "internalType": "address payable",
          "name": "receiver",
          "type": "address"
        }
      ],
      "name": "initialMint",
      "outputs": [],
      "stateMutability": "payable",
      "type": "function"
    },
    {
      "inputs": [
        {
          "internalType": "address",
          "name": "account",
          "type": "address"
        },
        {
          "internalType": "address",
          "name": "operator",
          "type": "address"
        }
      ],
      "name": "isApprovedForAll",
      "outputs": [
        {
          "internalType": "bool",
          "name": "",
          "type": "bool"
        }
      ],
      "stateMutability": "view",
      "type": "function"
    },
    {
      "inputs": [],
      "name": "isLocked",
      "outputs": [
        {
          "internalType": "bool",
          "name": "",
          "type": "bool"
        }
      ],
      "stateMutability": "view",
      "type": "function"
    },
    {
      "inputs": [],
      "name": "playoff",
      "outputs": [
        {
          "internalType": "bool",
          "name": "",
          "type": "bool"
        }
      ],
      "stateMutability": "view",
      "type": "function"
    },
    {
      "inputs": [
        {
          "internalType": "bytes32",
          "name": "role",
          "type": "bytes32"
        },
        {
          "internalType": "address",
          "name": "account",
          "type": "address"
        }
      ],
      "name": "renounceRole",
      "outputs": [],
      "stateMutability": "nonpayable",
      "type": "function"
    },
    {
      "inputs": [
        {
          "internalType": "bytes32",
          "name": "role",
          "type": "bytes32"
        },
        {
          "internalType": "address",
          "name": "account",
          "type": "address"
        }
      ],
      "name": "revokeRole",
      "outputs": [],
      "stateMutability": "nonpayable",
      "type": "function"
    },
    {
      "inputs": [
        {
          "internalType": "address",
          "name": "from",
          "type": "address"
        },
        {
          "internalType": "address",
          "name": "to",
          "type": "address"
        },
        {
          "internalType": "uint256[]",
          "name": "ids",
          "type": "uint256[]"
        },
        {
          "internalType": "uint256[]",
          "name": "amounts",
          "type": "uint256[]"
        },
        {
          "internalType": "bytes",
          "name": "data",
          "type": "bytes"
        }
      ],
      "name": "safeBatchTransferFrom",
      "outputs": [],
      "stateMutability": "nonpayable",
      "type": "function"
    },
    {
      "inputs": [
        {
          "internalType": "address",
          "name": "from",
          "type": "address"
        },
        {
          "internalType": "address",
          "name": "to",
          "type": "address"
        },
        {
          "internalType": "uint256",
          "name": "id",
          "type": "uint256"
        },
        {
          "internalType": "uint256",
          "name": "amount",
          "type": "uint256"
        },
        {
          "internalType": "bytes",
          "name": "data",
          "type": "bytes"
        }
      ],
      "name": "safeTransferFrom",
      "outputs": [],
      "stateMutability": "nonpayable",
      "type": "function"
    },
    {
      "inputs": [
        {
          "internalType": "address",
          "name": "operator",
          "type": "address"
        },
        {
          "internalType": "bool",
          "name": "approved",
          "type": "bool"
        }
      ],
      "name": "setApprovalForAll",
      "outputs": [],
      "stateMutability": "nonpayable",
      "type": "function"
    },
    {
      "inputs": [
        {
          "internalType": "bytes4",
          "name": "interfaceId",
          "type": "bytes4"
        }
      ],
      "name": "supportsInterface",
      "outputs": [
        {
          "internalType": "bool",
          "name": "",
          "type": "bool"
        }
      ],
      "stateMutability": "view",
      "type": "function"
    },
    {
      "inputs": [
        {
          "internalType": "uint256",
          "name": "tokenId",
          "type": "uint256"
        }
      ],
      "name": "uri",
      "outputs": [
        {
          "internalType": "string",
          "name": "",
          "type": "string"
        }
      ],
      "stateMutability": "view",
      "type": "function"
    },
    {
      "inputs": [
        {
          "internalType": "address",
          "name": "receiever",
          "type": "address"
        },
        {
          "internalType": "uint256",
          "name": "tokenId",
          "type": "uint256"
        }
      ],
      "name": "winBattle",
      "outputs": [],
      "stateMutability": "nonpayable",
      "type": "function"
    }
  ],
  "transactionHash": "0x5995776932d19d956c3ec51b1bf6536bf810b93e58fdadd0f87e12246b295c68",
  "args": [
    "0x90C9eCc0D4a842BB97347D745977B156e83d939c"
  ],
  "numDeployments": 5,
  "solcInputHash": "8f44e4f37c5465c556c7716d8aa86ff4",
  "bytecode": "0x60a060405260405180602001604052806000815250600590805190602001906200002b929190620004f9565b506362d9f6cc600b553480156200004157600080fd5b50604051620061dc380380620061dc833981810160405281019062000067919062000613565b6040518060400160405280600981526020017f47616d654974656d730000000000000000000000000000000000000000000000815250620000ae81620001c560201b60201c565b50620000c46000801b33620001e160201b60201c565b620000f67fa49807205ce4d355092ef5a8a18f56e8913cf4a201fbe287825b095693c2177533620001e160201b60201c565b620001287f9f2df0fed2c77648de5860a4cc508cd0818c85b8b8a1ab4ceeef8d981c8956a633620001e160201b60201c565b6200017a7f126ac3dfb0f83057bc2f965522f6bbd57f77c27a938e44ca37b53763355c61757f9f2df0fed2c77648de5860a4cc508cd0818c85b8b8a1ab4ceeef8d981c8956a6620001f760201b60201c565b8073ffffffffffffffffffffffffffffffffffffffff1660808173ffffffffffffffffffffffffffffffffffffffff16815250506000600781905550600060088190555050620006aa565b8060049080519060200190620001dd929190620004f9565b5050565b620001f382826200025a60201b60201c565b5050565b60006200020a83620002a260201b60201c565b905081600080858152602001908152602001600020600101819055508181847fbd79b86ffe0ab8e8776151514217cd7cacd52c909f66475c3af44e129f0b00ff60405160405180910390a4505050565b620002718282620002c160201b62001f251760201c565b6200029d8160016000858152602001908152602001600020620003b260201b620020051790919060201c565b505050565b6000806000838152602001908152602001600020600101549050919050565b620002d38282620003ea60201b60201c565b620003ae57600160008084815260200190815260200160002060000160008373ffffffffffffffffffffffffffffffffffffffff1673ffffffffffffffffffffffffffffffffffffffff16815260200190815260200160002060006101000a81548160ff021916908315150217905550620003536200045460201b60201c565b73ffffffffffffffffffffffffffffffffffffffff168173ffffffffffffffffffffffffffffffffffffffff16837f2f8788117e7eff1d82e926ec794901d17c78024a50270940304540a733656f0d60405160405180910390a45b5050565b6000620003e2836000018373ffffffffffffffffffffffffffffffffffffffff1660001b6200045c60201b60201c565b905092915050565b600080600084815260200190815260200160002060000160008373ffffffffffffffffffffffffffffffffffffffff1673ffffffffffffffffffffffffffffffffffffffff16815260200190815260200160002060009054906101000a900460ff16905092915050565b600033905090565b6000620004708383620004d660201b60201c565b620004cb578260000182908060018154018082558091505060019003906000526020600020016000909190919091505582600001805490508360010160008481526020019081526020016000208190555060019050620004d0565b600090505b92915050565b600080836001016000848152602001908152602001600020541415905092915050565b828054620005079062000674565b90600052602060002090601f0160209004810192826200052b576000855562000577565b82601f106200054657805160ff191683800117855562000577565b8280016001018555821562000577579182015b828111156200057657825182559160200191906001019062000559565b5b5090506200058691906200058a565b5090565b5b80821115620005a55760008160009055506001016200058b565b5090565b600080fd5b600073ffffffffffffffffffffffffffffffffffffffff82169050919050565b6000620005db82620005ae565b9050919050565b620005ed81620005ce565b8114620005f957600080fd5b50565b6000815190506200060d81620005e2565b92915050565b6000602082840312156200062c576200062b620005a9565b5b60006200063c84828501620005fc565b91505092915050565b7f4e487b7100000000000000000000000000000000000000000000000000000000600052602260045260246000fd5b600060028204905060018216806200068d57607f821691505b60208210811415620006a457620006a362000645565b5b50919050565b608051615b16620006c6600039600061255a0152615b166000f3fe6080604052600436106101cc5760003560e01c8063a22cb465116100f7578063cee0eb2d11610095578063e985e9c511610064578063e985e9c5146106c6578063f242432a14610703578063fe9e1b531461072c578063ff3c09e114610757576101cc565b8063cee0eb2d1461061e578063d539139314610649578063d547741f14610674578063d812649d1461069d576101cc565b8063b2c79c37116100d1578063b2c79c3714610571578063c268f9ba1461059a578063c594c916146105b6578063ca15c873146105e1576101cc565b8063a22cb465146104f2578063a4e2d6341461051b578063ada015da14610546576101cc565b80634d7366551161016f5780638119109e1161013e5780638119109e146104225780639010d07c1461044d57806391d148541461048a578063a217fddf146104c7576101cc565b80634d736655146103405780634e1273f41461037d57806375b238fc146103ba5780637856ac40146103e5576101cc565b8063248a9ca3116101ab578063248a9ca3146102885780632eb2c2d6146102c55780632f2ff15d146102ee57806336568abe14610317576101cc565b8062fdd58e146101d157806301ffc9a71461020e5780630e89341c1461024b575b600080fd5b3480156101dd57600080fd5b506101f860048036038101906101f39190613cc4565b610782565b6040516102059190613d13565b60405180910390f35b34801561021a57600080fd5b5061023560048036038101906102309190613d86565b61084c565b6040516102429190613dce565b60405180910390f35b34801561025757600080fd5b50610272600480360381019061026d9190613de9565b61085e565b60405161027f9190613eaf565b60405180910390f35b34801561029457600080fd5b506102af60048036038101906102aa9190613f07565b610943565b6040516102bc9190613f43565b60405180910390f35b3480156102d157600080fd5b506102ec60048036038101906102e7919061415b565b610962565b005b3480156102fa57600080fd5b506103156004803603810190610310919061422a565b610a03565b005b34801561032357600080fd5b5061033e6004803603810190610339919061422a565b610a24565b005b34801561034c57600080fd5b506103676004803603810190610362919061426a565b610aa7565b6040516103749190614522565b60405180910390f35b34801561038957600080fd5b506103a4600480360381019061039f9190614607565b610e37565b6040516103b191906146ee565b60405180910390f35b3480156103c657600080fd5b506103cf610f50565b6040516103dc9190613f43565b60405180910390f35b3480156103f157600080fd5b5061040c60048036038101906104079190613de9565b610f74565b60405161041991906147b5565b60405180910390f35b34801561042e57600080fd5b5061043761125e565b6040516104449190613dce565b60405180910390f35b34801561045957600080fd5b50610474600480360381019061046f91906147d7565b611318565b6040516104819190614826565b60405180910390f35b34801561049657600080fd5b506104b160048036038101906104ac919061422a565b611347565b6040516104be9190613dce565b60405180910390f35b3480156104d357600080fd5b506104dc6113b1565b6040516104e99190613f43565b60405180910390f35b3480156104fe57600080fd5b506105196004803603810190610514919061486d565b6113b8565b005b34801561052757600080fd5b506105306113ce565b60405161053d9190613dce565b60405180910390f35b34801561055257600080fd5b5061055b6113db565b6040516105689190613d13565b60405180910390f35b34801561057d57600080fd5b5061059860048036038101906105939190613cc4565b6113e5565b005b6105b460048036038101906105af91906148eb565b61169f565b005b3480156105c257600080fd5b506105cb611b2b565b6040516105d89190613d13565b60405180910390f35b3480156105ed57600080fd5b5061060860048036038101906106039190613f07565b611b35565b6040516106159190613d13565b60405180910390f35b34801561062a57600080fd5b50610633611b59565b6040516106409190613f43565b60405180910390f35b34801561065557600080fd5b5061065e611b7d565b60405161066b9190613f43565b60405180910390f35b34801561068057600080fd5b5061069b6004803603810190610696919061422a565b611ba1565b005b3480156106a957600080fd5b506106c460048036038101906106bf91906149e5565b611bc2565b005b3480156106d257600080fd5b506106ed60048036038101906106e89190614b2f565b611dc2565b6040516106fa9190613dce565b60405180910390f35b34801561070f57600080fd5b5061072a60048036038101906107259190614b6f565b611e56565b005b34801561073857600080fd5b50610741611ef7565b60405161074e9190613d13565b60405180910390f35b34801561076357600080fd5b5061076c611f01565b6040516107799190613f43565b60405180910390f35b60008073ffffffffffffffffffffffffffffffffffffffff168373ffffffffffffffffffffffffffffffffffffffff1614156107f3576040517f08c379a00000000000000000000000000000000000000000000000000000000081526004016107ea90614c78565b60405180910390fd5b6002600083815260200190815260200160002060008473ffffffffffffffffffffffffffffffffffffffff1673ffffffffffffffffffffffffffffffffffffffff16815260200190815260200160002054905092915050565b600061085782612035565b9050919050565b6060600060066000848152602001908152602001600020805461088090614cc7565b80601f01602080910402602001604051908101604052809291908181526020018280546108ac90614cc7565b80156108f95780601f106108ce576101008083540402835291602001916108f9565b820191906000526020600020905b8154815290600101906020018083116108dc57829003601f168201915b5050505050905060008151116109175761091283612117565b61093b565b60058160405160200161092b929190614dc9565b6040516020818303038152906040525b915050919050565b6000806000838152602001908152602001600020600101549050919050565b61096a6121ab565b73ffffffffffffffffffffffffffffffffffffffff168573ffffffffffffffffffffffffffffffffffffffff1614806109b057506109af856109aa6121ab565b611dc2565b5b6109ef576040517f08c379a00000000000000000000000000000000000000000000000000000000081526004016109e690614e5f565b60405180910390fd5b6109fc85858585856121b3565b5050505050565b610a0c82610943565b610a15816124d8565b610a1f83836124ec565b505050565b610a2c6121ab565b73ffffffffffffffffffffffffffffffffffffffff168173ffffffffffffffffffffffffffffffffffffffff1614610a99576040517f08c379a0000000000000000000000000000000000000000000000000000000008152600401610a9090614ef1565b60405180910390fd5b610aa38282612520565b5050565b6060600060075467ffffffffffffffff811115610ac757610ac6613f63565b5b604051908082528060200260200182016040528015610b0057816020015b610aed613af3565b815260200190600190039081610ae55790505b50905060005b8151811015610e2d576001610b1b8583610782565b10610e1a57600960008281526020019081526020016000206040518060c00160405290816000820160009054906101000a900460ff1660ff1660ff168152602001600182018054610b6b90614cc7565b80601f0160208091040260200160405190810160405280929190818152602001828054610b9790614cc7565b8015610be45780601f10610bb957610100808354040283529160200191610be4565b820191906000526020600020905b815481529060010190602001808311610bc757829003601f168201915b50505050508152602001600282018054610bfd90614cc7565b80601f0160208091040260200160405190810160405280929190818152602001828054610c2990614cc7565b8015610c765780601f10610c4b57610100808354040283529160200191610c76565b820191906000526020600020905b815481529060010190602001808311610c5957829003601f168201915b50505050508152602001600382018054610c8f90614cc7565b80601f0160208091040260200160405190810160405280929190818152602001828054610cbb90614cc7565b8015610d085780601f10610cdd57610100808354040283529160200191610d08565b820191906000526020600020905b815481529060010190602001808311610ceb57829003601f168201915b50505050508152602001600482018054610d2190614cc7565b80601f0160208091040260200160405190810160405280929190818152602001828054610d4d90614cc7565b8015610d9a5780601f10610d6f57610100808354040283529160200191610d9a565b820191906000526020600020905b815481529060010190602001808311610d7d57829003601f168201915b5050505050815260200160058201805480602002602001604051908101604052809291908181526020018280548015610df257602002820191906000526020600020905b815481526020019060010190808311610dde575b505050505081525050828281518110610e0e57610e0d614f11565b5b60200260200101819052505b8080610e2590614f6f565b915050610b06565b5080915050919050565b60608151835114610e7d576040517f08c379a0000000000000000000000000000000000000000000000000000000008152600401610e749061502a565b60405180910390fd5b6000835167ffffffffffffffff811115610e9a57610e99613f63565b5b604051908082528060200260200182016040528015610ec85781602001602082028036833780820191505090505b50905060005b8451811015610f4557610f15858281518110610eed57610eec614f11565b5b6020026020010151858381518110610f0857610f07614f11565b5b6020026020010151610782565b828281518110610f2857610f27614f11565b5b60200260200101818152505080610f3e90614f6f565b9050610ece565b508091505092915050565b7fa49807205ce4d355092ef5a8a18f56e8913cf4a201fbe287825b095693c2177581565b610f7c613af3565b600960008381526020019081526020016000206040518060c00160405290816000820160009054906101000a900460ff1660ff1660ff168152602001600182018054610fc790614cc7565b80601f0160208091040260200160405190810160405280929190818152602001828054610ff390614cc7565b80156110405780601f1061101557610100808354040283529160200191611040565b820191906000526020600020905b81548152906001019060200180831161102357829003601f168201915b5050505050815260200160028201805461105990614cc7565b80601f016020809104026020016040519081016040528092919081815260200182805461108590614cc7565b80156110d25780601f106110a7576101008083540402835291602001916110d2565b820191906000526020600020905b8154815290600101906020018083116110b557829003601f168201915b505050505081526020016003820180546110eb90614cc7565b80601f016020809104026020016040519081016040528092919081815260200182805461111790614cc7565b80156111645780601f1061113957610100808354040283529160200191611164565b820191906000526020600020905b81548152906001019060200180831161114757829003601f168201915b5050505050815260200160048201805461117d90614cc7565b80601f01602080910402602001604051908101604052809291908181526020018280546111a990614cc7565b80156111f65780601f106111cb576101008083540402835291602001916111f6565b820191906000526020600020905b8154815290600101906020018083116111d957829003601f168201915b505050505081526020016005820180548060200260200160405190810160405280929190818152602001828054801561124e57602002820191906000526020600020905b81548152602001906001019080831161123a575b5050505050815250509050919050565b600061128a7f581d7f64a8a641e01714c2dbb65d39f75e5db27e77fac6575785e5201e1b1dec33611347565b6040518060400160405280600d81526020017f4163636573732044656e6965640000000000000000000000000000000000000081525090611301576040517f08c379a00000000000000000000000000000000000000000000000000000000081526004016112f89190613eaf565b60405180910390fd5b506101f461131260006103e8612554565b10905090565b600061133f826001600086815260200190815260200160002061261a90919063ffffffff16565b905092915050565b600080600084815260200190815260200160002060000160008373ffffffffffffffffffffffffffffffffffffffff1673ffffffffffffffffffffffffffffffffffffffff16815260200190815260200160002060009054906101000a900460ff16905092915050565b6000801b81565b6113ca6113c36121ab565b8383612634565b5050565b6000600b54421115905090565b6000600854905090565b61140f7f581d7f64a8a641e01714c2dbb65d39f75e5db27e77fac6575785e5201e1b1dec33611347565b6040518060400160405280600d81526020017f4163636573732044656e6965640000000000000000000000000000000000000081525090611486576040517f08c379a000000000000000000000000000000000000000000000000000000000815260040161147d9190613eaf565b60405180910390fd5b5060006009600083815260200190815260200160002060000160009054906101000a900460ff16905060006114be848360ff166127a1565b90506114ca8484612820565b8080156114db575060028260ff1614155b15611537576114ea8483612840565b8160ff16838573ffffffffffffffffffffffffffffffffffffffff167ffa36168c733b4c601b17553edfb42b696a96fc35572f0eca85e7d3e24cc9560160405160405180910390a4611615565b60008260ff16148061154c575060018260ff16145b80156115615750611560848360ff166128b0565b5b8015611580575061157e84600184611579919061504a565b61292f565b155b1561161457600061159c600184611597919061504a565b61299a565b90506115a88582612820565b6115be856001856115b9919061504a565b612840565b6001836115cb919061504a565b60ff16818673ffffffffffffffffffffffffffffffffffffffff167ffa36168c733b4c601b17553edfb42b696a96fc35572f0eca85e7d3e24cc9560160405160405180910390a4505b5b60028260ff16148015611630575061162e84600361292f565b155b15611699576000611640856129e4565b9050801561169757611653856003612840565b8473ffffffffffffffffffffffffffffffffffffffff167f745c90b656b4aafe296c8ca35aeacfe56cb96c90e1d320e5da643fff1051b6c060405160405180910390a25b505b50505050565b6116c97f9f2df0fed2c77648de5860a4cc508cd0818c85b8b8a1ab4ceeef8d981c8956a633611347565b806116fa57506116f97f126ac3dfb0f83057bc2f965522f6bbd57f77c27a938e44ca37b53763355c617533611347565b5b6040518060400160405280600d81526020017f4163636573732044656e6965640000000000000000000000000000000000000081525090611771576040517f08c379a00000000000000000000000000000000000000000000000000000000081526004016117689190613eaf565b60405180910390fd5b5061177b81612a2f565b6040518060400160405280600f81526020017f416c726561647920506c6179696e670000000000000000000000000000000000815250906117f2576040517f08c379a00000000000000000000000000000000000000000000000000000000081526004016117e99190613eaf565b60405180910390fd5b50600060405180606001604052806000815260200160018152602001600281525090506000604051806060016040528060018152602001600281526020016003815250905060006040518060600160405280600281526020016003815260200160048152509050600060405180606001604052806000815260200160028152602001600481525090506000604051806060016040528060018152602001600381526020016004815250905060006118ab60006004612554565b90506000604051806060016040528060008152602001600081526020016000815250905060008214156119215760005b600381101561191b57611905898983600381106118fb576118fa614f11565b5b6020020151612820565b879150808061191390614f6f565b9150506118db565b50611a69565b60018214156119735760005b600381101561196d576119578988836003811061194d5761194c614f11565b5b6020020151612820565b869150808061196590614f6f565b91505061192d565b50611a68565b60028214156119c55760005b60038110156119bf576119a98987836003811061199f5761199e614f11565b5b6020020151612820565b85915080806119b790614f6f565b91505061197f565b50611a67565b6003821415611a175760005b6003811015611a11576119fb898683600381106119f1576119f0614f11565b5b6020020151612820565b8491508080611a0990614f6f565b9150506119d1565b50611a66565b6004821415611a655760005b6003811015611a6357611a4d89858360038110611a4357611a42614f11565b5b6020020151612820565b8391508080611a5b90614f6f565b915050611a23565b505b5b5b5b5b60086000815480929190611a7c90614f6f565b91905055508773ffffffffffffffffffffffffffffffffffffffff166108fc349081150290604051600060405180830381858888f19350505050158015611ac7573d6000803e3d6000fd5b5080604051611ad6919061512c565b60405180910390208873ffffffffffffffffffffffffffffffffffffffff167f03c6cf41c8b7617d28bfe0b9ff6437547ae24b192cae60ec45f63977ba9ca56760405160405180910390a35050505050505050565b6000600b54905090565b6000611b5260016000848152602001908152602001600020612a7b565b9050919050565b7f126ac3dfb0f83057bc2f965522f6bbd57f77c27a938e44ca37b53763355c617581565b7f9f2df0fed2c77648de5860a4cc508cd0818c85b8b8a1ab4ceeef8d981c8956a681565b611baa82610943565b611bb3816124d8565b611bbd8383612520565b505050565b611bec7fa49807205ce4d355092ef5a8a18f56e8913cf4a201fbe287825b095693c2177533611347565b6040518060400160405280600d81526020017f4163636573732044656e6965640000000000000000000000000000000000000081525090611c63576040517f08c379a0000000000000000000000000000000000000000000000000000000008152600401611c5a9190613eaf565b60405180910390fd5b506000600754905060006040518060c001604052808a60ff168152602001898152602001888152602001878152602001868152602001858152509050806009600084815260200190815260200160002060008201518160000160006101000a81548160ff021916908360ff1602179055506020820151816001019080519060200190611cf0929190613b2c565b506040820151816002019080519060200190611d0d929190613b2c565b506060820151816003019080519060200190611d2a929190613b2c565b506080820151816004019080519060200190611d47929190613b2c565b5060a0820151816005019080519060200190611d64929190613bb2565b50905050611d728284612a90565b60076000815480929190611d8590614f6f565b9190505550817f50bfe36855967d446b8ea65825360cacc53d0ec60543567ebfad26a51a2cfc4660405160405180910390a2505050505050505050565b6000600360008473ffffffffffffffffffffffffffffffffffffffff1673ffffffffffffffffffffffffffffffffffffffff16815260200190815260200160002060008373ffffffffffffffffffffffffffffffffffffffff1673ffffffffffffffffffffffffffffffffffffffff16815260200190815260200160002060009054906101000a900460ff16905092915050565b611e5e6121ab565b73ffffffffffffffffffffffffffffffffffffffff168573ffffffffffffffffffffffffffffffffffffffff161480611ea45750611ea385611e9e6121ab565b611dc2565b5b611ee3576040517f08c379a0000000000000000000000000000000000000000000000000000000008152600401611eda90614e5f565b60405180910390fd5b611ef08585858585612afc565b5050505050565b6000600754905090565b7f581d7f64a8a641e01714c2dbb65d39f75e5db27e77fac6575785e5201e1b1dec81565b611f2f8282611347565b61200157600160008084815260200190815260200160002060000160008373ffffffffffffffffffffffffffffffffffffffff1673ffffffffffffffffffffffffffffffffffffffff16815260200190815260200160002060006101000a81548160ff021916908315150217905550611fa66121ab565b73ffffffffffffffffffffffffffffffffffffffff168173ffffffffffffffffffffffffffffffffffffffff16837f2f8788117e7eff1d82e926ec794901d17c78024a50270940304540a733656f0d60405160405180910390a45b5050565b600061202d836000018373ffffffffffffffffffffffffffffffffffffffff1660001b612d9b565b905092915050565b60007fd9b67a26000000000000000000000000000000000000000000000000000000007bffffffffffffffffffffffffffffffffffffffffffffffffffffffff1916827bffffffffffffffffffffffffffffffffffffffffffffffffffffffff1916148061210057507f0e89341c000000000000000000000000000000000000000000000000000000007bffffffffffffffffffffffffffffffffffffffffffffffffffffffff1916827bffffffffffffffffffffffffffffffffffffffffffffffffffffffff1916145b80612110575061210f82612e0b565b5b9050919050565b60606004805461212690614cc7565b80601f016020809104026020016040519081016040528092919081815260200182805461215290614cc7565b801561219f5780601f106121745761010080835404028352916020019161219f565b820191906000526020600020905b81548152906001019060200180831161218257829003601f168201915b50505050509050919050565b600033905090565b81518351146121f7576040517f08c379a00000000000000000000000000000000000000000000000000000000081526004016121ee906151b9565b60405180910390fd5b600073ffffffffffffffffffffffffffffffffffffffff168473ffffffffffffffffffffffffffffffffffffffff161415612267576040517f08c379a000000000000000000000000000000000000000000000000000000000815260040161225e9061524b565b60405180910390fd5b60006122716121ab565b9050612281818787878787612e85565b60005b84518110156124355760008582815181106122a2576122a1614f11565b5b6020026020010151905060008583815181106122c1576122c0614f11565b5b6020026020010151905060006002600084815260200190815260200160002060008b73ffffffffffffffffffffffffffffffffffffffff1673ffffffffffffffffffffffffffffffffffffffff16815260200190815260200160002054905081811015612363576040517f08c379a000000000000000000000000000000000000000000000000000000000815260040161235a906152dd565b60405180910390fd5b8181036002600085815260200190815260200160002060008c73ffffffffffffffffffffffffffffffffffffffff1673ffffffffffffffffffffffffffffffffffffffff16815260200190815260200160002081905550816002600085815260200190815260200160002060008b73ffffffffffffffffffffffffffffffffffffffff1673ffffffffffffffffffffffffffffffffffffffff168152602001908152602001600020600082825461241a91906152fd565b925050819055505050508061242e90614f6f565b9050612284565b508473ffffffffffffffffffffffffffffffffffffffff168673ffffffffffffffffffffffffffffffffffffffff168273ffffffffffffffffffffffffffffffffffffffff167f4a39dc06d4c0dbc64b70af90fd698a233a518aa5d07e595d983b8c0526c8f7fb87876040516124ac929190615353565b60405180910390a46124c2818787878787612e8d565b6124d0818787878787612e95565b505050505050565b6124e9816124e46121ab565b61307c565b50565b6124f68282611f25565b61251b816001600085815260200190815260200160002061200590919063ffffffff16565b505050565b61252a8282613119565b61254f81600160008581526020019081526020016000206131fa90919063ffffffff16565b505050565b600080827f000000000000000000000000000000000000000000000000000000000000000073ffffffffffffffffffffffffffffffffffffffff1663aacc5a176040518163ffffffff1660e01b815260040160206040518083038186803b1580156125be57600080fd5b505afa1580156125d2573d6000803e3d6000fd5b505050506040513d601f19601f820116820180604052508101906125f6919061539f565b60001c61260391906153fb565b8461260e91906152fd565b90508091505092915050565b6000612629836000018361322a565b60001c905092915050565b8173ffffffffffffffffffffffffffffffffffffffff168373ffffffffffffffffffffffffffffffffffffffff1614156126a3576040517f08c379a000000000000000000000000000000000000000000000000000000000815260040161269a9061549e565b60405180910390fd5b80600360008573ffffffffffffffffffffffffffffffffffffffff1673ffffffffffffffffffffffffffffffffffffffff16815260200190815260200160002060008473ffffffffffffffffffffffffffffffffffffffff1673ffffffffffffffffffffffffffffffffffffffff16815260200190815260200160002060006101000a81548160ff0219169083151502179055508173ffffffffffffffffffffffffffffffffffffffff168373ffffffffffffffffffffffffffffffffffffffff167f17307eab39ab6107e8899845ad3d59bd9653f200f220920489ca2b5937696c31836040516127949190613dce565b60405180910390a3505050565b600080600083146127b35760056127b6565b60005b60ff16905060008084146127cb5760096127ce565b60055b60ff16905060008290505b818110156128125760006127ed8783610782565b11156127ff576000935050505061281a565b808061280a90614f6f565b9150506127d9565b506001925050505b92915050565b61283c8282600160405180602001604052806000815250613255565b5050565b6001600a60008360ff16815260200190815260200160002060008473ffffffffffffffffffffffffffffffffffffffff1673ffffffffffffffffffffffffffffffffffffffff16815260200190815260200160002060006101000a81548160ff0219169083151502179055505050565b600080600083146128c25760056128c5565b60005b60ff16905060008084146128da5760096128dd565b60055b60ff16905060008290505b818110156129215760006128fc8783610782565b141561290e5760009350505050612929565b808061291990614f6f565b9150506128e8565b506001925050505b92915050565b6000600a60008360ff16815260200190815260200160002060008473ffffffffffffffffffffffffffffffffffffffff1673ffffffffffffffffffffffffffffffffffffffff16815260200190815260200160002060009054906101000a900460ff16905092915050565b600060018260ff1614156129bb576129b460056003612554565b90506129df565b60028260ff1614156129da576129d360096002612554565b90506129df565b600090505b919050565b600080600990505b600c811015612a24576000612a018483610782565b1415612a11576000915050612a2a565b8080612a1c90614f6f565b9150506129ec565b50600190505b919050565b600080600090505b600754811015612a70576000612a4d8483610782565b1115612a5d576000915050612a76565b8080612a6890614f6f565b915050612a37565b50600190505b919050565b6000612a8982600001613407565b9050919050565b80600660008481526020019081526020016000209080519060200190612ab7929190613b2c565b50817f6bb7ff708619ba0610cba295a58592e0451dee2622938c8755667688daf3529b612ae38461085e565b604051612af09190613eaf565b60405180910390a25050565b600073ffffffffffffffffffffffffffffffffffffffff168473ffffffffffffffffffffffffffffffffffffffff161415612b6c576040517f08c379a0000000000000000000000000000000000000000000000000000000008152600401612b639061524b565b60405180910390fd5b6000612b766121ab565b90506000612b8385613418565b90506000612b9085613418565b9050612ba0838989858589612e85565b60006002600088815260200190815260200160002060008a73ffffffffffffffffffffffffffffffffffffffff1673ffffffffffffffffffffffffffffffffffffffff16815260200190815260200160002054905085811015612c38576040517f08c379a0000000000000000000000000000000000000000000000000000000008152600401612c2f906152dd565b60405180910390fd5b8581036002600089815260200190815260200160002060008b73ffffffffffffffffffffffffffffffffffffffff1673ffffffffffffffffffffffffffffffffffffffff16815260200190815260200160002081905550856002600089815260200190815260200160002060008a73ffffffffffffffffffffffffffffffffffffffff1673ffffffffffffffffffffffffffffffffffffffff1681526020019081526020016000206000828254612cef91906152fd565b925050819055508773ffffffffffffffffffffffffffffffffffffffff168973ffffffffffffffffffffffffffffffffffffffff168573ffffffffffffffffffffffffffffffffffffffff167fc3d58168c5ae7397731d063d5bbf3d657854427343f4c083240f7aacaa2d0f628a8a604051612d6c9291906154be565b60405180910390a4612d82848a8a86868a612e8d565b612d90848a8a8a8a8a613492565b505050505050505050565b6000612da78383613679565b612e00578260000182908060018154018082558091505060019003906000526020600020016000909190919091505582600001805490508360010160008481526020019081526020016000208190555060019050612e05565b600090505b92915050565b60007f5a05180f000000000000000000000000000000000000000000000000000000007bffffffffffffffffffffffffffffffffffffffffffffffffffffffff1916827bffffffffffffffffffffffffffffffffffffffffffffffffffffffff19161480612e7e5750612e7d8261369c565b5b9050919050565b505050505050565b505050505050565b612eb48473ffffffffffffffffffffffffffffffffffffffff16613716565b15613074578373ffffffffffffffffffffffffffffffffffffffff1663bc197c8187878686866040518663ffffffff1660e01b8152600401612efa95949392919061553c565b602060405180830381600087803b158015612f1457600080fd5b505af1925050508015612f4557506040513d601f19601f82011682018060405250810190612f4291906155b9565b60015b612feb57612f516155f3565b806308c379a01415612fae5750612f66615615565b80612f715750612fb0565b806040517f08c379a0000000000000000000000000000000000000000000000000000000008152600401612fa59190613eaf565b60405180910390fd5b505b6040517f08c379a0000000000000000000000000000000000000000000000000000000008152600401612fe29061571d565b60405180910390fd5b63bc197c8160e01b7bffffffffffffffffffffffffffffffffffffffffffffffffffffffff1916817bffffffffffffffffffffffffffffffffffffffffffffffffffffffff191614613072576040517f08c379a0000000000000000000000000000000000000000000000000000000008152600401613069906157af565b60405180910390fd5b505b505050505050565b6130868282611347565b613115576130ab8173ffffffffffffffffffffffffffffffffffffffff166014613739565b6130b98360001c6020613739565b6040516020016130ca929190615867565b6040516020818303038152906040526040517f08c379a000000000000000000000000000000000000000000000000000000000815260040161310c9190613eaf565b60405180910390fd5b5050565b6131238282611347565b156131f657600080600084815260200190815260200160002060000160008373ffffffffffffffffffffffffffffffffffffffff1673ffffffffffffffffffffffffffffffffffffffff16815260200190815260200160002060006101000a81548160ff02191690831515021790555061319b6121ab565b73ffffffffffffffffffffffffffffffffffffffff168173ffffffffffffffffffffffffffffffffffffffff16837ff6391f5c32d9c69d2a47ea670b442974b53935d1edc7fd64eb21e047a839171b60405160405180910390a45b5050565b6000613222836000018373ffffffffffffffffffffffffffffffffffffffff1660001b613975565b905092915050565b600082600001828154811061324257613241614f11565b5b9060005260206000200154905092915050565b600073ffffffffffffffffffffffffffffffffffffffff168473ffffffffffffffffffffffffffffffffffffffff1614156132c5576040517f08c379a00000000000000000000000000000000000000000000000000000000081526004016132bc90615913565b60405180910390fd5b60006132cf6121ab565b905060006132dc85613418565b905060006132e985613418565b90506132fa83600089858589612e85565b846002600088815260200190815260200160002060008973ffffffffffffffffffffffffffffffffffffffff1673ffffffffffffffffffffffffffffffffffffffff168152602001908152602001600020600082825461335a91906152fd565b925050819055508673ffffffffffffffffffffffffffffffffffffffff16600073ffffffffffffffffffffffffffffffffffffffff168473ffffffffffffffffffffffffffffffffffffffff167fc3d58168c5ae7397731d063d5bbf3d657854427343f4c083240f7aacaa2d0f6289896040516133d89291906154be565b60405180910390a46133ef83600089858589612e8d565b6133fe83600089898989613492565b50505050505050565b600081600001805490509050919050565b60606000600167ffffffffffffffff81111561343757613436613f63565b5b6040519080825280602002602001820160405280156134655781602001602082028036833780820191505090505b509050828160008151811061347d5761347c614f11565b5b60200260200101818152505080915050919050565b6134b18473ffffffffffffffffffffffffffffffffffffffff16613716565b15613671578373ffffffffffffffffffffffffffffffffffffffff1663f23a6e6187878686866040518663ffffffff1660e01b81526004016134f7959493929190615933565b602060405180830381600087803b15801561351157600080fd5b505af192505050801561354257506040513d601f19601f8201168201806040525081019061353f91906155b9565b60015b6135e85761354e6155f3565b806308c379a014156135ab5750613563615615565b8061356e57506135ad565b806040517f08c379a00000000000000000000000000000000000000000000000000000000081526004016135a29190613eaf565b60405180910390fd5b505b6040517f08c379a00000000000000000000000000000000000000000000000000000000081526004016135df9061571d565b60405180910390fd5b63f23a6e6160e01b7bffffffffffffffffffffffffffffffffffffffffffffffffffffffff1916817bffffffffffffffffffffffffffffffffffffffffffffffffffffffff19161461366f576040517f08c379a0000000000000000000000000000000000000000000000000000000008152600401613666906157af565b60405180910390fd5b505b505050505050565b600080836001016000848152602001908152602001600020541415905092915050565b60007f7965db0b000000000000000000000000000000000000000000000000000000007bffffffffffffffffffffffffffffffffffffffffffffffffffffffff1916827bffffffffffffffffffffffffffffffffffffffffffffffffffffffff1916148061370f575061370e82613a89565b5b9050919050565b6000808273ffffffffffffffffffffffffffffffffffffffff163b119050919050565b60606000600283600261374c919061598d565b61375691906152fd565b67ffffffffffffffff81111561376f5761376e613f63565b5b6040519080825280601f01601f1916602001820160405280156137a15781602001600182028036833780820191505090505b5090507f3000000000000000000000000000000000000000000000000000000000000000816000815181106137d9576137d8614f11565b5b60200101907effffffffffffffffffffffffffffffffffffffffffffffffffffffffffffff1916908160001a9053507f78000000000000000000000000000000000000000000000000000000000000008160018151811061383d5761383c614f11565b5b60200101907effffffffffffffffffffffffffffffffffffffffffffffffffffffffffffff1916908160001a9053506000600184600261387d919061598d565b61388791906152fd565b90505b6001811115613927577f3031323334353637383961626364656600000000000000000000000000000000600f8616601081106138c9576138c8614f11565b5b1a60f81b8282815181106138e0576138df614f11565b5b60200101907effffffffffffffffffffffffffffffffffffffffffffffffffffffffffffff1916908160001a905350600485901c945080613920906159e7565b905061388a565b506000841461396b576040517f08c379a000000000000000000000000000000000000000000000000000000000815260040161396290615a5d565b60405180910390fd5b8091505092915050565b60008083600101600084815260200190815260200160002054905060008114613a7d5760006001826139a79190615a7d565b90506000600186600001805490506139bf9190615a7d565b9050818114613a2e5760008660000182815481106139e0576139df614f11565b5b9060005260206000200154905080876000018481548110613a0457613a03614f11565b5b90600052602060002001819055508387600101600083815260200190815260200160002081905550505b85600001805480613a4257613a41615ab1565b5b600190038181906000526020600020016000905590558560010160008681526020019081526020016000206000905560019350505050613a83565b60009150505b92915050565b60007f01ffc9a7000000000000000000000000000000000000000000000000000000007bffffffffffffffffffffffffffffffffffffffffffffffffffffffff1916827bffffffffffffffffffffffffffffffffffffffffffffffffffffffff1916149050919050565b6040518060c00160405280600060ff16815260200160608152602001606081526020016060815260200160608152602001606081525090565b828054613b3890614cc7565b90600052602060002090601f016020900481019282613b5a5760008555613ba1565b82601f10613b7357805160ff1916838001178555613ba1565b82800160010185558215613ba1579182015b82811115613ba0578251825591602001919060010190613b85565b5b509050613bae9190613bff565b5090565b828054828255906000526020600020908101928215613bee579160200282015b82811115613bed578251825591602001919060010190613bd2565b5b509050613bfb9190613bff565b5090565b5b80821115613c18576000816000905550600101613c00565b5090565b6000604051905090565b600080fd5b600080fd5b600073ffffffffffffffffffffffffffffffffffffffff82169050919050565b6000613c5b82613c30565b9050919050565b613c6b81613c50565b8114613c7657600080fd5b50565b600081359050613c8881613c62565b92915050565b6000819050919050565b613ca181613c8e565b8114613cac57600080fd5b50565b600081359050613cbe81613c98565b92915050565b60008060408385031215613cdb57613cda613c26565b5b6000613ce985828601613c79565b9250506020613cfa85828601613caf565b9150509250929050565b613d0d81613c8e565b82525050565b6000602082019050613d286000830184613d04565b92915050565b60007fffffffff0000000000000000000000000000000000000000000000000000000082169050919050565b613d6381613d2e565b8114613d6e57600080fd5b50565b600081359050613d8081613d5a565b92915050565b600060208284031215613d9c57613d9b613c26565b5b6000613daa84828501613d71565b91505092915050565b60008115159050919050565b613dc881613db3565b82525050565b6000602082019050613de36000830184613dbf565b92915050565b600060208284031215613dff57613dfe613c26565b5b6000613e0d84828501613caf565b91505092915050565b600081519050919050565b600082825260208201905092915050565b60005b83811015613e50578082015181840152602081019050613e35565b83811115613e5f576000848401525b50505050565b6000601f19601f8301169050919050565b6000613e8182613e16565b613e8b8185613e21565b9350613e9b818560208601613e32565b613ea481613e65565b840191505092915050565b60006020820190508181036000830152613ec98184613e76565b905092915050565b6000819050919050565b613ee481613ed1565b8114613eef57600080fd5b50565b600081359050613f0181613edb565b92915050565b600060208284031215613f1d57613f1c613c26565b5b6000613f2b84828501613ef2565b91505092915050565b613f3d81613ed1565b82525050565b6000602082019050613f586000830184613f34565b92915050565b600080fd5b7f4e487b7100000000000000000000000000000000000000000000000000000000600052604160045260246000fd5b613f9b82613e65565b810181811067ffffffffffffffff82111715613fba57613fb9613f63565b5b80604052505050565b6000613fcd613c1c565b9050613fd98282613f92565b919050565b600067ffffffffffffffff821115613ff957613ff8613f63565b5b602082029050602081019050919050565b600080fd5b600061402261401d84613fde565b613fc3565b905080838252602082019050602084028301858111156140455761404461400a565b5b835b8181101561406e578061405a8882613caf565b845260208401935050602081019050614047565b5050509392505050565b600082601f83011261408d5761408c613f5e565b5b813561409d84826020860161400f565b91505092915050565b600080fd5b600067ffffffffffffffff8211156140c6576140c5613f63565b5b6140cf82613e65565b9050602081019050919050565b82818337600083830152505050565b60006140fe6140f9846140ab565b613fc3565b90508281526020810184848401111561411a576141196140a6565b5b6141258482856140dc565b509392505050565b600082601f83011261414257614141613f5e565b5b81356141528482602086016140eb565b91505092915050565b600080600080600060a0868803121561417757614176613c26565b5b600061418588828901613c79565b955050602061419688828901613c79565b945050604086013567ffffffffffffffff8111156141b7576141b6613c2b565b5b6141c388828901614078565b935050606086013567ffffffffffffffff8111156141e4576141e3613c2b565b5b6141f088828901614078565b925050608086013567ffffffffffffffff81111561421157614210613c2b565b5b61421d8882890161412d565b9150509295509295909350565b6000806040838503121561424157614240613c26565b5b600061424f85828601613ef2565b925050602061426085828601613c79565b9150509250929050565b6000602082840312156142805761427f613c26565b5b600061428e84828501613c79565b91505092915050565b600081519050919050565b600082825260208201905092915050565b6000819050602082019050919050565b600060ff82169050919050565b6142d9816142c3565b82525050565b600082825260208201905092915050565b60006142fb82613e16565b61430581856142df565b9350614315818560208601613e32565b61431e81613e65565b840191505092915050565b600081519050919050565b600082825260208201905092915050565b6000819050602082019050919050565b61435e81613c8e565b82525050565b60006143708383614355565b60208301905092915050565b6000602082019050919050565b600061439482614329565b61439e8185614334565b93506143a983614345565b8060005b838110156143da5781516143c18882614364565b97506143cc8361437c565b9250506001810190506143ad565b5085935050505092915050565b600060c0830160008301516143ff60008601826142d0565b506020830151848203602086015261441782826142f0565b9150506040830151848203604086015261443182826142f0565b9150506060830151848203606086015261444b82826142f0565b9150506080830151848203608086015261446582826142f0565b91505060a083015184820360a086015261447f8282614389565b9150508091505092915050565b600061449883836143e7565b905092915050565b6000602082019050919050565b60006144b882614297565b6144c281856142a2565b9350836020820285016144d4856142b3565b8060005b8581101561451057848403895281516144f1858261448c565b94506144fc836144a0565b925060208a019950506001810190506144d8565b50829750879550505050505092915050565b6000602082019050818103600083015261453c81846144ad565b905092915050565b600067ffffffffffffffff82111561455f5761455e613f63565b5b602082029050602081019050919050565b600061458361457e84614544565b613fc3565b905080838252602082019050602084028301858111156145a6576145a561400a565b5b835b818110156145cf57806145bb8882613c79565b8452602084019350506020810190506145a8565b5050509392505050565b600082601f8301126145ee576145ed613f5e565b5b81356145fe848260208601614570565b91505092915050565b6000806040838503121561461e5761461d613c26565b5b600083013567ffffffffffffffff81111561463c5761463b613c2b565b5b614648858286016145d9565b925050602083013567ffffffffffffffff81111561466957614668613c2b565b5b61467585828601614078565b9150509250929050565b600082825260208201905092915050565b600061469b82614329565b6146a5818561467f565b93506146b083614345565b8060005b838110156146e15781516146c88882614364565b97506146d38361437c565b9250506001810190506146b4565b5085935050505092915050565b600060208201905081810360008301526147088184614690565b905092915050565b600060c08301600083015161472860008601826142d0565b506020830151848203602086015261474082826142f0565b9150506040830151848203604086015261475a82826142f0565b9150506060830151848203606086015261477482826142f0565b9150506080830151848203608086015261478e82826142f0565b91505060a083015184820360a08601526147a88282614389565b9150508091505092915050565b600060208201905081810360008301526147cf8184614710565b905092915050565b600080604083850312156147ee576147ed613c26565b5b60006147fc85828601613ef2565b925050602061480d85828601613caf565b9150509250929050565b61482081613c50565b82525050565b600060208201905061483b6000830184614817565b92915050565b61484a81613db3565b811461485557600080fd5b50565b60008135905061486781614841565b92915050565b6000806040838503121561488457614883613c26565b5b600061489285828601613c79565b92505060206148a385828601614858565b9150509250929050565b60006148b882613c30565b9050919050565b6148c8816148ad565b81146148d357600080fd5b50565b6000813590506148e5816148bf565b92915050565b60006020828403121561490157614900613c26565b5b600061490f848285016148d6565b91505092915050565b614921816142c3565b811461492c57600080fd5b50565b60008135905061493e81614918565b92915050565b600067ffffffffffffffff82111561495f5761495e613f63565b5b61496882613e65565b9050602081019050919050565b600061498861498384614944565b613fc3565b9050828152602081018484840111156149a4576149a36140a6565b5b6149af8482856140dc565b509392505050565b600082601f8301126149cc576149cb613f5e565b5b81356149dc848260208601614975565b91505092915050565b600080600080600080600060e0888a031215614a0457614a03613c26565b5b6000614a128a828b0161492f565b975050602088013567ffffffffffffffff811115614a3357614a32613c2b565b5b614a3f8a828b016149b7565b965050604088013567ffffffffffffffff811115614a6057614a5f613c2b565b5b614a6c8a828b016149b7565b955050606088013567ffffffffffffffff811115614a8d57614a8c613c2b565b5b614a998a828b016149b7565b945050608088013567ffffffffffffffff811115614aba57614ab9613c2b565b5b614ac68a828b016149b7565b93505060a088013567ffffffffffffffff811115614ae757614ae6613c2b565b5b614af38a828b01614078565b92505060c088013567ffffffffffffffff811115614b1457614b13613c2b565b5b614b208a828b016149b7565b91505092959891949750929550565b60008060408385031215614b4657614b45613c26565b5b6000614b5485828601613c79565b9250506020614b6585828601613c79565b9150509250929050565b600080600080600060a08688031215614b8b57614b8a613c26565b5b6000614b9988828901613c79565b9550506020614baa88828901613c79565b9450506040614bbb88828901613caf565b9350506060614bcc88828901613caf565b925050608086013567ffffffffffffffff811115614bed57614bec613c2b565b5b614bf98882890161412d565b9150509295509295909350565b7f455243313135353a2061646472657373207a65726f206973206e6f742061207660008201527f616c6964206f776e657200000000000000000000000000000000000000000000602082015250565b6000614c62602a83613e21565b9150614c6d82614c06565b604082019050919050565b60006020820190508181036000830152614c9181614c55565b9050919050565b7f4e487b7100000000000000000000000000000000000000000000000000000000600052602260045260246000fd5b60006002820490506001821680614cdf57607f821691505b60208210811415614cf357614cf2614c98565b5b50919050565b600081905092915050565b60008190508160005260206000209050919050565b60008154614d2681614cc7565b614d308186614cf9565b94506001821660008114614d4b5760018114614d5c57614d8f565b60ff19831686528186019350614d8f565b614d6585614d04565b60005b83811015614d8757815481890152600182019150602081019050614d68565b838801955050505b50505092915050565b6000614da382613e16565b614dad8185614cf9565b9350614dbd818560208601613e32565b80840191505092915050565b6000614dd58285614d19565b9150614de18284614d98565b91508190509392505050565b7f455243313135353a2063616c6c6572206973206e6f7420746f6b656e206f776e60008201527f6572206e6f7220617070726f7665640000000000000000000000000000000000602082015250565b6000614e49602f83613e21565b9150614e5482614ded565b604082019050919050565b60006020820190508181036000830152614e7881614e3c565b9050919050565b7f416363657373436f6e74726f6c3a2063616e206f6e6c792072656e6f756e636560008201527f20726f6c657320666f722073656c660000000000000000000000000000000000602082015250565b6000614edb602f83613e21565b9150614ee682614e7f565b604082019050919050565b60006020820190508181036000830152614f0a81614ece565b9050919050565b7f4e487b7100000000000000000000000000000000000000000000000000000000600052603260045260246000fd5b7f4e487b7100000000000000000000000000000000000000000000000000000000600052601160045260246000fd5b6000614f7a82613c8e565b91507fffffffffffffffffffffffffffffffffffffffffffffffffffffffffffffffff821415614fad57614fac614f40565b5b600182019050919050565b7f455243313135353a206163636f756e747320616e6420696473206c656e67746860008201527f206d69736d617463680000000000000000000000000000000000000000000000602082015250565b6000615014602983613e21565b915061501f82614fb8565b604082019050919050565b6000602082019050818103600083015261504381615007565b9050919050565b6000615055826142c3565b9150615060836142c3565b92508260ff0382111561507657615075614f40565b5b828201905092915050565b600060039050919050565b600081905092915050565b6000819050919050565b6150aa81613c8e565b82525050565b60006150bc83836150a1565b60208301905092915050565b6000602082019050919050565b6150de81615081565b6150e8818461508c565b92506150f382615097565b8060005b8381101561512457815161510b87826150b0565b9650615116836150c8565b9250506001810190506150f7565b505050505050565b600061513882846150d5565b60608201915081905092915050565b7f455243313135353a2069647320616e6420616d6f756e7473206c656e6774682060008201527f6d69736d61746368000000000000000000000000000000000000000000000000602082015250565b60006151a3602883613e21565b91506151ae82615147565b604082019050919050565b600060208201905081810360008301526151d281615196565b9050919050565b7f455243313135353a207472616e7366657220746f20746865207a65726f20616460008201527f6472657373000000000000000000000000000000000000000000000000000000602082015250565b6000615235602583613e21565b9150615240826151d9565b604082019050919050565b6000602082019050818103600083015261526481615228565b9050919050565b7f455243313135353a20696e73756666696369656e742062616c616e636520666f60008201527f72207472616e7366657200000000000000000000000000000000000000000000602082015250565b60006152c7602a83613e21565b91506152d28261526b565b604082019050919050565b600060208201905081810360008301526152f6816152ba565b9050919050565b600061530882613c8e565b915061531383613c8e565b9250827fffffffffffffffffffffffffffffffffffffffffffffffffffffffffffffffff0382111561534857615347614f40565b5b828201905092915050565b6000604082019050818103600083015261536d8185614690565b905081810360208301526153818184614690565b90509392505050565b60008151905061539981613edb565b92915050565b6000602082840312156153b5576153b4613c26565b5b60006153c38482850161538a565b91505092915050565b7f4e487b7100000000000000000000000000000000000000000000000000000000600052601260045260246000fd5b600061540682613c8e565b915061541183613c8e565b925082615421576154206153cc565b5b828206905092915050565b7f455243313135353a2073657474696e6720617070726f76616c2073746174757360008201527f20666f722073656c660000000000000000000000000000000000000000000000602082015250565b6000615488602983613e21565b91506154938261542c565b604082019050919050565b600060208201905081810360008301526154b78161547b565b9050919050565b60006040820190506154d36000830185613d04565b6154e06020830184613d04565b9392505050565b600081519050919050565b600082825260208201905092915050565b600061550e826154e7565b61551881856154f2565b9350615528818560208601613e32565b61553181613e65565b840191505092915050565b600060a0820190506155516000830188614817565b61555e6020830187614817565b81810360408301526155708186614690565b905081810360608301526155848185614690565b905081810360808301526155988184615503565b90509695505050505050565b6000815190506155b381613d5a565b92915050565b6000602082840312156155cf576155ce613c26565b5b60006155dd848285016155a4565b91505092915050565b60008160e01c9050919050565b600060033d11156156125760046000803e61560f6000516155e6565b90505b90565b600060443d1015615625576156a8565b61562d613c1c565b60043d036004823e80513d602482011167ffffffffffffffff821117156156555750506156a8565b808201805167ffffffffffffffff81111561567357505050506156a8565b80602083010160043d0385018111156156905750505050506156a8565b61569f82602001850186613f92565b82955050505050505b90565b7f455243313135353a207472616e7366657220746f206e6f6e204552433131353560008201527f526563656976657220696d706c656d656e746572000000000000000000000000602082015250565b6000615707603483613e21565b9150615712826156ab565b604082019050919050565b60006020820190508181036000830152615736816156fa565b9050919050565b7f455243313135353a204552433131353552656365697665722072656a6563746560008201527f6420746f6b656e73000000000000000000000000000000000000000000000000602082015250565b6000615799602883613e21565b91506157a48261573d565b604082019050919050565b600060208201905081810360008301526157c88161578c565b9050919050565b7f416363657373436f6e74726f6c3a206163636f756e7420000000000000000000600082015250565b6000615805601783614cf9565b9150615810826157cf565b601782019050919050565b7f206973206d697373696e6720726f6c6520000000000000000000000000000000600082015250565b6000615851601183614cf9565b915061585c8261581b565b601182019050919050565b6000615872826157f8565b915061587e8285614d98565b915061588982615844565b91506158958284614d98565b91508190509392505050565b7f455243313135353a206d696e7420746f20746865207a65726f2061646472657360008201527f7300000000000000000000000000000000000000000000000000000000000000602082015250565b60006158fd602183613e21565b9150615908826158a1565b604082019050919050565b6000602082019050818103600083015261592c816158f0565b9050919050565b600060a0820190506159486000830188614817565b6159556020830187614817565b6159626040830186613d04565b61596f6060830185613d04565b81810360808301526159818184615503565b90509695505050505050565b600061599882613c8e565b91506159a383613c8e565b9250817fffffffffffffffffffffffffffffffffffffffffffffffffffffffffffffffff04831182151516156159dc576159db614f40565b5b828202905092915050565b60006159f282613c8e565b91506000821415615a0657615a05614f40565b5b600182039050919050565b7f537472696e67733a20686578206c656e67746820696e73756666696369656e74600082015250565b6000615a47602083613e21565b9150615a5282615a11565b602082019050919050565b60006020820190508181036000830152615a7681615a3a565b9050919050565b6000615a8882613c8e565b9150615a9383613c8e565b925082821015615aa657615aa5614f40565b5b828203905092915050565b7f4e487b7100000000000000000000000000000000000000000000000000000000600052603160045260246000fdfea264697066735822122044c0dcd501038ab92367a1035dd0ad64443ac09a9253141839ec1f450fc51aaa64736f6c63430008090033",
  "devdoc": {
    "author": "TobowerTheGreatAxios",
    "details": "This smart contract is an ERC-1155 standard contractThis contract is the core tokens for the mini-game*",
    "events": {
      "NewItem(uint256)": {
        "details": "Used in the [addItem] function",
        "params": {
          "tokenId": "The [tokenId] that was created"
        }
      },
      "NewPlayer(address,uint256[3])": {
        "details": "Used in the [initialMint] functionAll Tokens Minted will be equal to 1",
        "params": {
          "initialTokens": "The [initialTokens] that were added EXACT === 3",
          "newPlayer": "The [newPlayer]that was added by address"
        }
      },
      "TierUnlocked(address,uint256,uint8)": {
        "details": "Used inside the [winBattle] function",
        "params": {
          "player": "The [player] who is unlocked a new tier",
          "tier": "The [tier] that was unlocked",
          "tokenId": "The [tokenId] that was granted for this new tier"
        }
      },
      "Winner(address)": {
        "details": "Fires once a player has all of the last tier of items",
        "params": {
          "player": "the address of the winner"
        }
      }
    },
    "kind": "dev",
    "methods": {
      "addItem(uint8,string,string,string,string,uint256[],string)": {
        "details": "Creates Metadata -> Stores as New IndexSets Token URI for Backward Compatability with MarketplacesUpdates Number Of ItemsEmits [NewItem] event",
        "params": {
          "animation": "Animation of the Item",
          "beats": "List of who the token beats",
          "description": "Description of the Item",
          "image": "Image of the Item",
          "name": "Name of the Item",
          "tokenURI": "Gen I Token URI"
        }
      },
      "balanceOf(address,uint256)": {
        "details": "See {IERC1155-balanceOf}. Requirements: - `account` cannot be the zero address."
      },
      "balanceOfBatch(address[],uint256[])": {
        "details": "See {IERC1155-balanceOfBatch}. Requirements: - `accounts` and `ids` must have the same length."
      },
      "getItems(address)": {
        "details": "Thoughts on making this a signed request during ETH CC?",
        "params": {
          "_address": "of the user"
        },
        "returns": {
          "_0": "GameItemMetadata[] the items of the player"
        }
      },
      "getNumberItems()": {
        "returns": {
          "_0": "uint256 of the number of active game items"
        }
      },
      "getNumberPlayers()": {
        "returns": {
          "_0": ""
        }
      },
      "getOnChainToken(uint256)": {
        "params": {
          "tokenId": "of the token to retreive"
        },
        "returns": {
          "_0": "GameItemMetadata of the Item"
        }
      },
      "getRoleAdmin(bytes32)": {
        "details": "Returns the admin role that controls `role`. See {grantRole} and {revokeRole}. To change a role's admin, use {_setRoleAdmin}."
      },
      "getRoleMember(bytes32,uint256)": {
        "details": "Returns one of the accounts that have `role`. `index` must be a value between 0 and {getRoleMemberCount}, non-inclusive. Role bearers are not sorted in any particular way, and their ordering may change at any point. WARNING: When using {getRoleMember} and {getRoleMemberCount}, make sure you perform all queries on the same block. See the following https://forum.openzeppelin.com/t/iterating-over-elements-on-enumerableset-in-openzeppelin-contracts/2296[forum post] for more information."
      },
      "getRoleMemberCount(bytes32)": {
        "details": "Returns the number of accounts that have `role`. Can be used together with {getRoleMember} to enumerate all bearers of a role."
      },
      "getUnlockDate()": {
        "details": "Can be deprecated",
        "returns": {
          "_0": "uint256 time in epoch * 1000"
        }
      },
      "grantRole(bytes32,address)": {
        "details": "Grants `role` to `account`. If `account` had not been already granted `role`, emits a {RoleGranted} event. Requirements: - the caller must have ``role``'s admin role. May emit a {RoleGranted} event."
      },
      "hasRole(bytes32,address)": {
        "details": "Returns `true` if `account` has been granted `role`."
      },
      "initialMint(address)": {
        "details": "Initial Mint FunctionOnly Callalble by MINTER_ROLEEmits [NewPlayer] event and adds a new player",
        "params": {
          "receiver": "the individual receiving the intial mint"
        }
      },
      "isApprovedForAll(address,address)": {
        "details": "See {IERC1155-isApprovedForAll}."
      },
      "isLocked()": {
        "details": "Internal/ExternalReturns True if Locked",
        "returns": {
          "_0": "bool if is locked"
        }
      },
      "playoff()": {
        "details": "Uses RNG to Find # between 0-1000Returns true for P2, False for P2",
        "returns": {
          "_0": "bool "
        }
      },
      "renounceRole(bytes32,address)": {
        "details": "Revokes `role` from the calling account. Roles are often managed via {grantRole} and {revokeRole}: this function's purpose is to provide a mechanism for accounts to lose their privileges if they are compromised (such as when a trusted device is misplaced). If the calling account had been revoked `role`, emits a {RoleRevoked} event. Requirements: - the caller must be `account`. May emit a {RoleRevoked} event."
      },
      "revokeRole(bytes32,address)": {
        "details": "Revokes `role` from `account`. If `account` had been granted `role`, emits a {RoleRevoked} event. Requirements: - the caller must have ``role``'s admin role. May emit a {RoleRevoked} event."
      },
      "safeBatchTransferFrom(address,address,uint256[],uint256[],bytes)": {
        "details": "See {IERC1155-safeBatchTransferFrom}."
      },
      "safeTransferFrom(address,address,uint256,uint256,bytes)": {
        "details": "See {IERC1155-safeTransferFrom}."
      },
      "setApprovalForAll(address,bool)": {
        "details": "See {IERC1155-setApprovalForAll}."
      },
      "uri(uint256)": {
        "details": "See {IERC1155MetadataURI-uri}. This implementation returns the concatenation of the `_baseURI` and the token-specific uri if the latter is set This enables the following behaviors: - if `_tokenURIs[tokenId]` is set, then the result is the concatenation   of `_baseURI` and `_tokenURIs[tokenId]` (keep in mind that `_baseURI`   is empty per default); - if `_tokenURIs[tokenId]` is NOT set then we fallback to `super.uri()`   which in most cases will contain `ERC1155._uri`; - if `_tokenURIs[tokenId]` is NOT set, and if the parents do not have a   uri value set, then the result is empty."
      },
      "winBattle(address,uint256)": {
        "details": "On Battle Win -> Win Manager Mints",
        "params": {
          "receiever": "the user that wins",
          "tokenId": "The tokenId to be minted"
        }
      }
    },
    "version": 1
  },
  "userdoc": {
    "events": {
      "NewItem(uint256)": {
        "notice": "Emits a new item being added to the contract [token]"
      },
      "NewPlayer(address,uint256[3])": {
        "notice": "Emits a new player being added to the contract [address]"
      },
      "TierUnlocked(address,uint256,uint8)": {
        "notice": "Emits a TierUnlocked allowing for the frontend to notify the player"
      },
      "Winner(address)": {
        "notice": "Emits a Winner event"
      }
    },
    "kind": "user",
    "methods": {
      "ADMIN_ROLE()": {
        "notice": "Admin Role to Toggle Contract"
      },
      "MINTER_APPRENTICE_ROLE()": {
        "notice": "Minter Role Apprentice"
      },
      "MINTER_ROLE()": {
        "notice": "Can Fire Initial Mint"
      },
      "WIN_MANAGER_ROLE()": {
        "notice": "Can Mint on Wini"
      },
      "addItem(uint8,string,string,string,string,uint256[],string)": {
        "notice": "Admin Function that enables the admin owner to add new tokens to the contract storage"
      },
      "getItems(address)": {
        "notice": "Loads all the Metadata by a player in order to allow them to load the data"
      },
      "getNumberItems()": {
        "notice": "Retrieves the Total Number of Items in the Game"
      },
      "getNumberPlayers()": {
        "notice": "Retreives the current number of players/holders"
      },
      "getOnChainToken(uint256)": {
        "notice": "Returns on Chain Token - Single (Metadata)"
      },
      "getUnlockDate()": {
        "notice": "Retreives Unlock Date"
      },
      "isLocked()": {
        "notice": "Checks if contract is locked"
      },
      "playoff()": {
        "notice": "Playoff Function for Battle.sol"
      },
      "supportsInterface(bytes4)": {
        "notice": "Required for Inheriting Contracts"
      },
      "winBattle(address,uint256)": {
        "notice": "WIN_MANAGER_CALL"
      }
    },
    "notice": "GameItems for ETH CC",
    "version": 1
  },
  "storageLayout": {
    "storage": [
      {
        "astId": 24,
        "contract": "contracts/GameItems.sol:GameItems",
        "label": "_roles",
        "offset": 0,
        "slot": "0",
        "type": "t_mapping(t_bytes32,t_struct(RoleData)19_storage)"
      },
      {
        "astId": 338,
        "contract": "contracts/GameItems.sol:GameItems",
        "label": "_roleMembers",
        "offset": 0,
        "slot": "1",
        "type": "t_mapping(t_bytes32,t_struct(AddressSet)2922_storage)"
      },
      {
        "astId": 568,
        "contract": "contracts/GameItems.sol:GameItems",
        "label": "_balances",
        "offset": 0,
        "slot": "2",
        "type": "t_mapping(t_uint256,t_mapping(t_address,t_uint256))"
      },
      {
        "astId": 574,
        "contract": "contracts/GameItems.sol:GameItems",
        "label": "_operatorApprovals",
        "offset": 0,
        "slot": "3",
        "type": "t_mapping(t_address,t_mapping(t_address,t_bool))"
      },
      {
        "astId": 576,
        "contract": "contracts/GameItems.sol:GameItems",
        "label": "_uri",
        "offset": 0,
        "slot": "4",
        "type": "t_string_storage"
      },
      {
        "astId": 1941,
        "contract": "contracts/GameItems.sol:GameItems",
        "label": "_baseURI",
        "offset": 0,
        "slot": "5",
        "type": "t_string_storage"
      },
      {
        "astId": 1945,
        "contract": "contracts/GameItems.sol:GameItems",
        "label": "_tokenURIs",
        "offset": 0,
        "slot": "6",
        "type": "t_mapping(t_uint256,t_string_storage)"
      },
      {
        "astId": 3253,
        "contract": "contracts/GameItems.sol:GameItems",
        "label": "numberItems",
        "offset": 0,
        "slot": "7",
        "type": "t_uint256"
      },
      {
        "astId": 3256,
        "contract": "contracts/GameItems.sol:GameItems",
        "label": "numberPlayers",
        "offset": 0,
        "slot": "8",
        "type": "t_uint256"
      },
      {
        "astId": 3262,
        "contract": "contracts/GameItems.sol:GameItems",
        "label": "metadata",
        "offset": 0,
        "slot": "9",
        "type": "t_mapping(t_uint256,t_struct(GameItemMetadata)4317_storage)"
      },
      {
        "astId": 3269,
        "contract": "contracts/GameItems.sol:GameItems",
        "label": "tierTracker",
        "offset": 0,
        "slot": "10",
        "type": "t_mapping(t_uint256,t_mapping(t_address,t_bool))"
      },
      {
        "astId": 3293,
        "contract": "contracts/GameItems.sol:GameItems",
        "label": "unlockDate",
        "offset": 0,
        "slot": "11",
        "type": "t_uint256"
      }
    ],
    "types": {
      "t_address": {
        "encoding": "inplace",
        "label": "address",
        "numberOfBytes": "20"
      },
      "t_array(t_bytes32)dyn_storage": {
        "base": "t_bytes32",
        "encoding": "dynamic_array",
        "label": "bytes32[]",
        "numberOfBytes": "32"
      },
      "t_array(t_uint256)dyn_storage": {
        "base": "t_uint256",
        "encoding": "dynamic_array",
        "label": "uint256[]",
        "numberOfBytes": "32"
      },
      "t_bool": {
        "encoding": "inplace",
        "label": "bool",
        "numberOfBytes": "1"
      },
      "t_bytes32": {
        "encoding": "inplace",
        "label": "bytes32",
        "numberOfBytes": "32"
      },
      "t_mapping(t_address,t_bool)": {
        "encoding": "mapping",
        "key": "t_address",
        "label": "mapping(address => bool)",
        "numberOfBytes": "32",
        "value": "t_bool"
      },
      "t_mapping(t_address,t_mapping(t_address,t_bool))": {
        "encoding": "mapping",
        "key": "t_address",
        "label": "mapping(address => mapping(address => bool))",
        "numberOfBytes": "32",
        "value": "t_mapping(t_address,t_bool)"
      },
      "t_mapping(t_address,t_uint256)": {
        "encoding": "mapping",
        "key": "t_address",
        "label": "mapping(address => uint256)",
        "numberOfBytes": "32",
        "value": "t_uint256"
      },
      "t_mapping(t_bytes32,t_struct(AddressSet)2922_storage)": {
        "encoding": "mapping",
        "key": "t_bytes32",
        "label": "mapping(bytes32 => struct EnumerableSet.AddressSet)",
        "numberOfBytes": "32",
        "value": "t_struct(AddressSet)2922_storage"
      },
      "t_mapping(t_bytes32,t_struct(RoleData)19_storage)": {
        "encoding": "mapping",
        "key": "t_bytes32",
        "label": "mapping(bytes32 => struct AccessControl.RoleData)",
        "numberOfBytes": "32",
        "value": "t_struct(RoleData)19_storage"
      },
      "t_mapping(t_bytes32,t_uint256)": {
        "encoding": "mapping",
        "key": "t_bytes32",
        "label": "mapping(bytes32 => uint256)",
        "numberOfBytes": "32",
        "value": "t_uint256"
      },
      "t_mapping(t_uint256,t_mapping(t_address,t_bool))": {
        "encoding": "mapping",
        "key": "t_uint256",
        "label": "mapping(uint256 => mapping(address => bool))",
        "numberOfBytes": "32",
        "value": "t_mapping(t_address,t_bool)"
      },
      "t_mapping(t_uint256,t_mapping(t_address,t_uint256))": {
        "encoding": "mapping",
        "key": "t_uint256",
        "label": "mapping(uint256 => mapping(address => uint256))",
        "numberOfBytes": "32",
        "value": "t_mapping(t_address,t_uint256)"
      },
      "t_mapping(t_uint256,t_string_storage)": {
        "encoding": "mapping",
        "key": "t_uint256",
        "label": "mapping(uint256 => string)",
        "numberOfBytes": "32",
        "value": "t_string_storage"
      },
      "t_mapping(t_uint256,t_struct(GameItemMetadata)4317_storage)": {
        "encoding": "mapping",
        "key": "t_uint256",
        "label": "mapping(uint256 => struct IGameItems.GameItemMetadata)",
        "numberOfBytes": "32",
        "value": "t_struct(GameItemMetadata)4317_storage"
      },
      "t_string_storage": {
        "encoding": "bytes",
        "label": "string",
        "numberOfBytes": "32"
      },
      "t_struct(AddressSet)2922_storage": {
        "encoding": "inplace",
        "label": "struct EnumerableSet.AddressSet",
        "members": [
          {
            "astId": 2921,
            "contract": "contracts/GameItems.sol:GameItems",
            "label": "_inner",
            "offset": 0,
            "slot": "0",
            "type": "t_struct(Set)2621_storage"
          }
        ],
        "numberOfBytes": "64"
      },
      "t_struct(GameItemMetadata)4317_storage": {
        "encoding": "inplace",
        "label": "struct IGameItems.GameItemMetadata",
        "members": [
          {
            "astId": 4305,
            "contract": "contracts/GameItems.sol:GameItems",
            "label": "tier",
            "offset": 0,
            "slot": "0",
            "type": "t_uint8"
          },
          {
            "astId": 4307,
            "contract": "contracts/GameItems.sol:GameItems",
            "label": "name",
            "offset": 0,
            "slot": "1",
            "type": "t_string_storage"
          },
          {
            "astId": 4309,
            "contract": "contracts/GameItems.sol:GameItems",
            "label": "description",
            "offset": 0,
            "slot": "2",
            "type": "t_string_storage"
          },
          {
            "astId": 4311,
            "contract": "contracts/GameItems.sol:GameItems",
            "label": "image",
            "offset": 0,
            "slot": "3",
            "type": "t_string_storage"
          },
          {
            "astId": 4313,
            "contract": "contracts/GameItems.sol:GameItems",
            "label": "animationUrl",
            "offset": 0,
            "slot": "4",
            "type": "t_string_storage"
          },
          {
            "astId": 4316,
            "contract": "contracts/GameItems.sol:GameItems",
            "label": "beats",
            "offset": 0,
            "slot": "5",
            "type": "t_array(t_uint256)dyn_storage"
          }
        ],
        "numberOfBytes": "192"
      },
      "t_struct(RoleData)19_storage": {
        "encoding": "inplace",
        "label": "struct AccessControl.RoleData",
        "members": [
          {
            "astId": 16,
            "contract": "contracts/GameItems.sol:GameItems",
            "label": "members",
            "offset": 0,
            "slot": "0",
            "type": "t_mapping(t_address,t_bool)"
          },
          {
            "astId": 18,
            "contract": "contracts/GameItems.sol:GameItems",
            "label": "adminRole",
            "offset": 0,
            "slot": "1",
            "type": "t_bytes32"
          }
        ],
        "numberOfBytes": "64"
      },
      "t_struct(Set)2621_storage": {
        "encoding": "inplace",
        "label": "struct EnumerableSet.Set",
        "members": [
          {
            "astId": 2616,
            "contract": "contracts/GameItems.sol:GameItems",
            "label": "_values",
            "offset": 0,
            "slot": "0",
            "type": "t_array(t_bytes32)dyn_storage"
          },
          {
            "astId": 2620,
            "contract": "contracts/GameItems.sol:GameItems",
            "label": "_indexes",
            "offset": 0,
            "slot": "1",
            "type": "t_mapping(t_bytes32,t_uint256)"
          }
        ],
        "numberOfBytes": "64"
      },
      "t_uint256": {
        "encoding": "inplace",
        "label": "uint256",
        "numberOfBytes": "32"
      },
      "t_uint8": {
        "encoding": "inplace",
        "label": "uint8",
        "numberOfBytes": "1"
      }
    }
  }
}